{
  "address": "0x8A791620dd6260079BF849Dc5567aDC3F2FdC318",
  "abi": [
    {
      "inputs": [],
      "stateMutability": "nonpayable",
      "type": "constructor"
    },
    {
      "anonymous": false,
      "inputs": [
        {
          "indexed": true,
          "internalType": "address",
          "name": "account",
          "type": "address"
        },
        {
          "indexed": true,
          "internalType": "address",
          "name": "operator",
          "type": "address"
        },
        {
          "indexed": false,
          "internalType": "bool",
          "name": "approved",
          "type": "bool"
        }
      ],
      "name": "ApprovalForAll",
      "type": "event"
    },
    {
      "anonymous": false,
      "inputs": [
        {
          "indexed": true,
          "internalType": "bytes32",
          "name": "role",
          "type": "bytes32"
        },
        {
          "indexed": true,
          "internalType": "bytes32",
          "name": "previousAdminRole",
          "type": "bytes32"
        },
        {
          "indexed": true,
          "internalType": "bytes32",
          "name": "newAdminRole",
          "type": "bytes32"
        }
      ],
      "name": "RoleAdminChanged",
      "type": "event"
    },
    {
      "anonymous": false,
      "inputs": [
        {
          "indexed": true,
          "internalType": "bytes32",
          "name": "role",
          "type": "bytes32"
        },
        {
          "indexed": true,
          "internalType": "address",
          "name": "account",
          "type": "address"
        },
        {
          "indexed": true,
          "internalType": "address",
          "name": "sender",
          "type": "address"
        }
      ],
      "name": "RoleGranted",
      "type": "event"
    },
    {
      "anonymous": false,
      "inputs": [
        {
          "indexed": true,
          "internalType": "bytes32",
          "name": "role",
          "type": "bytes32"
        },
        {
          "indexed": true,
          "internalType": "address",
          "name": "account",
          "type": "address"
        },
        {
          "indexed": true,
          "internalType": "address",
          "name": "sender",
          "type": "address"
        }
      ],
      "name": "RoleRevoked",
      "type": "event"
    },
    {
      "anonymous": false,
      "inputs": [
        {
          "indexed": true,
          "internalType": "address",
          "name": "operator",
          "type": "address"
        },
        {
          "indexed": true,
          "internalType": "address",
          "name": "from",
          "type": "address"
        },
        {
          "indexed": true,
          "internalType": "address",
          "name": "to",
          "type": "address"
        },
        {
          "indexed": false,
          "internalType": "uint256[]",
          "name": "ids",
          "type": "uint256[]"
        },
        {
          "indexed": false,
          "internalType": "uint256[]",
          "name": "values",
          "type": "uint256[]"
        }
      ],
      "name": "TransferBatch",
      "type": "event"
    },
    {
      "anonymous": false,
      "inputs": [
        {
          "indexed": true,
          "internalType": "address",
          "name": "operator",
          "type": "address"
        },
        {
          "indexed": true,
          "internalType": "address",
          "name": "from",
          "type": "address"
        },
        {
          "indexed": true,
          "internalType": "address",
          "name": "to",
          "type": "address"
        },
        {
          "indexed": false,
          "internalType": "uint256",
          "name": "id",
          "type": "uint256"
        },
        {
          "indexed": false,
          "internalType": "uint256",
          "name": "value",
          "type": "uint256"
        }
      ],
      "name": "TransferSingle",
      "type": "event"
    },
    {
      "anonymous": false,
      "inputs": [
        {
          "indexed": false,
          "internalType": "string",
          "name": "value",
          "type": "string"
        },
        {
          "indexed": true,
          "internalType": "uint256",
          "name": "id",
          "type": "uint256"
        }
      ],
      "name": "URI",
      "type": "event"
    },
    {
      "inputs": [],
      "name": "DEFAULT_ADMIN_ROLE",
      "outputs": [
        {
          "internalType": "bytes32",
          "name": "",
          "type": "bytes32"
        }
      ],
      "stateMutability": "view",
      "type": "function"
    },
    {
      "inputs": [
        {
          "internalType": "address",
          "name": "_from",
          "type": "address"
        },
        {
          "internalType": "address",
          "name": "_to",
          "type": "address"
        },
        {
          "internalType": "uint256",
          "name": "_debtId",
          "type": "uint256"
        },
        {
          "internalType": "bytes",
          "name": "_data",
          "type": "bytes"
        }
      ],
      "name": "anzaTransferFrom",
      "outputs": [],
      "stateMutability": "nonpayable",
      "type": "function"
    },
    {
      "inputs": [
        {
          "internalType": "address",
          "name": "account",
          "type": "address"
        },
        {
          "internalType": "uint256",
          "name": "id",
          "type": "uint256"
        }
      ],
      "name": "balanceOf",
      "outputs": [
        {
          "internalType": "uint256",
          "name": "",
          "type": "uint256"
        }
      ],
      "stateMutability": "view",
      "type": "function"
    },
    {
      "inputs": [
        {
          "internalType": "address[]",
          "name": "accounts",
          "type": "address[]"
        },
        {
          "internalType": "uint256[]",
          "name": "ids",
          "type": "uint256[]"
        }
      ],
      "name": "balanceOfBatch",
      "outputs": [
        {
          "internalType": "uint256[]",
          "name": "",
          "type": "uint256[]"
        }
      ],
      "stateMutability": "view",
      "type": "function"
    },
    {
      "inputs": [
        {
          "internalType": "uint256",
          "name": "_debtId",
          "type": "uint256"
        }
      ],
      "name": "borrowerOf",
      "outputs": [
        {
          "internalType": "address",
          "name": "",
          "type": "address"
        }
      ],
      "stateMutability": "view",
      "type": "function"
    },
    {
      "inputs": [
        {
          "internalType": "uint256",
          "name": "_debtId",
          "type": "uint256"
        }
      ],
      "name": "borrowerTokenId",
      "outputs": [
        {
          "internalType": "uint256",
          "name": "",
          "type": "uint256"
        }
      ],
      "stateMutability": "pure",
      "type": "function"
    },
    {
      "inputs": [
        {
          "internalType": "address",
          "name": "_account",
          "type": "address"
        },
        {
          "internalType": "uint256",
          "name": "_id",
          "type": "uint256"
        },
        {
          "internalType": "uint256",
          "name": "_value",
          "type": "uint256"
        }
      ],
      "name": "burn",
      "outputs": [],
      "stateMutability": "nonpayable",
      "type": "function"
    },
    {
      "inputs": [
        {
          "internalType": "address",
          "name": "account",
          "type": "address"
        },
        {
          "internalType": "uint256[]",
          "name": "ids",
          "type": "uint256[]"
        },
        {
          "internalType": "uint256[]",
          "name": "values",
          "type": "uint256[]"
        }
      ],
      "name": "burnBatch",
      "outputs": [],
      "stateMutability": "nonpayable",
      "type": "function"
    },
    {
      "inputs": [
        {
          "internalType": "uint256",
          "name": "_debtId",
          "type": "uint256"
        }
      ],
      "name": "burnBorrowerToken",
      "outputs": [],
      "stateMutability": "nonpayable",
      "type": "function"
    },
    {
      "inputs": [
        {
          "internalType": "address",
          "name": "_account",
          "type": "address"
        },
        {
          "internalType": "uint256",
          "name": "_debtId",
          "type": "uint256"
        }
      ],
      "name": "checkBorrowerOf",
      "outputs": [
        {
          "internalType": "bool",
          "name": "",
          "type": "bool"
        }
      ],
      "stateMutability": "view",
      "type": "function"
    },
    {
      "inputs": [
        {
          "internalType": "uint256",
          "name": "id",
          "type": "uint256"
        }
      ],
      "name": "exists",
      "outputs": [
        {
          "internalType": "bool",
          "name": "",
          "type": "bool"
        }
      ],
      "stateMutability": "view",
      "type": "function"
    },
    {
      "inputs": [
        {
          "internalType": "bytes32",
          "name": "role",
          "type": "bytes32"
        }
      ],
      "name": "getRoleAdmin",
      "outputs": [
        {
          "internalType": "bytes32",
          "name": "",
          "type": "bytes32"
        }
      ],
      "stateMutability": "view",
      "type": "function"
    },
    {
      "inputs": [
        {
          "internalType": "bytes32",
          "name": "role",
          "type": "bytes32"
        },
        {
          "internalType": "address",
          "name": "account",
          "type": "address"
        }
      ],
      "name": "grantRole",
      "outputs": [],
      "stateMutability": "nonpayable",
      "type": "function"
    },
    {
      "inputs": [
        {
          "internalType": "bytes32",
          "name": "role",
          "type": "bytes32"
        },
        {
          "internalType": "address",
          "name": "account",
          "type": "address"
        }
      ],
      "name": "hasRole",
      "outputs": [
        {
          "internalType": "bool",
          "name": "",
          "type": "bool"
        }
      ],
      "stateMutability": "view",
      "type": "function"
    },
    {
      "inputs": [
        {
          "internalType": "address",
          "name": "_account",
          "type": "address"
        },
        {
          "internalType": "address",
          "name": "_operator",
          "type": "address"
        }
      ],
      "name": "isApprovedForAll",
      "outputs": [
        {
          "internalType": "bool",
          "name": "",
          "type": "bool"
        }
      ],
      "stateMutability": "view",
      "type": "function"
    },
    {
      "inputs": [
        {
          "internalType": "uint256",
          "name": "_debtId",
          "type": "uint256"
        }
      ],
      "name": "lenderOf",
      "outputs": [
        {
          "internalType": "address",
          "name": "",
          "type": "address"
        }
      ],
      "stateMutability": "view",
      "type": "function"
    },
    {
      "inputs": [
        {
          "internalType": "uint256",
          "name": "_debtId",
          "type": "uint256"
        }
      ],
      "name": "lenderTokenId",
      "outputs": [
        {
          "internalType": "uint256",
          "name": "",
          "type": "uint256"
        }
      ],
      "stateMutability": "pure",
      "type": "function"
    },
    {
      "inputs": [
        {
          "internalType": "uint256",
          "name": "_debtId",
          "type": "uint256"
        },
        {
          "internalType": "uint256",
          "name": "_amount",
          "type": "uint256"
        }
      ],
      "name": "mint",
      "outputs": [],
      "stateMutability": "nonpayable",
      "type": "function"
    },
    {
      "inputs": [
        {
          "internalType": "address",
          "name": "_to",
          "type": "address"
        },
        {
          "internalType": "uint256",
          "name": "_id",
          "type": "uint256"
        },
        {
          "internalType": "uint256",
          "name": "_amount",
          "type": "uint256"
        },
        {
          "internalType": "string",
          "name": "_collateralURI",
          "type": "string"
        },
        {
          "internalType": "bytes",
          "name": "_data",
          "type": "bytes"
        }
      ],
      "name": "mint",
      "outputs": [],
      "stateMutability": "nonpayable",
      "type": "function"
    },
    {
      "inputs": [],
      "name": "name",
      "outputs": [
        {
          "internalType": "string",
          "name": "",
          "type": "string"
        }
      ],
      "stateMutability": "pure",
      "type": "function"
    },
    {
      "inputs": [
        {
          "internalType": "uint256",
          "name": "_tokenId",
          "type": "uint256"
        }
      ],
      "name": "ownerOf",
      "outputs": [
        {
          "internalType": "address",
          "name": "",
          "type": "address"
        }
      ],
      "stateMutability": "view",
      "type": "function"
    },
    {
      "inputs": [
        {
          "internalType": "bytes32",
          "name": "role",
          "type": "bytes32"
        },
        {
          "internalType": "address",
          "name": "account",
          "type": "address"
        }
      ],
      "name": "renounceRole",
      "outputs": [],
      "stateMutability": "nonpayable",
      "type": "function"
    },
    {
      "inputs": [
        {
          "internalType": "bytes32",
          "name": "role",
          "type": "bytes32"
        },
        {
          "internalType": "address",
          "name": "account",
          "type": "address"
        }
      ],
      "name": "revokeRole",
      "outputs": [],
      "stateMutability": "nonpayable",
      "type": "function"
    },
    {
      "inputs": [
        {
          "internalType": "address",
          "name": "from",
          "type": "address"
        },
        {
          "internalType": "address",
          "name": "to",
          "type": "address"
        },
        {
          "internalType": "uint256[]",
          "name": "ids",
          "type": "uint256[]"
        },
        {
          "internalType": "uint256[]",
          "name": "amounts",
          "type": "uint256[]"
        },
        {
          "internalType": "bytes",
          "name": "data",
          "type": "bytes"
        }
      ],
      "name": "safeBatchTransferFrom",
      "outputs": [],
      "stateMutability": "nonpayable",
      "type": "function"
    },
    {
      "inputs": [
        {
          "internalType": "address",
          "name": "from",
          "type": "address"
        },
        {
          "internalType": "address",
          "name": "to",
          "type": "address"
        },
        {
          "internalType": "uint256",
          "name": "id",
          "type": "uint256"
        },
        {
          "internalType": "uint256",
          "name": "amount",
          "type": "uint256"
        },
        {
          "internalType": "bytes",
          "name": "data",
          "type": "bytes"
        }
      ],
      "name": "safeTransferFrom",
      "outputs": [],
      "stateMutability": "nonpayable",
      "type": "function"
    },
    {
      "inputs": [
        {
          "internalType": "address",
          "name": "operator",
          "type": "address"
        },
        {
          "internalType": "bool",
          "name": "approved",
          "type": "bool"
        }
      ],
      "name": "setApprovalForAll",
      "outputs": [],
      "stateMutability": "nonpayable",
      "type": "function"
    },
    {
      "inputs": [
        {
          "internalType": "bytes4",
          "name": "_interfaceId",
          "type": "bytes4"
        }
      ],
      "name": "supportsInterface",
      "outputs": [
        {
          "internalType": "bool",
          "name": "",
          "type": "bool"
        }
      ],
      "stateMutability": "view",
      "type": "function"
    },
    {
      "inputs": [],
      "name": "symbol",
      "outputs": [
        {
          "internalType": "string",
          "name": "",
          "type": "string"
        }
      ],
      "stateMutability": "pure",
      "type": "function"
    },
    {
      "inputs": [
        {
          "internalType": "uint256",
          "name": "id",
          "type": "uint256"
        }
      ],
      "name": "totalSupply",
      "outputs": [
        {
          "internalType": "uint256",
          "name": "",
          "type": "uint256"
        }
      ],
      "stateMutability": "view",
      "type": "function"
    },
    {
      "inputs": [
        {
          "internalType": "uint256",
          "name": "_tokenId",
          "type": "uint256"
        }
      ],
      "name": "uri",
      "outputs": [
        {
          "internalType": "string",
          "name": "",
          "type": "string"
        }
      ],
      "stateMutability": "view",
      "type": "function"
    }
  ],
  "transactionHash": "0xb31b7b5080e9588c476934e6031cd5e54442fb6726e229d7b7f875d9cee4a2e1",
  "args": [],
  "numDeployments": 1,
  "solcInputHash": "6026b98393f52c3678e3a85d9b556f4c",
  "bytecode": "0x608060405234801562000010575f80fd5b5060408051602081019091525f81526200002a8162000113565b50620000455f80516020620030958339815191528062000125565b6200007f7faca95a87ebdd693d0a3734440ea0ab66d6317f6d32766e386292131defadde1a5f805160206200309583398151915262000125565b620000b97f8d24385f76974ce9574accf90a96cb183e175b097a0cdc49dd2ddd96f6374b725f805160206200309583398151915262000125565b620000f37f6ff243dd0433898c62e5507995453d38065c2abe8d8faf3cc448711da30c566a5f805160206200309583398151915262000125565b6200010d5f8051602062003095833981519152336200016f565b62000379565b6002620001218282620002b1565b5050565b5f82815260046020526040808220600101805490849055905190918391839186917fbd79b86ffe0ab8e8776151514217cd7cacd52c909f66475c3af44e129f0b00ff9190a4505050565b5f8281526004602090815260408083206001600160a01b038516845290915290205460ff1662000121575f8281526004602090815260408083206001600160a01b03851684529091529020805460ff19166001179055620001cd3390565b6001600160a01b0316816001600160a01b0316837f2f8788117e7eff1d82e926ec794901d17c78024a50270940304540a733656f0d60405160405180910390a45050565b634e487b7160e01b5f52604160045260245ffd5b600181811c908216806200023a57607f821691505b6020821081036200025957634e487b7160e01b5f52602260045260245ffd5b50919050565b601f821115620002ac575f81815260208120601f850160051c81016020861015620002875750805b601f850160051c820191505b81811015620002a85782815560010162000293565b5050505b505050565b81516001600160401b03811115620002cd57620002cd62000211565b620002e581620002de845462000225565b846200025f565b602080601f8311600181146200031b575f8415620003035750858301515b5f19600386901b1c1916600185901b178555620002a8565b5f85815260208120601f198616915b828110156200034b578886015182559484019460019091019084016200032a565b50858210156200036957878501515f19600388901b60f8161c191681555b5050505050600190811b01905550565b612d0e80620003875f395ff3fe608060405234801561000f575f80fd5b5060043610610194575f3560e01c8063516f4cce116100e0578063a4b645eb1161008f578063a4b645eb146103d7578063b5b7f9cc146103ea578063bd85b039146103fd578063d547741f1461041c578063e004b5221461042f578063e985e9c514610442578063f242432a14610455578063f5298aca14610468575f80fd5b8063516f4cce1461033d5780636352211e146103505780636b20c4541461037857806391d148541461038b57806395d89b411461039e578063a217fddf146103bd578063a22cb465146103c4575f80fd5b80632a1ec1da116101475780632a1ec1da1461028a5780632a24d53d1461029d5780632c77d182146102b05780632eb2c2d6146102c35780632f2ff15d146102d657806336568abe146102e95780634e1273f4146102fc5780634f558e791461031c575f80fd5b8062fdd58e1461019857806301ffc9a7146101be57806306fdde03146101e15780630e89341c146102155780630f33deee146102285780631b2ef1ca14610253578063248a9ca314610268575b5f80fd5b6101ab6101a6366004611f5a565b61047b565b6040519081526020015b60405180910390f35b6101d16101cc366004611f97565b610512565b60405190151581526020016101b5565b60408051808201909152600f81526e20b73d30902232b13a102a37b5b2b760891b60208201525b6040516101b59190611fff565b610208610223366004612011565b610545565b61023b610236366004612011565b610655565b6040516001600160a01b0390911681526020016101b5565b610266610261366004612028565b610683565b005b6101ab610276366004612011565b5f9081526004602052604090206001015490565b610266610298366004612011565b6106c9565b61023b6102ab366004612011565b61071c565b6101d16102be366004611f5a565b610736565b6102666102d1366004612187565b610770565b6102666102e4366004612229565b6107bc565b6102666102f7366004612229565b6107e0565b61030f61030a366004612253565b61085a565b6040516101b59190612350565b6101d161032a366004612011565b5f90815260066020526040902054151590565b6101ab61034b366004612011565b610981565b61023b61035e366004612011565b5f908152600560205260409020546001600160a01b031690565b610266610386366004612362565b610998565b6101d1610399366004612229565b6109db565b60408051808201909152600381526210511560ea1b6020820152610208565b6101ab5f81565b6102666103d23660046123d0565b610a05565b6102666103e5366004612409565b610a10565b6102666103f83660046124b9565b610ae0565b6101ab61040b366004612011565b5f9081526006602052604090205490565b61026661042a366004612229565b610b3d565b6101ab61043d366004612011565b610b61565b6101d161045036600461251c565b610b6d565b610266610463366004612544565b610bb8565b6102666104763660046125a3565b610bfd565b5f6001600160a01b0383166104ea5760405162461bcd60e51b815260206004820152602a60248201527f455243313135353a2061646472657373207a65726f206973206e6f742061207660448201526930b634b21037bbb732b960b11b60648201526084015b60405180910390fd5b505f818152602081815260408083206001600160a01b03861684529091529020545b92915050565b5f6001600160e01b03198216633d8acb6b60e21b1480610536575061053682610c57565b8061050c575061050c82610ca6565b60606105526002836125e7565b156105f0575f828152600360205260409020805461056f906125fa565b80601f016020809104026020016040519081016040528092919081815260200182805461059b906125fa565b80156105e65780601f106105bd576101008083540402835291602001916105e6565b820191905f5260205f20905b8154815290600101906020018083116105c957829003601f168201915b505050505061050c565b6040518060400160405280601b81526020017f68747470733a2f2f7777772e615f626173655f7572692e636f6d2f000000000081525061062f83610cca565b604051602001610640929190612632565b60405160208183030381529060405292915050565b5f60058161066484600261268b565b815260208101919091526040015f20546001600160a01b031692915050565b5f80516020612cb983398151915261069a81610d59565b6106c46106a684610655565b6106af85610b61565b8460405180602001604052805f815250610d66565b505050565b5f80516020612cb98339815191526106e081610d59565b5f6106ea83610981565b5f8181526006602052604090205490915061070457505050565b6106c46107108461071c565b826001610e7e565b5050565b5f60058161072b84600261268b565b6106649060016126a2565b5f610769838360405160200161074d9291906126b5565b60405160208183030381529060405280519060200120846109db565b9392505050565b6001600160a01b03851633148061078c575061078c8533610b6d565b6107a85760405162461bcd60e51b81526004016104e1906126d2565b6107b58585858585610f85565b5050505050565b5f828152600460205260409020600101546107d681610d59565b6106c48383611130565b6001600160a01b03811633146108505760405162461bcd60e51b815260206004820152602f60248201527f416363657373436f6e74726f6c3a2063616e206f6e6c792072656e6f756e636560448201526e103937b632b9903337b91039b2b63360891b60648201526084016104e1565b61071882826111b5565b606081518351146108bf5760405162461bcd60e51b815260206004820152602960248201527f455243313135353a206163636f756e747320616e6420696473206c656e677468604482015268040dad2e6dac2e8c6d60bb1b60648201526084016104e1565b5f83516001600160401b038111156108d9576108d9612048565b604051908082528060200260200182016040528015610902578160200160208202803683370190505b5090505f5b84518110156109795761094c85828151811061092557610925612720565b602002602001015185838151811061093f5761093f612720565b602002602001015161047b565b82828151811061095e5761095e612720565b602090810291909101015261097281612734565b9050610907565b509392505050565b5f61098d82600261268b565b61050c9060016126a2565b6001600160a01b0383163314806109b457506109b48333610b6d565b6109d05760405162461bcd60e51b81526004016104e19061274c565b6106c483838361121b565b5f9182526004602090815260408084206001600160a01b0393909316845291905290205460ff1690565b6107183383836113bc565b7faca95a87ebdd693d0a3734440ea0ab66d6317f6d32766e386292131defadde1a610a3a81610d59565b81516020830120610a4c6002886125e7565b5f03610ac057610a725f610a5f8561279b565b60601c610a6d60028b6127d2565b61149b565b610abb610a808860016126a2565b86868080601f0160208091040260200160405190810160405280939291908181526020018383808284375f9201919091525061151a92505050565b610aca565b610aca8189611576565b610ad688888886610d66565b5050505050505050565b5f80516020612cb9833981519152610af781610d59565b5f610b0184610981565b5f8181526006602052604090205490915015610b2a57610b25868683600187610bb8565b610b35565b610b3586868661149b565b505050505050565b5f82815260046020526040902060010154610b5781610d59565b6106c483836111b5565b5f61050c82600261268b565b5f610b855f80516020612cb9833981519152836109db565b8061076957506001600160a01b038084165f9081526001602090815260408083209386168352929052205460ff16610769565b6001600160a01b038516331480610bd45750610bd48533610b6d565b610bf05760405162461bcd60e51b81526004016104e1906126d2565b6107b585858585856115cf565b5f82815260066020526040902054610c1457505050565b6001600160a01b038316331480610c305750610c308333610b6d565b610c4c5760405162461bcd60e51b81526004016104e19061274c565b6106c4838383610e7e565b5f6001600160e01b03198216636cdb3d1360e11b1480610c8757506001600160e01b031982166303a24d0760e21b145b8061050c57506301ffc9a760e01b6001600160e01b031983161461050c565b5f6001600160e01b03198216637965db0b60e01b148061050c575061050c82610c57565b60605f610cd6836116fe565b60010190505f816001600160401b03811115610cf457610cf4612048565b6040519080825280601f01601f191660200182016040528015610d1e576020820181803683370190505b5090508181016020015b5f19016f181899199a1a9b1b9c1cb0b131b232b360811b600a86061a8153600a8504945084610d2857509392505050565b610d638133611576565b50565b6001600160a01b038416610dc65760405162461bcd60e51b815260206004820152602160248201527f455243313135353a206d696e7420746f20746865207a65726f206164647265736044820152607360f81b60648201526084016104e1565b335f610dd1856117d5565b90505f610ddd856117d5565b9050610ded835f8985858961181e565b5f868152602081815260408083206001600160a01b038b16845290915281208054879290610e1c9084906126a2565b909155505060408051878152602081018790526001600160a01b03808a16925f92918716915f80516020612c99833981519152910160405180910390a4610e67835f89858589611ad5565b610e75835f89898989611b3a565b50505050505050565b6001600160a01b038316610ea45760405162461bcd60e51b81526004016104e1906127e5565b335f610eaf846117d5565b90505f610ebb846117d5565b9050610ed983875f858560405180602001604052805f81525061181e565b5f858152602081815260408083206001600160a01b038a16845290915290205484811015610f195760405162461bcd60e51b81526004016104e190612828565b5f868152602081815260408083206001600160a01b038b81168086529184528285208a8703905582518b81529384018a90529092908816915f80516020612c99833981519152910160405180910390a4610e7584885f868660405180602001604052805f815250611ad5565b8151835114610fa65760405162461bcd60e51b81526004016104e19061286c565b6001600160a01b038416610fcc5760405162461bcd60e51b81526004016104e1906128b4565b33610fdb81878787878761181e565b5f5b84518110156110bc575f858281518110610ff957610ff9612720565b602002602001015190505f85838151811061101657611016612720565b6020908102919091018101515f84815280835260408082206001600160a01b038e1683529093529190912054909150818110156110655760405162461bcd60e51b81526004016104e1906128f9565b5f838152602081815260408083206001600160a01b038e8116855292528083208585039055908b168252812080548492906110a19084906126a2565b92505081905550505050806110b590612734565b9050610fdd565b50846001600160a01b0316866001600160a01b0316826001600160a01b03167f4a39dc06d4c0dbc64b70af90fd698a233a518aa5d07e595d983b8c0526c8f7fb878760405161110c929190612943565b60405180910390a4611122818787878787611ad5565b610b35818787878787611c94565b61113a82826109db565b610718575f8281526004602090815260408083206001600160a01b03851684529091529020805460ff191660011790556111713390565b6001600160a01b0316816001600160a01b0316837f2f8788117e7eff1d82e926ec794901d17c78024a50270940304540a733656f0d60405160405180910390a45050565b6111bf82826109db565b15610718575f8281526004602090815260408083206001600160a01b0385168085529252808320805460ff1916905551339285917ff6391f5c32d9c69d2a47ea670b442974b53935d1edc7fd64eb21e047a839171b9190a45050565b6001600160a01b0383166112415760405162461bcd60e51b81526004016104e1906127e5565b80518251146112625760405162461bcd60e51b81526004016104e19061286c565b5f33905061128281855f868660405180602001604052805f81525061181e565b5f5b8351811015611342575f8482815181106112a0576112a0612720565b602002602001015190505f8483815181106112bd576112bd612720565b6020908102919091018101515f84815280835260408082206001600160a01b038c16835290935291909120549091508181101561130c5760405162461bcd60e51b81526004016104e190612828565b5f928352602083815260408085206001600160a01b038b168652909152909220910390558061133a81612734565b915050611284565b505f6001600160a01b0316846001600160a01b0316826001600160a01b03167f4a39dc06d4c0dbc64b70af90fd698a233a518aa5d07e595d983b8c0526c8f7fb8686604051611392929190612943565b60405180910390a46113b681855f868660405180602001604052805f815250611ad5565b50505050565b816001600160a01b0316836001600160a01b03160361142f5760405162461bcd60e51b815260206004820152602960248201527f455243313135353a2073657474696e6720617070726f76616c20737461747573604482015268103337b91039b2b63360b91b60648201526084016104e1565b6001600160a01b038381165f81815260016020908152604080832094871680845294825291829020805460ff191686151590811790915591519182527f17307eab39ab6107e8899845ad3d59bd9653f200f220920489ca2b5937696c31910160405180910390a3505050565b5f82826040516020016114af9291906126b5565b6040516020818303038152906040528051906020012090506114f984836040516020016114dd9291906126b5565b60405160208183030381529060405280519060200120856111b5565b611510815f80516020612cb9833981519152611d4e565b6113b68184611130565b5f82815260036020526040902061153182826129b5565b50817f6bb7ff708619ba0610cba295a58592e0451dee2622938c8755667688daf3529b61155d84610545565b60405161156a9190611fff565b60405180910390a25050565b61158082826109db565b6107185761158d81611d98565b611598836020611daa565b6040516020016115a9929190612a70565b60408051601f198184030181529082905262461bcd60e51b82526104e191600401611fff565b6001600160a01b0384166115f55760405162461bcd60e51b81526004016104e1906128b4565b335f611600856117d5565b90505f61160c856117d5565b905061161c83898985858961181e565b5f868152602081815260408083206001600160a01b038c1684529091529020548581101561165c5760405162461bcd60e51b81526004016104e1906128f9565b5f878152602081815260408083206001600160a01b038d8116855292528083208985039055908a168252812080548892906116989084906126a2565b909155505060408051888152602081018890526001600160a01b03808b16928c821692918816915f80516020612c99833981519152910160405180910390a46116e5848a8a86868a611ad5565b6116f3848a8a8a8a8a611b3a565b505050505050505050565b5f8072184f03e93ff9f4daa797ed6e38ed64bf6a1f0160401b831061173c5772184f03e93ff9f4daa797ed6e38ed64bf6a1f0160401b830492506040015b6d04ee2d6d415b85acef81000000008310611768576d04ee2d6d415b85acef8100000000830492506020015b662386f26fc10000831061178657662386f26fc10000830492506010015b6305f5e100831061179e576305f5e100830492506008015b61271083106117b257612710830492506004015b606483106117c4576064830492506002015b600a831061050c5760010192915050565b6040805160018082528183019092526060915f91906020808301908036833701905050905082815f8151811061180d5761180d612720565b602090810291909101015292915050565b6001600160a01b0385166119895782516001146118715760405162461bcd60e51b8152602060048201526011602482015270125b9d985b1a5908105b9e98481b5a5b9d607a1b60448201526064016104e1565b6002835f8151811061188557611885612720565b602002602001015161189791906125e7565b15806118cc575060065f845f815181106118b3576118b3612720565b602002602001015181526020019081526020015f20545f145b6119105760405162461bcd60e51b815260206004820152601560248201527443616e6e6f742072656d696e74207265706c69636160581b60448201526064016104e1565b5f5b83518110156119835782818151811061192d5761192d612720565b602002602001015160065f86848151811061194a5761194a612720565b602002602001015181526020019081526020015f205f82825461196d91906126a2565b9091555061197c905081612734565b9050611912565b506119e8565b5f5b83518110156119e6575f8482815181106119a7576119a7612720565b602002602001015190506002816119be91906125e7565b6001036119d5576119d58787610a6d6002856127d2565b506119df81612734565b905061198b565b505b6001600160a01b038416610b35575f5b8351811015610e75575f848281518110611a1457611a14612720565b602002602001015190505f848381518110611a3157611a31612720565b602002602001015190505f60065f8481526020019081526020015f2054905081811015611ab35760405162461bcd60e51b815260206004820152602a60248201527f416e7a61546f6b656e3a206275726e20616d6f756e74206578636565647320746044820152696f74616c537570706c7960b01b60648201526084016104e1565b5f9283526006602052604090922091039055611ace81612734565b90506119f8565b6001600160a01b03841615610b35578360055f855f81518110611afa57611afa612720565b602002602001015181526020019081526020015f205f6101000a8154816001600160a01b0302191690836001600160a01b03160217905550505050505050565b6001600160a01b0384163b15610b355760405163f23a6e6160e01b81526001600160a01b0385169063f23a6e6190611b7e9089908990889088908890600401612ade565b6020604051808303815f875af1925050508015611bb8575060408051601f3d908101601f19168201909252611bb591810190612b22565b60015b611c6457611bc4612b3d565b806308c379a003611bfd5750611bd8612b56565b80611be35750611bff565b8060405162461bcd60e51b81526004016104e19190611fff565b505b60405162461bcd60e51b815260206004820152603460248201527f455243313135353a207472616e7366657220746f206e6f6e2d455243313135356044820152732932b1b2b4bb32b91034b6b83632b6b2b73a32b960611b60648201526084016104e1565b6001600160e01b0319811663f23a6e6160e01b14610e755760405162461bcd60e51b81526004016104e190612bde565b6001600160a01b0384163b15610b355760405163bc197c8160e01b81526001600160a01b0385169063bc197c8190611cd89089908990889088908890600401612c26565b6020604051808303815f875af1925050508015611d12575060408051601f3d908101601f19168201909252611d0f91810190612b22565b60015b611d1e57611bc4612b3d565b6001600160e01b0319811663bc197c8160e01b14610e755760405162461bcd60e51b81526004016104e190612bde565b5f82815260046020526040808220600101805490849055905190918391839186917fbd79b86ffe0ab8e8776151514217cd7cacd52c909f66475c3af44e129f0b00ff9190a4505050565b606061050c6001600160a01b03831660145b60605f611db883600261268b565b611dc39060026126a2565b6001600160401b03811115611dda57611dda612048565b6040519080825280601f01601f191660200182016040528015611e04576020820181803683370190505b509050600360fc1b815f81518110611e1e57611e1e612720565b60200101906001600160f81b03191690815f1a905350600f60fb1b81600181518110611e4c57611e4c612720565b60200101906001600160f81b03191690815f1a9053505f611e6e84600261268b565b611e799060016126a2565b90505b6001811115611ef0576f181899199a1a9b1b9c1cb0b131b232b360811b85600f1660108110611ead57611ead612720565b1a60f81b828281518110611ec357611ec3612720565b60200101906001600160f81b03191690815f1a90535060049490941c93611ee981612c83565b9050611e7c565b5083156107695760405162461bcd60e51b815260206004820181905260248201527f537472696e67733a20686578206c656e67746820696e73756666696369656e7460448201526064016104e1565b80356001600160a01b0381168114611f55575f80fd5b919050565b5f8060408385031215611f6b575f80fd5b611f7483611f3f565b946020939093013593505050565b6001600160e01b031981168114610d63575f80fd5b5f60208284031215611fa7575f80fd5b813561076981611f82565b5f5b83811015611fcc578181015183820152602001611fb4565b50505f910152565b5f8151808452611feb816020860160208601611fb2565b601f01601f19169290920160200192915050565b602081525f6107696020830184611fd4565b5f60208284031215612021575f80fd5b5035919050565b5f8060408385031215612039575f80fd5b50508035926020909101359150565b634e487b7160e01b5f52604160045260245ffd5b601f8201601f191681016001600160401b038111828210171561208157612081612048565b6040525050565b5f6001600160401b038211156120a0576120a0612048565b5060051b60200190565b5f82601f8301126120b9575f80fd5b813560206120c682612088565b6040516120d3828261205c565b83815260059390931b85018201928281019150868411156120f2575f80fd5b8286015b8481101561210d57803583529183019183016120f6565b509695505050505050565b5f82601f830112612127575f80fd5b81356001600160401b0381111561214057612140612048565b604051612157601f8301601f19166020018261205c565b81815284602083860101111561216b575f80fd5b816020850160208301375f918101602001919091529392505050565b5f805f805f60a0868803121561219b575f80fd5b6121a486611f3f565b94506121b260208701611f3f565b935060408601356001600160401b03808211156121cd575f80fd5b6121d989838a016120aa565b945060608801359150808211156121ee575f80fd5b6121fa89838a016120aa565b9350608088013591508082111561220f575f80fd5b5061221c88828901612118565b9150509295509295909350565b5f806040838503121561223a575f80fd5b8235915061224a60208401611f3f565b90509250929050565b5f8060408385031215612264575f80fd5b82356001600160401b038082111561227a575f80fd5b818501915085601f83011261228d575f80fd5b8135602061229a82612088565b6040516122a7828261205c565b83815260059390931b85018201928281019150898411156122c6575f80fd5b948201945b838610156122eb576122dc86611f3f565b825294820194908201906122cb565b96505086013592505080821115612300575f80fd5b5061230d858286016120aa565b9150509250929050565b5f8151808452602080850194508084015f5b8381101561234557815187529582019590820190600101612329565b509495945050505050565b602081525f6107696020830184612317565b5f805f60608486031215612374575f80fd5b61237d84611f3f565b925060208401356001600160401b0380821115612398575f80fd5b6123a4878388016120aa565b935060408601359150808211156123b9575f80fd5b506123c6868287016120aa565b9150509250925092565b5f80604083850312156123e1575f80fd5b6123ea83611f3f565b9150602083013580151581146123fe575f80fd5b809150509250929050565b5f805f805f8060a0878903121561241e575f80fd5b61242787611f3f565b9550602087013594506040870135935060608701356001600160401b0380821115612450575f80fd5b818901915089601f830112612463575f80fd5b813581811115612471575f80fd5b8a6020828501011115612482575f80fd5b60208301955080945050608089013591508082111561249f575f80fd5b506124ac89828a01612118565b9150509295509295509295565b5f805f80608085870312156124cc575f80fd5b6124d585611f3f565b93506124e360208601611f3f565b92506040850135915060608501356001600160401b03811115612504575f80fd5b61251087828801612118565b91505092959194509250565b5f806040838503121561252d575f80fd5b61253683611f3f565b915061224a60208401611f3f565b5f805f805f60a08688031215612558575f80fd5b61256186611f3f565b945061256f60208701611f3f565b9350604086013592506060860135915060808601356001600160401b03811115612597575f80fd5b61221c88828901612118565b5f805f606084860312156125b5575f80fd5b6125be84611f3f565b95602085013595506040909401359392505050565b634e487b7160e01b5f52601260045260245ffd5b5f826125f5576125f56125d3565b500690565b600181811c9082168061260e57607f821691505b60208210810361262c57634e487b7160e01b5f52602260045260245ffd5b50919050565b5f8351612643818460208801611fb2565b6a646562742d746f6b656e2f60a81b908301908152835161266b81600b840160208801611fb2565b01600b01949350505050565b634e487b7160e01b5f52601160045260245ffd5b808202811582820484141761050c5761050c612677565b8082018082111561050c5761050c612677565b60609290921b6001600160601b0319168252601482015260340190565b6020808252602e908201527f455243313135353a2063616c6c6572206973206e6f7420746f6b656e206f776e60408201526d195c881bdc88185c1c1c9bdd995960921b606082015260800190565b634e487b7160e01b5f52603260045260245ffd5b5f6001820161274557612745612677565b5060010190565b6020808252602f908201527f455243313135353a2063616c6c6572206973206e6f7420746f6b656e206f776e60408201526e195c881b9bdc88185c1c1c9bdd9959608a1b606082015260800190565b805160208201516001600160601b031980821692919060148310156127ca5780818460140360031b1b83161693505b505050919050565b5f826127e0576127e06125d3565b500490565b60208082526023908201527f455243313135353a206275726e2066726f6d20746865207a65726f206164647260408201526265737360e81b606082015260800190565b60208082526024908201527f455243313135353a206275726e20616d6f756e7420657863656564732062616c604082015263616e636560e01b606082015260800190565b60208082526028908201527f455243313135353a2069647320616e6420616d6f756e7473206c656e677468206040820152670dad2e6dac2e8c6d60c31b606082015260800190565b60208082526025908201527f455243313135353a207472616e7366657220746f20746865207a65726f206164604082015264647265737360d81b606082015260800190565b6020808252602a908201527f455243313135353a20696e73756666696369656e742062616c616e636520666f60408201526939103a3930b739b332b960b11b606082015260800190565b604081525f6129556040830185612317565b82810360208401526129678185612317565b95945050505050565b601f8211156106c4575f81815260208120601f850160051c810160208610156129965750805b601f850160051c820191505b81811015610b35578281556001016129a2565b81516001600160401b038111156129ce576129ce612048565b6129e2816129dc84546125fa565b84612970565b602080601f831160018114612a15575f84156129fe5750858301515b5f19600386901b1c1916600185901b178555610b35565b5f85815260208120601f198616915b82811015612a4357888601518255948401946001909101908401612a24565b5085821015612a6057878501515f19600388901b60f8161c191681555b5050505050600190811b01905550565b76020b1b1b2b9b9a1b7b73a3937b61d1030b1b1b7bab73a1604d1b81525f8351612aa1816017850160208801611fb2565b7001034b99036b4b9b9b4b733903937b6329607d1b6017918401918201528351612ad2816028840160208801611fb2565b01602801949350505050565b6001600160a01b03868116825285166020820152604081018490526060810183905260a0608082018190525f90612b1790830184611fd4565b979650505050505050565b5f60208284031215612b32575f80fd5b815161076981611f82565b5f60033d1115612b535760045f803e505f5160e01c5b90565b5f60443d1015612b635790565b6040516003193d81016004833e81513d6001600160401b038160248401118184111715612b9257505050505090565b8285019150815181811115612baa5750505050505090565b843d8701016020828501011115612bc45750505050505090565b612bd36020828601018761205c565b509095945050505050565b60208082526028908201527f455243313135353a204552433131353552656365697665722072656a656374656040820152676420746f6b656e7360c01b606082015260800190565b6001600160a01b0386811682528516602082015260a0604082018190525f90612c5190830186612317565b8281036060840152612c638186612317565b90508281036080840152612c778185611fd4565b98975050505050505050565b5f81612c9157612c91612677565b505f19019056fec3d58168c5ae7397731d063d5bbf3d657854427343f4c083240f7aacaa2d0f628d24385f76974ce9574accf90a96cb183e175b097a0cdc49dd2ddd96f6374b72a26469706673582212204525bc6d307eb81f8b6c1c13eb3c4db20a9b0f8d5f86468abc47dec697f4280f64736f6c63430008140033c9d3ed72b71767c9a467f79cf288882213fa725f40ea5b833a2b70350c4e0f12",
  "devdoc": {
    "events": {
      "ApprovalForAll(address,address,bool)": {
        "details": "Emitted when `account` grants or revokes permission to `operator` to transfer their tokens, according to `approved`."
      },
      "RoleAdminChanged(bytes32,bytes32,bytes32)": {
        "details": "Emitted when `newAdminRole` is set as ``role``'s admin role, replacing `previousAdminRole` `DEFAULT_ADMIN_ROLE` is the starting admin for all roles, despite {RoleAdminChanged} not being emitted signaling this. _Available since v3.1._"
      },
      "RoleGranted(bytes32,address,address)": {
        "details": "Emitted when `account` is granted `role`. `sender` is the account that originated the contract call, an admin role bearer except when using {AccessControl-_setupRole}."
      },
      "RoleRevoked(bytes32,address,address)": {
        "details": "Emitted when `account` is revoked `role`. `sender` is the account that originated the contract call:   - if using `revokeRole`, it is the admin role bearer   - if using `renounceRole`, it is the role bearer (i.e. `account`)"
      },
      "TransferBatch(address,address,address,uint256[],uint256[])": {
        "details": "Equivalent to multiple {TransferSingle} events, where `operator`, `from` and `to` are the same for all transfers."
      },
      "TransferSingle(address,address,address,uint256,uint256)": {
        "details": "Emitted when `value` tokens of token type `id` are transferred from `from` to `to` by `operator`."
      },
      "URI(string,uint256)": {
        "details": "Emitted when the URI for token type `id` changes to `value`, if it is a non-programmatic URI. If an {URI} event was emitted for `id`, the standard https://eips.ethereum.org/EIPS/eip-1155#metadata-extensions[guarantees] that `value` will equal the value returned by {IERC1155MetadataURI-uri}."
      }
    },
    "kind": "dev",
    "methods": {
      "balanceOf(address,uint256)": {
        "details": "See {IERC1155-balanceOf}. Requirements: - `account` cannot be the zero address."
      },
      "balanceOfBatch(address[],uint256[])": {
        "details": "See {IERC1155-balanceOfBatch}. Requirements: - `accounts` and `ids` must have the same length."
      },
      "exists(uint256)": {
        "details": "Indicates whether any token exist with a given id, or not."
      },
      "getRoleAdmin(bytes32)": {
        "details": "Returns the admin role that controls `role`. See {grantRole} and {revokeRole}. To change a role's admin, use {_setRoleAdmin}."
      },
      "grantRole(bytes32,address)": {
        "details": "Grants `role` to `account`. If `account` had not been already granted `role`, emits a {RoleGranted} event. Requirements: - the caller must have ``role``'s admin role. May emit a {RoleGranted} event."
      },
      "hasRole(bytes32,address)": {
        "details": "Returns `true` if `account` has been granted `role`."
      },
      "renounceRole(bytes32,address)": {
        "details": "Revokes `role` from the calling account. Roles are often managed via {grantRole} and {revokeRole}: this function's purpose is to provide a mechanism for accounts to lose their privileges if they are compromised (such as when a trusted device is misplaced). If the calling account had been revoked `role`, emits a {RoleRevoked} event. Requirements: - the caller must be `account`. May emit a {RoleRevoked} event."
      },
      "revokeRole(bytes32,address)": {
        "details": "Revokes `role` from `account`. If `account` had been granted `role`, emits a {RoleRevoked} event. Requirements: - the caller must have ``role``'s admin role. May emit a {RoleRevoked} event."
      },
      "safeBatchTransferFrom(address,address,uint256[],uint256[],bytes)": {
        "details": "See {IERC1155-safeBatchTransferFrom}."
      },
      "safeTransferFrom(address,address,uint256,uint256,bytes)": {
        "details": "See {IERC1155-safeTransferFrom}."
      },
      "setApprovalForAll(address,bool)": {
        "details": "See {IERC1155-setApprovalForAll}."
      },
      "totalSupply(uint256)": {
        "details": "Total amount of tokens in with a given id."
      },
      "uri(uint256)": {
        "details": "See {IERC1155MetadataURI-uri}. This implementation returns the concatenation of the `_baseURI` and the token-specific uri if the latter is set This enables the following behaviors: - if `_tokenURIs[tokenId]` is set, then the result is the concatenation   of `_baseURI` and `_tokenURIs[tokenId]` (keep in mind that `_baseURI`   is empty per default); - if `_tokenURIs[tokenId]` is NOT set then we fallback to `super.uri()`   which in most cases will contain `ERC1155._uri`; - if `_tokenURIs[tokenId]` is NOT set, and if the parents do not have a   uri value set, then the result is empty."
      }
    },
    "version": 1
  },
  "userdoc": {
    "kind": "user",
    "methods": {},
    "version": 1
  },
  "storageLayout": {
    "storage": [
      {
        "astId": 4133,
        "contract": "contracts/token/AnzaToken.sol:AnzaToken",
        "label": "_balances",
        "offset": 0,
        "slot": "0",
        "type": "t_mapping(t_uint256,t_mapping(t_address,t_uint256))"
      },
      {
        "astId": 4139,
        "contract": "contracts/token/AnzaToken.sol:AnzaToken",
        "label": "_operatorApprovals",
        "offset": 0,
        "slot": "1",
        "type": "t_mapping(t_address,t_mapping(t_address,t_bool))"
      },
      {
        "astId": 4141,
        "contract": "contracts/token/AnzaToken.sol:AnzaToken",
        "label": "_uri",
        "offset": 0,
        "slot": "2",
        "type": "t_string_storage"
      },
      {
        "astId": 26942,
        "contract": "contracts/token/AnzaToken.sol:AnzaToken",
        "label": "_tokenURIs",
        "offset": 0,
        "slot": "3",
        "type": "t_mapping(t_uint256,t_string_storage)"
      },
      {
        "astId": 24,
        "contract": "contracts/token/AnzaToken.sol:AnzaToken",
        "label": "_roles",
        "offset": 0,
        "slot": "4",
        "type": "t_mapping(t_bytes32,t_struct(RoleData)19_storage)"
      },
      {
        "astId": 27099,
        "contract": "contracts/token/AnzaToken.sol:AnzaToken",
        "label": "__owners",
        "offset": 0,
        "slot": "5",
        "type": "t_mapping(t_uint256,t_address)"
      },
      {
        "astId": 27103,
        "contract": "contracts/token/AnzaToken.sol:AnzaToken",
        "label": "_totalSupply",
        "offset": 0,
        "slot": "6",
        "type": "t_mapping(t_uint256,t_uint256)"
      }
    ],
    "types": {
      "t_address": {
        "encoding": "inplace",
        "label": "address",
        "numberOfBytes": "20"
      },
      "t_bool": {
        "encoding": "inplace",
        "label": "bool",
        "numberOfBytes": "1"
      },
      "t_bytes32": {
        "encoding": "inplace",
        "label": "bytes32",
        "numberOfBytes": "32"
      },
      "t_mapping(t_address,t_bool)": {
        "encoding": "mapping",
        "key": "t_address",
        "label": "mapping(address => bool)",
        "numberOfBytes": "32",
        "value": "t_bool"
      },
      "t_mapping(t_address,t_mapping(t_address,t_bool))": {
        "encoding": "mapping",
        "key": "t_address",
        "label": "mapping(address => mapping(address => bool))",
        "numberOfBytes": "32",
        "value": "t_mapping(t_address,t_bool)"
      },
      "t_mapping(t_address,t_uint256)": {
        "encoding": "mapping",
        "key": "t_address",
        "label": "mapping(address => uint256)",
        "numberOfBytes": "32",
        "value": "t_uint256"
      },
      "t_mapping(t_bytes32,t_struct(RoleData)19_storage)": {
        "encoding": "mapping",
        "key": "t_bytes32",
        "label": "mapping(bytes32 => struct AccessControl.RoleData)",
        "numberOfBytes": "32",
        "value": "t_struct(RoleData)19_storage"
      },
      "t_mapping(t_uint256,t_address)": {
        "encoding": "mapping",
        "key": "t_uint256",
        "label": "mapping(uint256 => address)",
        "numberOfBytes": "32",
        "value": "t_address"
      },
      "t_mapping(t_uint256,t_mapping(t_address,t_uint256))": {
        "encoding": "mapping",
        "key": "t_uint256",
        "label": "mapping(uint256 => mapping(address => uint256))",
        "numberOfBytes": "32",
        "value": "t_mapping(t_address,t_uint256)"
      },
      "t_mapping(t_uint256,t_string_storage)": {
        "encoding": "mapping",
        "key": "t_uint256",
        "label": "mapping(uint256 => string)",
        "numberOfBytes": "32",
        "value": "t_string_storage"
      },
      "t_mapping(t_uint256,t_uint256)": {
        "encoding": "mapping",
        "key": "t_uint256",
        "label": "mapping(uint256 => uint256)",
        "numberOfBytes": "32",
        "value": "t_uint256"
      },
      "t_string_storage": {
        "encoding": "bytes",
        "label": "string",
        "numberOfBytes": "32"
      },
      "t_struct(RoleData)19_storage": {
        "encoding": "inplace",
        "label": "struct AccessControl.RoleData",
        "members": [
          {
            "astId": 16,
            "contract": "contracts/token/AnzaToken.sol:AnzaToken",
            "label": "members",
            "offset": 0,
            "slot": "0",
            "type": "t_mapping(t_address,t_bool)"
          },
          {
            "astId": 18,
            "contract": "contracts/token/AnzaToken.sol:AnzaToken",
            "label": "adminRole",
            "offset": 0,
            "slot": "1",
            "type": "t_bytes32"
          }
        ],
        "numberOfBytes": "64"
      },
      "t_uint256": {
        "encoding": "inplace",
        "label": "uint256",
        "numberOfBytes": "32"
      }
    }
  }
}