{
  "address": "0xA51c1fc2f0D1a1b8494Ed1FE312d7C3a78Ed91C0",
  "abi": [
    {
      "inputs": [
        {
          "internalType": "address",
          "name": "_anzaTokenAddress",
          "type": "address"
        }
      ],
      "stateMutability": "nonpayable",
      "type": "constructor"
    },
    {
      "inputs": [],
      "name": "IllegalDebtId",
      "type": "error"
    },
    {
      "inputs": [],
      "name": "UnallowedDeposit",
      "type": "error"
    },
    {
      "inputs": [],
      "name": "UnallowedWithdrawal",
      "type": "error"
    },
    {
      "anonymous": false,
      "inputs": [
        {
          "indexed": true,
          "internalType": "address",
          "name": "from",
          "type": "address"
        },
        {
          "indexed": true,
          "internalType": "address",
          "name": "collateralAddress",
          "type": "address"
        },
        {
          "indexed": true,
          "internalType": "uint256",
          "name": "collateralId",
          "type": "uint256"
        }
      ],
      "name": "DepositedCollateral",
      "type": "event"
    },
    {
      "anonymous": false,
      "inputs": [
        {
          "indexed": true,
          "internalType": "bytes32",
          "name": "role",
          "type": "bytes32"
        },
        {
          "indexed": true,
          "internalType": "bytes32",
          "name": "previousAdminRole",
          "type": "bytes32"
        },
        {
          "indexed": true,
          "internalType": "bytes32",
          "name": "newAdminRole",
          "type": "bytes32"
        }
      ],
      "name": "RoleAdminChanged",
      "type": "event"
    },
    {
      "anonymous": false,
      "inputs": [
        {
          "indexed": true,
          "internalType": "bytes32",
          "name": "role",
          "type": "bytes32"
        },
        {
          "indexed": true,
          "internalType": "address",
          "name": "account",
          "type": "address"
        },
        {
          "indexed": true,
          "internalType": "address",
          "name": "sender",
          "type": "address"
        }
      ],
      "name": "RoleGranted",
      "type": "event"
    },
    {
      "anonymous": false,
      "inputs": [
        {
          "indexed": true,
          "internalType": "bytes32",
          "name": "role",
          "type": "bytes32"
        },
        {
          "indexed": true,
          "internalType": "address",
          "name": "account",
          "type": "address"
        },
        {
          "indexed": true,
          "internalType": "address",
          "name": "sender",
          "type": "address"
        }
      ],
      "name": "RoleRevoked",
      "type": "event"
    },
    {
      "anonymous": false,
      "inputs": [
        {
          "indexed": true,
          "internalType": "address",
          "name": "to",
          "type": "address"
        },
        {
          "indexed": true,
          "internalType": "address",
          "name": "collateralAddress",
          "type": "address"
        },
        {
          "indexed": true,
          "internalType": "uint256",
          "name": "collateralId",
          "type": "uint256"
        }
      ],
      "name": "WithdrawnCollateral",
      "type": "event"
    },
    {
      "inputs": [],
      "name": "DEFAULT_ADMIN_ROLE",
      "outputs": [
        {
          "internalType": "bytes32",
          "name": "",
          "type": "bytes32"
        }
      ],
      "stateMutability": "view",
      "type": "function"
    },
    {
      "inputs": [],
      "name": "anzaToken",
      "outputs": [
        {
          "internalType": "address",
          "name": "",
          "type": "address"
        }
      ],
      "stateMutability": "view",
      "type": "function"
    },
    {
      "inputs": [
        {
          "internalType": "address",
          "name": "_collateralAddress",
          "type": "address"
        },
        {
          "internalType": "uint256",
          "name": "_collateralId",
          "type": "uint256"
        },
        {
          "internalType": "uint256",
          "name": "_debtId",
          "type": "uint256"
        }
      ],
      "name": "depositAllowed",
      "outputs": [
        {
          "internalType": "bool",
          "name": "",
          "type": "bool"
        }
      ],
      "stateMutability": "nonpayable",
      "type": "function"
    },
    {
      "inputs": [
        {
          "internalType": "uint256",
          "name": "_debtId",
          "type": "uint256"
        }
      ],
      "name": "getCollateral",
      "outputs": [
        {
          "components": [
            {
              "internalType": "address",
              "name": "collateralAddress",
              "type": "address"
            },
            {
              "internalType": "uint256",
              "name": "collateralId",
              "type": "uint256"
            },
            {
              "internalType": "bool",
              "name": "vault",
              "type": "bool"
            }
          ],
          "internalType": "struct ICollateralVault.Collateral",
          "name": "",
          "type": "tuple"
        }
      ],
      "stateMutability": "view",
      "type": "function"
    },
    {
      "inputs": [
        {
          "internalType": "bytes32",
          "name": "role",
          "type": "bytes32"
        }
      ],
      "name": "getRoleAdmin",
      "outputs": [
        {
          "internalType": "bytes32",
          "name": "",
          "type": "bytes32"
        }
      ],
      "stateMutability": "view",
      "type": "function"
    },
    {
      "inputs": [
        {
          "internalType": "bytes32",
          "name": "role",
          "type": "bytes32"
        },
        {
          "internalType": "address",
          "name": "account",
          "type": "address"
        }
      ],
      "name": "grantRole",
      "outputs": [],
      "stateMutability": "nonpayable",
      "type": "function"
    },
    {
      "inputs": [
        {
          "internalType": "bytes32",
          "name": "role",
          "type": "bytes32"
        },
        {
          "internalType": "address",
          "name": "account",
          "type": "address"
        }
      ],
      "name": "hasRole",
      "outputs": [
        {
          "internalType": "bool",
          "name": "",
          "type": "bool"
        }
      ],
      "stateMutability": "view",
      "type": "function"
    },
    {
      "inputs": [],
      "name": "loanContract",
      "outputs": [
        {
          "internalType": "address",
          "name": "",
          "type": "address"
        }
      ],
      "stateMutability": "view",
      "type": "function"
    },
    {
      "inputs": [
        {
          "internalType": "address",
          "name": "",
          "type": "address"
        },
        {
          "internalType": "address",
          "name": "_from",
          "type": "address"
        },
        {
          "internalType": "uint256",
          "name": "_collateralId",
          "type": "uint256"
        },
        {
          "internalType": "bytes",
          "name": "_data",
          "type": "bytes"
        }
      ],
      "name": "onERC721Received",
      "outputs": [
        {
          "internalType": "bytes4",
          "name": "",
          "type": "bytes4"
        }
      ],
      "stateMutability": "nonpayable",
      "type": "function"
    },
    {
      "inputs": [
        {
          "internalType": "bytes32",
          "name": "role",
          "type": "bytes32"
        },
        {
          "internalType": "address",
          "name": "account",
          "type": "address"
        }
      ],
      "name": "renounceRole",
      "outputs": [],
      "stateMutability": "nonpayable",
      "type": "function"
    },
    {
      "inputs": [
        {
          "internalType": "bytes32",
          "name": "role",
          "type": "bytes32"
        },
        {
          "internalType": "address",
          "name": "account",
          "type": "address"
        }
      ],
      "name": "revokeRole",
      "outputs": [],
      "stateMutability": "nonpayable",
      "type": "function"
    },
    {
      "inputs": [
        {
          "internalType": "address",
          "name": "_collateralAddress",
          "type": "address"
        },
        {
          "internalType": "uint256",
          "name": "_collateralId",
          "type": "uint256"
        },
        {
          "internalType": "uint256",
          "name": "_debtId",
          "type": "uint256"
        }
      ],
      "name": "setCollateral",
      "outputs": [],
      "stateMutability": "nonpayable",
      "type": "function"
    },
    {
      "inputs": [
        {
          "internalType": "address",
          "name": "_loanContractAddress",
          "type": "address"
        }
      ],
      "name": "setLoanContract",
      "outputs": [],
      "stateMutability": "nonpayable",
      "type": "function"
    },
    {
      "inputs": [
        {
          "internalType": "bytes4",
          "name": "interfaceId",
          "type": "bytes4"
        }
      ],
      "name": "supportsInterface",
      "outputs": [
        {
          "internalType": "bool",
          "name": "",
          "type": "bool"
        }
      ],
      "stateMutability": "view",
      "type": "function"
    },
    {
      "inputs": [],
      "name": "totalCollateral",
      "outputs": [
        {
          "internalType": "uint256",
          "name": "",
          "type": "uint256"
        }
      ],
      "stateMutability": "view",
      "type": "function"
    },
    {
      "inputs": [
        {
          "internalType": "address",
          "name": "_to",
          "type": "address"
        },
        {
          "internalType": "uint256",
          "name": "_debtId",
          "type": "uint256"
        }
      ],
      "name": "withdraw",
      "outputs": [
        {
          "internalType": "bool",
          "name": "",
          "type": "bool"
        }
      ],
      "stateMutability": "nonpayable",
      "type": "function"
    },
    {
      "inputs": [
        {
          "internalType": "address",
          "name": "_to",
          "type": "address"
        },
        {
          "internalType": "uint256",
          "name": "_debtId",
          "type": "uint256"
        }
      ],
      "name": "withdrawalAllowed",
      "outputs": [
        {
          "internalType": "bool",
          "name": "",
          "type": "bool"
        }
      ],
      "stateMutability": "view",
      "type": "function"
    }
  ],
  "transactionHash": "0x9190c9ad736f1891996e4e7d0b2b63ab4da2444568bfeee3d4407cda621ab38e",
  "args": [
    "0x8A791620dd6260079BF849Dc5567aDC3F2FdC318"
  ],
  "numDeployments": 1,
  "solcInputHash": "6026b98393f52c3678e3a85d9b556f4c",
  "bytecode": "0x60a060405234801562000010575f80fd5b506040516200125c3803806200125c8339810160408190526200003391620001d8565b806200004e5f805160206200123c83398151915280620000ef565b620000887faca95a87ebdd693d0a3734440ea0ab66d6317f6d32766e386292131defadde1a5f805160206200123c833981519152620000ef565b620000c27f8d24385f76974ce9574accf90a96cb183e175b097a0cdc49dd2ddd96f6374b725f805160206200123c833981519152620000ef565b620000dc5f805160206200123c8339815191523362000139565b6001600160a01b03166080525062000207565b5f82815260208190526040808220600101805490849055905190918391839186917fbd79b86ffe0ab8e8776151514217cd7cacd52c909f66475c3af44e129f0b00ff9190a4505050565b5f828152602081815260408083206001600160a01b038516845290915290205460ff16620001d4575f828152602081815260408083206001600160a01b03851684529091529020805460ff19166001179055620001933390565b6001600160a01b0316816001600160a01b0316837f2f8788117e7eff1d82e926ec794901d17c78024a50270940304540a733656f0d60405160405180910390a45b5050565b5f60208284031215620001e9575f80fd5b81516001600160a01b038116811462000200575f80fd5b9392505050565b608051611015620002275f395f8181610158015261060101526110155ff3fe608060405234801561000f575f80fd5b50600436106100e8575f3560e01c806331d388061161008f57806331d388061461027b57806336568abe1461028e5780634ac8eb5f146102a157806391d14854146102aa5780639fea3e07146102bd578063a217fddf146102d0578063b83f8236146102d7578063d547741f146102ea578063f3fef3a3146102fd575f80fd5b806301ffc9a7146100ec578063081d19c814610114578063150b7a0214610127578063188e468114610153578063248a9ca314610192578063253f284b146101c25780632a62a490146101d35780632f2ff15d14610266575b5f80fd5b6100ff6100fa366004610c1f565b610310565b60405190151581526020015b60405180910390f35b6100ff610122366004610c61565b610346565b61013a610135366004610ca5565b6103ed565b6040516001600160e01b0319909116815260200161010b565b61017a7f000000000000000000000000000000000000000000000000000000000000000081565b6040516001600160a01b03909116815260200161010b565b6101b46101a0366004610d7a565b5f9081526020819052604090206001015490565b60405190815260200161010b565b6001546001600160a01b031661017a565b6102396101e1366004610d7a565b60408051606080820183525f808352602080840182905292840181905293845260038252928290208251938401835280546001600160a01b031684526001810154918401919091526002015460ff1615159082015290565b6040805182516001600160a01b03168152602080840151908201529181015115159082015260600161010b565b610279610274366004610d91565b61041a565b005b610279610289366004610dbb565b610443565b61027961029c366004610d91565b61047a565b6101b460025481565b6100ff6102b8366004610d91565b6104f9565b6102796102cb366004610c61565b610521565b6101b45f81565b6100ff6102e5366004610dd4565b61054b565b6102796102f8366004610d91565b610671565b6100ff61030b366004610dd4565b610695565b5f6001600160e01b03198216637965db0b60e01b148061034057506301ffc9a760e01b6001600160e01b03198316145b92915050565b600154604051636f81a80160e01b81526001600160a01b038581166004830152602482018590525f928392911690636f81a801906044016060604051808303815f875af1158015610399573d5f803e3d5ffd5b505050506040513d601f19601f820116820180604052508101906103bd9190610dfc565b5050905082811480156103e457505f838152600360205260409020546001600160a01b0316155b95945050505050565b5f806103f883610e27565b90506104086001863387856107d2565b50630a85bd0160e11b95945050505050565b5f82815260208190526040902060010154610434816108cd565b61043e83836108da565b505050565b7fc9d3ed72b71767c9a467f79cf288882213fa725f40ea5b833a2b70350c4e0f1261046d816108cd565b6104768261095d565b5050565b6001600160a01b03811633146104ef5760405162461bcd60e51b815260206004820152602f60248201527f416363657373436f6e74726f6c3a2063616e206f6e6c792072656e6f756e636560448201526e103937b632b9903337b91039b2b63360891b60648201526084015b60405180910390fd5b61047682826109ba565b5f918252602082815260408084206001600160a01b0393909316845291905290205460ff1690565b5f80516020610fc0833981519152610538816108cd565b6105455f338686866107d2565b50505050565b5f8181526003602052604081206002015460ff1680156105d457506001546040516349b274ed60e01b815260048101849052600d916001600160a01b0316906349b274ed90602401602060405180830381865afa1580156105ae573d5f803e3d5ffd5b505050506040513d601f19601f820116820180604052508101906105d29190610e4d565b145b801561066a575060405163163be8c160e11b81526001600160a01b038481166004830152602482018490527f00000000000000000000000000000000000000000000000000000000000000001690632c77d18290604401602060405180830381865afa158015610646573d5f803e3d5ffd5b505050506040513d601f19601f8201168201806040525081019061066a9190610e64565b9392505050565b5f8281526020819052604090206001015461068b816108cd565b61043e83836109ba565b5f7f8d24385f76974ce9574accf90a96cb183e175b097a0cdc49dd2ddd96f6374b726106c0816108cd565b83836106cc828261054b565b6106e9576040516387e8841d60e01b815260040160405180910390fd5b5f85815260036020526040812060028054919260019261070a908490610e97565b909155505080546001820154604051635c46a7ef60e11b81523060048201526001600160a01b038a811660248301526044820192909252608060648201525f608482015291169063b88d4fde9060a4015f604051808303815f87803b158015610771575f80fd5b505af1158015610783573d5f803e3d5ffd5b50505050600181015481546040516001600160a01b03918216918a16907f39232a7eed2ad0ea7afab6b1edffa01bbd4a635bf106ac38ec5261d8d691f4a0905f90a45060019695505050505050565b8282826107e0838383610346565b6107fd5760405163470c87cb60e01b815260040160405180910390fd5b600160025f82825461080f9190610eaa565b9091555050604080516060810182526001600160a01b03888116825260208083018981528c1580158587019081525f8b8152600390945295909220935184546001600160a01b03191693169290921783559051600183015591516002909101805460ff19169115159190911790556108c35784866001600160a01b0316886001600160a01b03167f8454282b08531cdbd2142ac846ae921ccea242b7bc97cc8fe966bf8d57f5efd960405160405180910390a45b5050505050505050565b6108d78133610a1e565b50565b6108e482826104f9565b610476575f828152602081815260408083206001600160a01b03851684529091529020805460ff191660011790556109193390565b6001600160a01b0316816001600160a01b0316837f2f8788117e7eff1d82e926ec794901d17c78024a50270940304540a733656f0d60405160405180910390a45050565b600154610981905f80516020610fc0833981519152906001600160a01b03166109ba565b6109985f80516020610fc0833981519152826108da565b600180546001600160a01b0319166001600160a01b0392909216919091179055565b6109c482826104f9565b15610476575f828152602081815260408083206001600160a01b0385168085529252808320805460ff1916905551339285917ff6391f5c32d9c69d2a47ea670b442974b53935d1edc7fd64eb21e047a839171b9190a45050565b610a2882826104f9565b61047657610a3581610a77565b610a40836020610a89565b604051602001610a51929190610edf565b60408051601f198184030181529082905262461bcd60e51b82526104e691600401610f4d565b60606103406001600160a01b03831660145b60605f610a97836002610f7f565b610aa2906002610eaa565b67ffffffffffffffff811115610aba57610aba610c91565b6040519080825280601f01601f191660200182016040528015610ae4576020820181803683370190505b509050600360fc1b815f81518110610afe57610afe610f96565b60200101906001600160f81b03191690815f1a905350600f60fb1b81600181518110610b2c57610b2c610f96565b60200101906001600160f81b03191690815f1a9053505f610b4e846002610f7f565b610b59906001610eaa565b90505b6001811115610bd0576f181899199a1a9b1b9c1cb0b131b232b360811b85600f1660108110610b8d57610b8d610f96565b1a60f81b828281518110610ba357610ba3610f96565b60200101906001600160f81b03191690815f1a90535060049490941c93610bc981610faa565b9050610b5c565b50831561066a5760405162461bcd60e51b815260206004820181905260248201527f537472696e67733a20686578206c656e67746820696e73756666696369656e7460448201526064016104e6565b5f60208284031215610c2f575f80fd5b81356001600160e01b03198116811461066a575f80fd5b80356001600160a01b0381168114610c5c575f80fd5b919050565b5f805f60608486031215610c73575f80fd5b610c7c84610c46565b95602085013595506040909401359392505050565b634e487b7160e01b5f52604160045260245ffd5b5f805f8060808587031215610cb8575f80fd5b610cc185610c46565b9350610ccf60208601610c46565b925060408501359150606085013567ffffffffffffffff80821115610cf2575f80fd5b818701915087601f830112610d05575f80fd5b813581811115610d1757610d17610c91565b604051601f8201601f19908116603f01168101908382118183101715610d3f57610d3f610c91565b816040528281528a6020848701011115610d57575f80fd5b826020860160208301375f60208483010152809550505050505092959194509250565b5f60208284031215610d8a575f80fd5b5035919050565b5f8060408385031215610da2575f80fd5b82359150610db260208401610c46565b90509250929050565b5f60208284031215610dcb575f80fd5b61066a82610c46565b5f8060408385031215610de5575f80fd5b610dee83610c46565b946020939093013593505050565b5f805f60608486031215610e0e575f80fd5b8351925060208401519150604084015190509250925092565b80516020808301519190811015610e47575f198160200360031b1b821691505b50919050565b5f60208284031215610e5d575f80fd5b5051919050565b5f60208284031215610e74575f80fd5b8151801515811461066a575f80fd5b634e487b7160e01b5f52601160045260245ffd5b8181038181111561034057610340610e83565b8082018082111561034057610340610e83565b5f5b83811015610ed7578181015183820152602001610ebf565b50505f910152565b76020b1b1b2b9b9a1b7b73a3937b61d1030b1b1b7bab73a1604d1b81525f8351610f10816017850160208801610ebd565b7001034b99036b4b9b9b4b733903937b6329607d1b6017918401918201528351610f41816028840160208801610ebd565b01602801949350505050565b602081525f8251806020840152610f6b816040850160208701610ebd565b601f01601f19169190910160400192915050565b808202811582820484141761034057610340610e83565b634e487b7160e01b5f52603260045260245ffd5b5f81610fb857610fb8610e83565b505f19019056feaca95a87ebdd693d0a3734440ea0ab66d6317f6d32766e386292131defadde1aa2646970667358221220b412088e895a65739fa9e2f234bd98f0bb5b0c6d18c9619052098f92d7ca039c64736f6c63430008140033c9d3ed72b71767c9a467f79cf288882213fa725f40ea5b833a2b70350c4e0f12",
  "devdoc": {
    "events": {
      "RoleAdminChanged(bytes32,bytes32,bytes32)": {
        "details": "Emitted when `newAdminRole` is set as ``role``'s admin role, replacing `previousAdminRole` `DEFAULT_ADMIN_ROLE` is the starting admin for all roles, despite {RoleAdminChanged} not being emitted signaling this. _Available since v3.1._"
      },
      "RoleGranted(bytes32,address,address)": {
        "details": "Emitted when `account` is granted `role`. `sender` is the account that originated the contract call, an admin role bearer except when using {AccessControl-_setupRole}."
      },
      "RoleRevoked(bytes32,address,address)": {
        "details": "Emitted when `account` is revoked `role`. `sender` is the account that originated the contract call:   - if using `revokeRole`, it is the admin role bearer   - if using `renounceRole`, it is the role bearer (i.e. `account`)"
      }
    },
    "kind": "dev",
    "methods": {
      "depositAllowed(address,uint256,uint256)": {
        "details": "Returns whether a token is allowed to be deposited as collateral or stored as a reference to collateral.",
        "params": {
          "_collateralAddress": "The collateral token's contract address.",
          "_collateralId": "The collateral token's ID.",
          "_debtId": "The debt ID associated with the collateral. This checks two things:   1. The collateral token is associated with the `_debtId`      within the loan contract.   2. No collateral token has not been previously deposited      for this `_debtId`."
        }
      },
      "getRoleAdmin(bytes32)": {
        "details": "Returns the admin role that controls `role`. See {grantRole} and {revokeRole}. To change a role's admin, use {_setRoleAdmin}."
      },
      "grantRole(bytes32,address)": {
        "details": "Grants `role` to `account`. If `account` had not been already granted `role`, emits a {RoleGranted} event. Requirements: - the caller must have ``role``'s admin role. May emit a {RoleGranted} event."
      },
      "hasRole(bytes32,address)": {
        "details": "Returns `true` if `account` has been granted `role`."
      },
      "onERC721Received(address,address,uint256,bytes)": {
        "details": "Whenever an {IERC721} `tokenId` token is transferred to this contract via {IERC721-safeTransferFrom} by `operator` from `from`, this function is called. It must return its Solidity selector to confirm the token transfer. If any other value is returned or the interface is not implemented by the recipient, the transfer will be reverted."
      },
      "renounceRole(bytes32,address)": {
        "details": "Revokes `role` from the calling account. Roles are often managed via {grantRole} and {revokeRole}: this function's purpose is to provide a mechanism for accounts to lose their privileges if they are compromised (such as when a trusted device is misplaced). If the calling account had been revoked `role`, emits a {RoleRevoked} event. Requirements: - the caller must be `account`. May emit a {RoleRevoked} event."
      },
      "revokeRole(bytes32,address)": {
        "details": "Revokes `role` from `account`. If `account` had been granted `role`, emits a {RoleRevoked} event. Requirements: - the caller must have ``role``'s admin role. May emit a {RoleRevoked} event."
      },
      "supportsInterface(bytes4)": {
        "details": "See {IERC165-supportsInterface}."
      },
      "withdrawalAllowed(address,uint256)": {
        "details": "Returns whether an address is allowed to withdraw their collateral.",
        "params": {
          "_debtId": "The debt ID mapped to the collateral. This checks three things:   1. The debt ID is a vault containing the collateral.   2. The loan state is paid in full.   3. The recipient is the documented borrower.",
          "_to": "The destination address of the collateral."
        }
      }
    },
    "version": 1
  },
  "userdoc": {
    "kind": "user",
    "methods": {},
    "version": 1
  },
  "storageLayout": {
    "storage": [
      {
        "astId": 24,
        "contract": "contracts/CollateralVault.sol:CollateralVault",
        "label": "_roles",
        "offset": 0,
        "slot": "0",
        "type": "t_mapping(t_bytes32,t_struct(RoleData)19_storage)"
      },
      {
        "astId": 24609,
        "contract": "contracts/CollateralVault.sol:CollateralVault",
        "label": "_loanContract",
        "offset": 0,
        "slot": "1",
        "type": "t_address"
      },
      {
        "astId": 13957,
        "contract": "contracts/CollateralVault.sol:CollateralVault",
        "label": "totalCollateral",
        "offset": 0,
        "slot": "2",
        "type": "t_uint256"
      },
      {
        "astId": 13962,
        "contract": "contracts/CollateralVault.sol:CollateralVault",
        "label": "__collaterals",
        "offset": 0,
        "slot": "3",
        "type": "t_mapping(t_uint256,t_struct(Collateral)25547_storage)"
      }
    ],
    "types": {
      "t_address": {
        "encoding": "inplace",
        "label": "address",
        "numberOfBytes": "20"
      },
      "t_bool": {
        "encoding": "inplace",
        "label": "bool",
        "numberOfBytes": "1"
      },
      "t_bytes32": {
        "encoding": "inplace",
        "label": "bytes32",
        "numberOfBytes": "32"
      },
      "t_mapping(t_address,t_bool)": {
        "encoding": "mapping",
        "key": "t_address",
        "label": "mapping(address => bool)",
        "numberOfBytes": "32",
        "value": "t_bool"
      },
      "t_mapping(t_bytes32,t_struct(RoleData)19_storage)": {
        "encoding": "mapping",
        "key": "t_bytes32",
        "label": "mapping(bytes32 => struct AccessControl.RoleData)",
        "numberOfBytes": "32",
        "value": "t_struct(RoleData)19_storage"
      },
      "t_mapping(t_uint256,t_struct(Collateral)25547_storage)": {
        "encoding": "mapping",
        "key": "t_uint256",
        "label": "mapping(uint256 => struct ICollateralVault.Collateral)",
        "numberOfBytes": "32",
        "value": "t_struct(Collateral)25547_storage"
      },
      "t_struct(Collateral)25547_storage": {
        "encoding": "inplace",
        "label": "struct ICollateralVault.Collateral",
        "members": [
          {
            "astId": 25542,
            "contract": "contracts/CollateralVault.sol:CollateralVault",
            "label": "collateralAddress",
            "offset": 0,
            "slot": "0",
            "type": "t_address"
          },
          {
            "astId": 25544,
            "contract": "contracts/CollateralVault.sol:CollateralVault",
            "label": "collateralId",
            "offset": 0,
            "slot": "1",
            "type": "t_uint256"
          },
          {
            "astId": 25546,
            "contract": "contracts/CollateralVault.sol:CollateralVault",
            "label": "vault",
            "offset": 0,
            "slot": "2",
            "type": "t_bool"
          }
        ],
        "numberOfBytes": "96"
      },
      "t_struct(RoleData)19_storage": {
        "encoding": "inplace",
        "label": "struct AccessControl.RoleData",
        "members": [
          {
            "astId": 16,
            "contract": "contracts/CollateralVault.sol:CollateralVault",
            "label": "members",
            "offset": 0,
            "slot": "0",
            "type": "t_mapping(t_address,t_bool)"
          },
          {
            "astId": 18,
            "contract": "contracts/CollateralVault.sol:CollateralVault",
            "label": "adminRole",
            "offset": 0,
            "slot": "1",
            "type": "t_bytes32"
          }
        ],
        "numberOfBytes": "64"
      },
      "t_uint256": {
        "encoding": "inplace",
        "label": "uint256",
        "numberOfBytes": "32"
      }
    }
  }
}