{
  "address": "0xa513E6E4b8f2a923D98304ec87F64353C4D5C853",
  "abi": [
    {
      "inputs": [],
      "name": "ADMIN",
      "outputs": [
        {
          "internalType": "bytes32",
          "name": "",
          "type": "bytes32"
        }
      ],
      "stateMutability": "view",
      "type": "function"
    },
    {
      "inputs": [],
      "name": "COLLECTOR",
      "outputs": [
        {
          "internalType": "bytes32",
          "name": "",
          "type": "bytes32"
        }
      ],
      "stateMutability": "view",
      "type": "function"
    },
    {
      "inputs": [],
      "name": "DEBT_STOREFRONT",
      "outputs": [
        {
          "internalType": "bytes32",
          "name": "",
          "type": "bytes32"
        }
      ],
      "stateMutability": "view",
      "type": "function"
    },
    {
      "inputs": [],
      "name": "LOAN_CONTRACT",
      "outputs": [
        {
          "internalType": "bytes32",
          "name": "",
          "type": "bytes32"
        }
      ],
      "stateMutability": "view",
      "type": "function"
    },
    {
      "inputs": [],
      "name": "TREASURER",
      "outputs": [
        {
          "internalType": "bytes32",
          "name": "",
          "type": "bytes32"
        }
      ],
      "stateMutability": "view",
      "type": "function"
    }
  ],
  "transactionHash": "0xde199b686793a5745c58a3d114b942343e444a09c75cab21092851699d3b78e6",
  "args": [],
  "numDeployments": 1,
  "solcInputHash": "6026b98393f52c3678e3a85d9b556f4c",
  "bytecode": "0x61016f610035600b8282823980515f1a60731461002957634e487b7160e01b5f525f60045260245ffd5b305f52607381538281f3fe7300000000000000000000000000000000000000003014608060405260043610610060575f3560e01c80632a0acc6a146100645780633cbadf781461009d5780633dceb280146100c4578063fb1849ee146100eb578063fc6ca72d14610112575b5f80fd5b61008b7fc9d3ed72b71767c9a467f79cf288882213fa725f40ea5b833a2b70350c4e0f1281565b60405190815260200160405180910390f35b61008b7f2d2f5bedf7d8f217c75277e619754ebd414a7ba49e87afb45bdec61736e10d6881565b61008b7faca95a87ebdd693d0a3734440ea0ab66d6317f6d32766e386292131defadde1a81565b61008b7f8d24385f76974ce9574accf90a96cb183e175b097a0cdc49dd2ddd96f6374b7281565b61008b7f6ff243dd0433898c62e5507995453d38065c2abe8d8faf3cc448711da30c566a8156fea2646970667358221220a07d67a966da96cfd93f28cdd9e643424e37edf3994d6cc7e2c8443655f85a1764736f6c63430008140033",
  "devdoc": {
    "kind": "dev",
    "methods": {},
    "version": 1
  },
  "userdoc": {
    "kind": "user",
    "methods": {},
    "version": 1
  },
  "storageLayout": {
    "storage": [],
    "types": null
  }
}