{
  "address": "0x2279B7A0a67DB372996a5FaB50D91eAA73d2eBe6",
  "abi": [
    {
      "inputs": [
        {
          "internalType": "uint256",
          "name": "_principal",
          "type": "uint256"
        },
        {
          "internalType": "uint256",
          "name": "_ratio",
          "type": "uint256"
        },
        {
          "internalType": "uint256",
          "name": "_n",
          "type": "uint256"
        }
      ],
      "name": "compound",
      "outputs": [
        {
          "internalType": "uint256",
          "name": "",
          "type": "uint256"
        }
      ],
      "stateMutability": "pure",
      "type": "function"
    },
    {
      "inputs": [
        {
          "internalType": "uint256",
          "name": "_principal",
          "type": "uint256"
        },
        {
          "internalType": "uint256",
          "name": "_ratio",
          "type": "uint256"
        },
        {
          "internalType": "uint256",
          "name": "_n",
          "type": "uint256"
        }
      ],
      "name": "compoundWithTopoff",
      "outputs": [
        {
          "internalType": "uint256",
          "name": "",
          "type": "uint256"
        }
      ],
      "stateMutability": "pure",
      "type": "function"
    },
    {
      "inputs": [
        {
          "internalType": "int128",
          "name": "_x",
          "type": "int128"
        },
        {
          "internalType": "uint256",
          "name": "_n",
          "type": "uint256"
        }
      ],
      "name": "pow",
      "outputs": [
        {
          "internalType": "int128",
          "name": "",
          "type": "int128"
        }
      ],
      "stateMutability": "pure",
      "type": "function"
    },
    {
      "inputs": [
        {
          "internalType": "uint256",
          "name": "_totalDebt",
          "type": "uint256"
        },
        {
          "internalType": "uint256",
          "name": "_fixedInterestRate",
          "type": "uint256"
        },
        {
          "internalType": "uint256",
          "name": "_firIntervals",
          "type": "uint256"
        }
      ],
      "name": "topoff",
      "outputs": [
        {
          "internalType": "uint256",
          "name": "",
          "type": "uint256"
        }
      ],
      "stateMutability": "pure",
      "type": "function"
    }
  ],
  "transactionHash": "0x2dda701a6781cce6ce9a5ab334f26da1ed4a3b3d64013daaad46204ffcd31bbf",
  "args": [],
  "numDeployments": 1,
  "solcInputHash": "6026b98393f52c3678e3a85d9b556f4c",
  "bytecode": "0x6105d9610035600b8282823980515f1a60731461002957634e487b7160e01b5f525f60045260245ffd5b305f52607381538281f3fe7300000000000000000000000000000000000000003014608060405260043610610055575f3560e01c80636d8866f1146100595780637990fe961461007f578063ae581bc214610092578063f3c85eba146100b8575b5f80fd5b61006c6100673660046104d7565b6100cb565b6040519081526020015b60405180910390f35b61006c61008d3660046104d7565b6100f4565b6100a56100a0366004610500565b610191565b604051600f9190910b8152602001610076565b61006c6100c63660046104d7565b6101f6565b5f6100d78484846100f4565b6100e28585856101f6565b6100ec9190610543565b949350505050565b5f8260641461018457600a8310156101585782600114610114575f610186565b816001148015610125575060648410155b61012f575f610186565b6001610144683635c9adc5dea000008661056a565b1015610151576001610186565b600a610186565b8160011480156101695750600a8410155b61017d576103e884101561012f575f610186565b6001610186565b5f5b60ff16949350505050565b5f8061019d6001610226565b90505b82156101ed576101b160028461057d565b6001036101d6576101c28185610242565b90506101cf600184610590565b92506101a0565b6101e08485610242565b93506101cf60028461056a565b90505b92915050565b5f6100ec61022061021a61020a6001610226565b6102158760646102ad565b6102e2565b84610191565b85610314565b5f677fffffffffffffff82111561023b575f80fd5b5060401b90565b5f600f83810b9083900b0260401d60016001607f1b0319811280159061026f575060016001607f1b038113155b6101ed5760405162461bcd60e51b81526004016102a49060208082526004908201526319985a5b60e21b604082015260600190565b60405180910390fd5b5f815f036102b9575f80fd5b5f6102c48484610378565b905060016001607f1b036001600160801b03821611156101ed575f80fd5b5f600f83810b9083900b0160016001607f1b0319811280159061030c575060016001607f1b038113155b6101ed575f80fd5b5f815f0361032357505f6101f0565b5f83600f0b1215610332575f80fd5b600f83900b6001600160801b038316810260401c90608084901c026001600160c01b03811115610360575f80fd5b60401b8119811115610370575f80fd5b019392505050565b5f815f03610384575f80fd5b5f6001600160c01b0384116103ae5782604085901b816103a6576103a6610556565b0490506104c4565b60c084811c64010000000081106103c7576020918201911c5b6201000081106103d9576010918201911c5b61010081106103ea576008918201911c5b601081106103fa576004918201911c5b6004811061040a576002918201911c5b60028110610419576001820191505b60bf820360018603901c6001018260ff0387901b8161043a5761043a610556565b0492506001600160801b03831115610450575f80fd5b608085901c83026001600160801b038616840260c088901c604089901b8281101561047c576001820391505b608084901b92900382811015610493576001820391505b829003608084901c82146104a85760016104b9565b8881816104b7576104b7610556565b045b870196505050505050505b6001600160801b038111156101ed575f80fd5b5f805f606084860312156104e9575f80fd5b505081359360208301359350604090920135919050565b5f8060408385031215610511575f80fd5b823580600f0b8114610521575f80fd5b946020939093013593505050565b634e487b7160e01b5f52601160045260245ffd5b808201808211156101f0576101f061052f565b634e487b7160e01b5f52601260045260245ffd5b5f8261057857610578610556565b500490565b5f8261058b5761058b610556565b500690565b818103818111156101f0576101f061052f56fea2646970667358221220902ba24db1b8a2f70702907b9c7912f3cd14fac107cc1f0294cb4d0da3a5d19564736f6c63430008140033",
  "devdoc": {
    "kind": "dev",
    "methods": {},
    "version": 1
  },
  "userdoc": {
    "kind": "user",
    "methods": {},
    "version": 1
  },
  "storageLayout": {
    "storage": [],
    "types": null
  }
}