{
  "address": "0xB7f8BC63BbcaD18155201308C8f3540b07f84F5e",
  "abi": [
    {
      "inputs": [],
      "stateMutability": "nonpayable",
      "type": "constructor"
    },
    {
      "inputs": [],
      "name": "InactiveLoanState",
      "type": "error"
    },
    {
      "inputs": [],
      "name": "InvalidFundsTransfer",
      "type": "error"
    },
    {
      "inputs": [],
      "name": "InvalidLoanState",
      "type": "error"
    },
    {
      "inputs": [],
      "name": "InvalidParticipant",
      "type": "error"
    },
    {
      "anonymous": false,
      "inputs": [
        {
          "indexed": true,
          "internalType": "uint256",
          "name": "debtId",
          "type": "uint256"
        },
        {
          "indexed": true,
          "internalType": "address",
          "name": "payer",
          "type": "address"
        },
        {
          "indexed": false,
          "internalType": "uint256",
          "name": "weiAmount",
          "type": "uint256"
        }
      ],
      "name": "Deposited",
      "type": "event"
    },
    {
      "anonymous": false,
      "inputs": [
        {
          "indexed": true,
          "internalType": "bytes32",
          "name": "role",
          "type": "bytes32"
        },
        {
          "indexed": true,
          "internalType": "bytes32",
          "name": "previousAdminRole",
          "type": "bytes32"
        },
        {
          "indexed": true,
          "internalType": "bytes32",
          "name": "newAdminRole",
          "type": "bytes32"
        }
      ],
      "name": "RoleAdminChanged",
      "type": "event"
    },
    {
      "anonymous": false,
      "inputs": [
        {
          "indexed": true,
          "internalType": "bytes32",
          "name": "role",
          "type": "bytes32"
        },
        {
          "indexed": true,
          "internalType": "address",
          "name": "account",
          "type": "address"
        },
        {
          "indexed": true,
          "internalType": "address",
          "name": "sender",
          "type": "address"
        }
      ],
      "name": "RoleGranted",
      "type": "event"
    },
    {
      "anonymous": false,
      "inputs": [
        {
          "indexed": true,
          "internalType": "bytes32",
          "name": "role",
          "type": "bytes32"
        },
        {
          "indexed": true,
          "internalType": "address",
          "name": "account",
          "type": "address"
        },
        {
          "indexed": true,
          "internalType": "address",
          "name": "sender",
          "type": "address"
        }
      ],
      "name": "RoleRevoked",
      "type": "event"
    },
    {
      "anonymous": false,
      "inputs": [
        {
          "indexed": true,
          "internalType": "address",
          "name": "payee",
          "type": "address"
        },
        {
          "indexed": false,
          "internalType": "uint256",
          "name": "weiAmount",
          "type": "uint256"
        }
      ],
      "name": "Withdrawn",
      "type": "event"
    },
    {
      "inputs": [],
      "name": "DEFAULT_ADMIN_ROLE",
      "outputs": [
        {
          "internalType": "bytes32",
          "name": "",
          "type": "bytes32"
        }
      ],
      "stateMutability": "view",
      "type": "function"
    },
    {
      "inputs": [],
      "name": "anzaToken",
      "outputs": [
        {
          "internalType": "address",
          "name": "",
          "type": "address"
        }
      ],
      "stateMutability": "view",
      "type": "function"
    },
    {
      "inputs": [],
      "name": "collateralVault",
      "outputs": [
        {
          "internalType": "address",
          "name": "",
          "type": "address"
        }
      ],
      "stateMutability": "view",
      "type": "function"
    },
    {
      "inputs": [
        {
          "internalType": "address",
          "name": "_account",
          "type": "address"
        }
      ],
      "name": "depositFunds",
      "outputs": [],
      "stateMutability": "payable",
      "type": "function"
    },
    {
      "inputs": [
        {
          "internalType": "uint256",
          "name": "_debtId",
          "type": "uint256"
        }
      ],
      "name": "depositPayment",
      "outputs": [],
      "stateMutability": "payable",
      "type": "function"
    },
    {
      "inputs": [
        {
          "internalType": "uint256",
          "name": "_debtId",
          "type": "uint256"
        },
        {
          "internalType": "address",
          "name": "_borrower",
          "type": "address"
        },
        {
          "internalType": "address",
          "name": "_purchaser",
          "type": "address"
        }
      ],
      "name": "executeDebtPurchase",
      "outputs": [
        {
          "internalType": "bool",
          "name": "_results",
          "type": "bool"
        }
      ],
      "stateMutability": "payable",
      "type": "function"
    },
    {
      "inputs": [
        {
          "internalType": "uint256",
          "name": "_debtId",
          "type": "uint256"
        }
      ],
      "name": "getDebtBalanceOf",
      "outputs": [
        {
          "internalType": "uint256",
          "name": "",
          "type": "uint256"
        }
      ],
      "stateMutability": "view",
      "type": "function"
    },
    {
      "inputs": [
        {
          "internalType": "bytes32",
          "name": "role",
          "type": "bytes32"
        }
      ],
      "name": "getRoleAdmin",
      "outputs": [
        {
          "internalType": "bytes32",
          "name": "",
          "type": "bytes32"
        }
      ],
      "stateMutability": "view",
      "type": "function"
    },
    {
      "inputs": [
        {
          "internalType": "bytes32",
          "name": "role",
          "type": "bytes32"
        },
        {
          "internalType": "address",
          "name": "account",
          "type": "address"
        }
      ],
      "name": "grantRole",
      "outputs": [],
      "stateMutability": "nonpayable",
      "type": "function"
    },
    {
      "inputs": [
        {
          "internalType": "bytes32",
          "name": "role",
          "type": "bytes32"
        },
        {
          "internalType": "address",
          "name": "account",
          "type": "address"
        }
      ],
      "name": "hasRole",
      "outputs": [
        {
          "internalType": "bool",
          "name": "",
          "type": "bool"
        }
      ],
      "stateMutability": "view",
      "type": "function"
    },
    {
      "inputs": [],
      "name": "loanContract",
      "outputs": [
        {
          "internalType": "address",
          "name": "",
          "type": "address"
        }
      ],
      "stateMutability": "view",
      "type": "function"
    },
    {
      "inputs": [],
      "name": "poolBalance",
      "outputs": [
        {
          "internalType": "uint256",
          "name": "",
          "type": "uint256"
        }
      ],
      "stateMutability": "view",
      "type": "function"
    },
    {
      "inputs": [
        {
          "internalType": "bytes32",
          "name": "role",
          "type": "bytes32"
        },
        {
          "internalType": "address",
          "name": "account",
          "type": "address"
        }
      ],
      "name": "renounceRole",
      "outputs": [],
      "stateMutability": "nonpayable",
      "type": "function"
    },
    {
      "inputs": [
        {
          "internalType": "bytes32",
          "name": "role",
          "type": "bytes32"
        },
        {
          "internalType": "address",
          "name": "account",
          "type": "address"
        }
      ],
      "name": "revokeRole",
      "outputs": [],
      "stateMutability": "nonpayable",
      "type": "function"
    },
    {
      "inputs": [
        {
          "internalType": "address",
          "name": "_anzaTokenAddress",
          "type": "address"
        }
      ],
      "name": "setAnzaToken",
      "outputs": [],
      "stateMutability": "nonpayable",
      "type": "function"
    },
    {
      "inputs": [
        {
          "internalType": "address",
          "name": "_collateralVaultAddress",
          "type": "address"
        }
      ],
      "name": "setCollateralVault",
      "outputs": [],
      "stateMutability": "nonpayable",
      "type": "function"
    },
    {
      "inputs": [
        {
          "internalType": "address",
          "name": "_loanContractAddress",
          "type": "address"
        }
      ],
      "name": "setLoanContract",
      "outputs": [],
      "stateMutability": "nonpayable",
      "type": "function"
    },
    {
      "inputs": [
        {
          "internalType": "address",
          "name": "_sponsor",
          "type": "address"
        },
        {
          "internalType": "uint256",
          "name": "_debtId",
          "type": "uint256"
        }
      ],
      "name": "sponsorPayment",
      "outputs": [],
      "stateMutability": "payable",
      "type": "function"
    },
    {
      "inputs": [
        {
          "internalType": "bytes4",
          "name": "interfaceId",
          "type": "bytes4"
        }
      ],
      "name": "supportsInterface",
      "outputs": [
        {
          "internalType": "bool",
          "name": "",
          "type": "bool"
        }
      ],
      "stateMutability": "view",
      "type": "function"
    },
    {
      "inputs": [
        {
          "internalType": "uint256",
          "name": "_debtId",
          "type": "uint256"
        }
      ],
      "name": "updateDebt",
      "outputs": [],
      "stateMutability": "nonpayable",
      "type": "function"
    },
    {
      "inputs": [
        {
          "internalType": "uint256",
          "name": "_debtId",
          "type": "uint256"
        }
      ],
      "name": "withdrawCollateral",
      "outputs": [
        {
          "internalType": "bool",
          "name": "",
          "type": "bool"
        }
      ],
      "stateMutability": "nonpayable",
      "type": "function"
    },
    {
      "inputs": [
        {
          "internalType": "uint256",
          "name": "_amount",
          "type": "uint256"
        }
      ],
      "name": "withdrawFromBalance",
      "outputs": [
        {
          "internalType": "bool",
          "name": "",
          "type": "bool"
        }
      ],
      "stateMutability": "nonpayable",
      "type": "function"
    },
    {
      "inputs": [
        {
          "internalType": "address",
          "name": "",
          "type": "address"
        }
      ],
      "name": "withdrawableBalance",
      "outputs": [
        {
          "internalType": "uint256",
          "name": "",
          "type": "uint256"
        }
      ],
      "stateMutability": "view",
      "type": "function"
    }
  ],
  "transactionHash": "0x797a17709bc1a8d1090763acc6c1c614632325197a6b839deb3d7d1a3bee64e4",
  "args": [],
  "numDeployments": 1,
  "solcInputHash": "6026b98393f52c3678e3a85d9b556f4c",
  "bytecode": "0x608060405234801562000010575f80fd5b506200002b5f8051602062001ff983398151915280620000b2565b620000535f8051602062001fd98339815191525f8051602062001ff9833981519152620000b2565b6200008d7f6ff243dd0433898c62e5507995453d38065c2abe8d8faf3cc448711da30c566a5f8051602062001ff9833981519152620000b2565b620000a75f8051602062001ff983398151915233620000fc565b6001600655620002c0565b5f82815260208190526040808220600101805490849055905190918391839186917fbd79b86ffe0ab8e8776151514217cd7cacd52c909f66475c3af44e129f0b00ff9190a4505050565b5f8051602062001fd9833981519152820362000121576200011d816200012d565b5050565b6200011d8282620001a4565b60015462000154905f8051602062001fd9833981519152906001600160a01b031662000242565b6200016e5f8051602062001fd983398151915282620001a4565b600180546001600160a01b039092166001600160a01b031992831681179091556002805483168217905560038054909216179055565b5f828152602081815260408083206001600160a01b038516845290915290205460ff166200011d575f828152602081815260408083206001600160a01b03851684529091529020805460ff19166001179055620001fe3390565b6001600160a01b0316816001600160a01b0316837f2f8788117e7eff1d82e926ec794901d17c78024a50270940304540a733656f0d60405160405180910390a45050565b5f828152602081815260408083206001600160a01b038516845290915290205460ff16156200011d575f828152602081815260408083206001600160a01b0385168085529252808320805460ff1916905551339285917ff6391f5c32d9c69d2a47ea670b442974b53935d1edc7fd64eb21e047a839171b9190a45050565b611d0b80620002ce5f395ff3fe60806040526004361061013c575f3560e01c80636b749c47116100b3578063a217fddf1161006d578063a217fddf1461036f578063b3e90a8214610382578063bab68c2114610395578063d547741f146103b4578063d706b7c2146103d3578063ef30ecac146103f2575f80fd5b80636b749c47146102e357806386cd0a47146102f657806390d17f1114610309578063919747fb1461032857806391d148541461033b57806396365d441461035a575f80fd5b8063253f284b11610104578063253f284b146102295780632f2ff15d1461024657806331d388061461026757806336568abe146102865780636112fe2e146102a557806368a806c4146102c4575f80fd5b806301ffc9a71461014057806302b62938146101745780630bece79c146101ad578063188e4681146101de578063248a9ca3146101fb575b5f80fd5b34801561014b575f80fd5b5061015f61015a366004611996565b610411565b60405190151581526020015b60405180910390f35b34801561017f575f80fd5b5061019f61018e3660046119d1565b60086020525f908152604090205481565b60405190815260200161016b565b3480156101b8575f80fd5b506004546001600160a01b03165b6040516001600160a01b03909116815260200161016b565b3480156101e9575f80fd5b506005546001600160a01b03166101c6565b348015610206575f80fd5b5061019f6102153660046119ec565b5f9081526020819052604090206001015490565b348015610234575f80fd5b506001546001600160a01b03166101c6565b348015610251575f80fd5b50610265610260366004611a03565b610447565b005b348015610272575f80fd5b506102656102813660046119d1565b610470565b348015610291575f80fd5b506102656102a0366004611a03565b610494565b3480156102b0575f80fd5b5061015f6102bf3660046119ec565b610513565b3480156102cf575f80fd5b506102656102de3660046119d1565b610586565b6102656102f13660046119ec565b6105c0565b610265610304366004611a31565b6107de565b348015610314575f80fd5b506102656103233660046119d1565b61096e565b6102656103363660046119d1565b6109a8565b348015610346575f80fd5b5061015f610355366004611a03565b610a2b565b348015610365575f80fd5b5061019f60075481565b34801561037a575f80fd5b5061019f5f81565b61015f610390366004611a5b565b610a53565b3480156103a0575f80fd5b5061019f6103af3660046119ec565b610d68565b3480156103bf575f80fd5b506102656103ce366004611a03565b610de3565b3480156103de575f80fd5b506102656103ed3660046119ec565b610e07565b3480156103fd575f80fd5b5061015f61040c3660046119ec565b6111a3565b5f6001600160e01b03198216637965db0b60e01b148061044157506301ffc9a760e01b6001600160e01b03198316145b92915050565b5f82815260208190526040902060010154610461816112a9565b61046b83836112b6565b505050565b5f80516020611c96833981519152610487816112a9565b610490826112dd565b5050565b6001600160a01b03811633146105095760405162461bcd60e51b815260206004820152602f60248201527f416363657373436f6e74726f6c3a2063616e206f6e6c792072656e6f756e636560448201526e103937b632b9903337b91039b2b63360891b60648201526084015b60405180910390fd5b610490828261134e565b6004805460405163f3fef3a360e01b81525f926001600160a01b039092169163f3fef3a391610546913391879101611a9a565b6020604051808303815f875af1158015610562573d5f803e3d5ffd5b505050506040513d601f19601f820116820180604052508101906104419190611ab3565b5f80516020611c9683398151915261059d816112a9565b50600480546001600160a01b0319166001600160a01b0392909216919091179055565b6003546040516356f9654b60e01b81526004810183905282916001600160a01b0316906356f9654b906024015f6040518083038186803b158015610602575f80fd5b505afa158015610614573d5f803e3d5ffd5b505050508161062281610e07565b6003546040516367c2e33f60e01b8152600481018390526001600160a01b03909116906367c2e33f90602401602060405180830381865afa158015610669573d5f803e3d5ffd5b505050506040513d601f19601f8201168201806040525081019061068d9190611ab3565b61046b5733345f8190036106b4576040516305d3a4cd60e11b815260040160405180910390fd5b60055460405163163be8c160e11b81526001600160a01b0390911690632c77d182906106e69085908990600401611a9a565b602060405180830381865afa158015610701573d5f803e3d5ffd5b505050506040513d601f19601f820116820180604052508101906107259190611ab3565b610742576040516350a2e21f60e11b815260040160405180910390fd5b61074d8286836113b2565b816001600160a01b0316855f80516020611cb68339815191528360405161077691815260200190565b60405180910390a35050600354604051630e89866b60e11b8152600481018390526001600160a01b0390911690631d130cd6906024015f604051808303815f87803b1580156107c3575f80fd5b505af11580156107d5573d5f803e3d5ffd5b50505050505050565b6003546040516356f9654b60e01b81526004810183905282916001600160a01b0316906356f9654b906024015f6040518083038186803b158015610820575f80fd5b505afa158015610832573d5f803e3d5ffd5b505050508161084081610e07565b6003546040516367c2e33f60e01b8152600481018390526001600160a01b03909116906367c2e33f90602401602060405180830381865afa158015610887573d5f803e3d5ffd5b505050506040513d601f19601f820116820180604052508101906108ab9190611ab3565b61096857345f8190036108d1576040516305d3a4cd60e11b815260040160405180910390fd5b6108dc8585836113b2565b846001600160a01b0316845f80516020611cb68339815191528360405161090591815260200190565b60405180910390a350600354604051630e89866b60e11b8152600481018390526001600160a01b0390911690631d130cd6906024015f604051808303815f87803b158015610951575f80fd5b505af1158015610963573d5f803e3d5ffd5b505050505b50505050565b5f80516020611c96833981519152610985816112a9565b50600580546001600160a01b0319166001600160a01b0392909216919091179055565b5f80516020611c768339815191526109bf816112a9565b6109c76116b2565b6001600160a01b0382165f90815260086020526040812080543492906109ee908490611ae6565b90915550506040513481526001600160a01b038316905f19905f80516020611cb68339815191529060200160405180910390a36104906001600655565b5f918252602082815260408084206001600160a01b0393909316845291905290205460ff1690565b5f7f6ff243dd0433898c62e5507995453d38065c2abe8d8faf3cc448711da30c566a610a7e816112a9565b6003546040516356f9654b60e01b81526004810187905286916001600160a01b0316906356f9654b906024015f6040518083038186803b158015610ac0575f80fd5b505afa158015610ad2573d5f803e3d5ffd5b5050505085610ae081610e07565b6003546040516367c2e33f60e01b8152600481018390526001600160a01b03909116906367c2e33f90602401602060405180830381865afa158015610b27573d5f803e3d5ffd5b505050506040513d601f19601f82011682018060405250810190610b4b9190611ab3565b610d5e5760015460405162888b6d60e41b8152600481018990525f916001600160a01b031690630888b6d090602401602060405180830381865afa158015610b95573d5f803e3d5ffd5b505050506040513d601f19601f82011682018060405250810190610bb99190611af9565b905034818110610c7c57610bce878a846113b2565b6004805460405163f3fef3a360e01b81526001600160a01b039091169163f3fef3a391610bff918b918e9101611a9a565b6020604051808303815f875af1158015610c1b573d5f803e3d5ffd5b505050506040513d601f19601f82011682018060405250810190610c3f9190611ab3565b50610c4a8282611b10565b6001600160a01b0389165f9081526008602052604081208054909190610c71908490611ae6565b90915550610cfe9050565b610c87878a836113b2565b600554604051632d6dfe7360e21b81526001600160a01b038a811660048301528981166024830152604482018c9052608060648301525f60848301529091169063b5b7f9cc9060a4015f604051808303815f87803b158015610ce7575f80fd5b505af1158015610cf9573d5f803e3d5ffd5b505050505b5050600354604051630e89866b60e11b815260048101839052600195506001600160a01b0390911690631d130cd6906024015f604051808303815f87803b158015610d47575f80fd5b505af1158015610d59573d5f803e3d5ffd5b505050505b5050509392505050565b6005545f906001600160a01b031663bd85b039610d86846002611b23565b6040518263ffffffff1660e01b8152600401610da491815260200190565b602060405180830381865afa158015610dbf573d5f803e3d5ffd5b505050506040513d601f19601f820116820180604052508101906104419190611af9565b5f82815260208190526040902060010154610dfd816112a9565b61046b838361134e565b60025460405163a796d4df60e01b8152600481018390525f916001600160a01b03169063a796d4df90602401602060405180830381865afa158015610e4e573d5f803e3d5ffd5b505050506040513d601f19601f82011682018060405250810190610e729190611af9565b600354604051630e89866b60e11b8152600481018590529192506001600160a01b031690631d130cd6906024015f604051808303815f87803b158015610eb6575f80fd5b505af1158015610ec8573d5f803e3d5ffd5b505060025460405163a796d4df60e01b8152600481018690525f93506001600160a01b039091169150639f590b7b9085908590849063a796d4df90602401602060405180830381865afa158015610f21573d5f803e3d5ffd5b505050506040513d601f19601f82011682018060405250810190610f459190611af9565b610f4f9190611b10565b6040516001600160e01b031960e085901b16815260048101929092526024820152604401602060405180830381865afa158015610f8e573d5f803e3d5ffd5b505050506040513d601f19601f82011682018060405250810190610fb29190611af9565b9050801561046b576005545f906001600160a01b031663bd85b039610fd8866002611b23565b6040518263ffffffff1660e01b8152600401610ff691815260200190565b602060405180830381865afa158015611011573d5f803e3d5ffd5b505050506040513d601f19601f820116820180604052508101906110359190611af9565b6002546040516323502ca360e21b8152600481018790529192505f91732279B7A0a67DB372996a5FaB50D91eAA73d2eBe691636d8866f19185916001600160a01b031690638d40b28c90602401602060405180830381865afa15801561109d573d5f803e3d5ffd5b505050506040513d601f19601f820116820180604052508101906110c19190611af9565b6040516001600160e01b031960e085901b1681526004810192909252602482015260448101869052606401602060405180830381865af4158015611107573d5f803e3d5ffd5b505050506040513d601f19601f8201168201806040525081019061112b9190611af9565b6005549091506001600160a01b0316631b2ef1ca8661114a8585611b10565b6040516001600160e01b031960e085901b168152600481019290925260248201526044015b5f604051808303815f87803b158015611186575f80fd5b505af1158015611198573d5f803e3d5ffd5b505050505050505050565b5f6111ac6116b2565b335f8390036111ce576040516305d3a4cd60e11b815260040160405180910390fd5b6001600160a01b0381165f90815260086020526040812080548592906111f5908490611b10565b90915550506040515f906001600160a01b0383169085908381818185875af1925050503d805f8114611242576040519150601f19603f3d011682016040523d82523d5f602084013e611247565b606091505b5050905080611254575f80fd5b816001600160a01b03167f7084f5476618d8e60b11ef0d7d3f06914655adb8793e28ff7f018d4c76d505d58560405161128f91815260200190565b60405180910390a29150506112a46001600655565b919050565b6112b3813361170b565b50565b5f80516020611c7683398151915282036112d357610490816112dd565b6104908282611764565b600154611301905f80516020611c76833981519152906001600160a01b031661134e565b6113185f80516020611c7683398151915282611764565b600180546001600160a01b039092166001600160a01b031992831681179091556002805483168217905560038054909216179055565b6113588282610a2b565b15610490575f828152602081815260408083206001600160a01b0385168085529252808320805460ff1916905551339285917ff6391f5c32d9c69d2a47ea670b442974b53935d1edc7fd64eb21e047a839171b9190a45050565b600554604051630799ef7760e11b8152600481018490525f916001600160a01b031690630f33deee90602401602060405180830381865afa1580156113f9573d5f803e3d5ffd5b505050506040513d601f19601f8201168201806040525081019061141d9190611b3a565b6005549091505f906001600160a01b031662fdd58e8361143e876002611b23565b6040518363ffffffff1660e01b815260040161145b929190611a9a565b602060405180830381865afa158015611476573d5f803e3d5ffd5b505050506040513d601f19601f8201168201806040525081019061149a9190611af9565b90508281111561153e576001600160a01b0382165f90815260086020526040812080548592906114cb908490611ae6565b90915550506005546001600160a01b031663f5298aca836114ed876002611b23565b866040518463ffffffff1660e01b815260040161150c93929190611b55565b5f604051808303815f87803b158015611523575f80fd5b505af1158015611535573d5f803e3d5ffd5b5050505061160b565b6001600160a01b0382165f9081526008602052604081208054839290611565908490611ae6565b9091555061157590508184611b10565b6001600160a01b0386165f908152600860205260408120805490919061159c908490611ae6565b90915550506005546001600160a01b031663f5298aca836115be876002611b23565b846040518463ffffffff1660e01b81526004016115dd93929190611b55565b5f604051808303815f87803b1580156115f4575f80fd5b505af1158015611606573d5f803e3d5ffd5b505050505b600354604051633a189f8960e21b8152600481018690526001600160a01b039091169063e8627e2490602401602060405180830381865afa158015611652573d5f803e3d5ffd5b505050506040513d601f19601f820116820180604052508101906116769190611ab3565b6116ab5760055460405163150f60ed60e11b8152600481018690526001600160a01b0390911690632a1ec1da9060240161116f565b5050505050565b6002600654036117045760405162461bcd60e51b815260206004820152601f60248201527f5265656e7472616e637947756172643a207265656e7472616e742063616c6c006044820152606401610500565b6002600655565b6117158282610a2b565b61049057611722816117e7565b61172d8360206117f9565b60405160200161173e929190611b98565b60408051601f198184030181529082905262461bcd60e51b825261050091600401611c06565b61176e8282610a2b565b610490575f828152602081815260408083206001600160a01b03851684529091529020805460ff191660011790556117a33390565b6001600160a01b0316816001600160a01b0316837f2f8788117e7eff1d82e926ec794901d17c78024a50270940304540a733656f0d60405160405180910390a45050565b60606104416001600160a01b03831660145b60605f611807836002611b23565b611812906002611ae6565b67ffffffffffffffff81111561182a5761182a611c38565b6040519080825280601f01601f191660200182016040528015611854576020820181803683370190505b509050600360fc1b815f8151811061186e5761186e611c4c565b60200101906001600160f81b03191690815f1a905350600f60fb1b8160018151811061189c5761189c611c4c565b60200101906001600160f81b03191690815f1a9053505f6118be846002611b23565b6118c9906001611ae6565b90505b6001811115611940576f181899199a1a9b1b9c1cb0b131b232b360811b85600f16601081106118fd576118fd611c4c565b1a60f81b82828151811061191357611913611c4c565b60200101906001600160f81b03191690815f1a90535060049490941c9361193981611c60565b90506118cc565b50831561198f5760405162461bcd60e51b815260206004820181905260248201527f537472696e67733a20686578206c656e67746820696e73756666696369656e746044820152606401610500565b9392505050565b5f602082840312156119a6575f80fd5b81356001600160e01b03198116811461198f575f80fd5b6001600160a01b03811681146112b3575f80fd5b5f602082840312156119e1575f80fd5b813561198f816119bd565b5f602082840312156119fc575f80fd5b5035919050565b5f8060408385031215611a14575f80fd5b823591506020830135611a26816119bd565b809150509250929050565b5f8060408385031215611a42575f80fd5b8235611a4d816119bd565b946020939093013593505050565b5f805f60608486031215611a6d575f80fd5b833592506020840135611a7f816119bd565b91506040840135611a8f816119bd565b809150509250925092565b6001600160a01b03929092168252602082015260400190565b5f60208284031215611ac3575f80fd5b8151801515811461198f575f80fd5b634e487b7160e01b5f52601160045260245ffd5b8082018082111561044157610441611ad2565b5f60208284031215611b09575f80fd5b5051919050565b8181038181111561044157610441611ad2565b808202811582820484141761044157610441611ad2565b5f60208284031215611b4a575f80fd5b815161198f816119bd565b6001600160a01b039390931683526020830191909152604082015260600190565b5f5b83811015611b90578181015183820152602001611b78565b50505f910152565b76020b1b1b2b9b9a1b7b73a3937b61d1030b1b1b7bab73a1604d1b81525f8351611bc9816017850160208801611b76565b7001034b99036b4b9b9b4b733903937b6329607d1b6017918401918201528351611bfa816028840160208801611b76565b01602801949350505050565b602081525f8251806020840152611c24816040850160208701611b76565b601f01601f19169190910160400192915050565b634e487b7160e01b5f52604160045260245ffd5b634e487b7160e01b5f52603260045260245ffd5b5f81611c6e57611c6e611ad2565b505f19019056feaca95a87ebdd693d0a3734440ea0ab66d6317f6d32766e386292131defadde1ac9d3ed72b71767c9a467f79cf288882213fa725f40ea5b833a2b70350c4e0f121599c0fcf897af5babc2bfcf707f5dc050f841b044d97c3251ecec35b9abf80ba2646970667358221220beba58568050f352680e68de16f1ef6de36c2885953875463788dac9b69deb1364736f6c63430008140033aca95a87ebdd693d0a3734440ea0ab66d6317f6d32766e386292131defadde1ac9d3ed72b71767c9a467f79cf288882213fa725f40ea5b833a2b70350c4e0f12",
  "deployedBytecode": "0x60806040526004361061013c575f3560e01c80636b749c47116100b3578063a217fddf1161006d578063a217fddf1461036f578063b3e90a8214610382578063bab68c2114610395578063d547741f146103b4578063d706b7c2146103d3578063ef30ecac146103f2575f80fd5b80636b749c47146102e357806386cd0a47146102f657806390d17f1114610309578063919747fb1461032857806391d148541461033b57806396365d441461035a575f80fd5b8063253f284b11610104578063253f284b146102295780632f2ff15d1461024657806331d388061461026757806336568abe146102865780636112fe2e146102a557806368a806c4146102c4575f80fd5b806301ffc9a71461014057806302b62938146101745780630bece79c146101ad578063188e4681146101de578063248a9ca3146101fb575b5f80fd5b34801561014b575f80fd5b5061015f61015a366004611996565b610411565b60405190151581526020015b60405180910390f35b34801561017f575f80fd5b5061019f61018e3660046119d1565b60086020525f908152604090205481565b60405190815260200161016b565b3480156101b8575f80fd5b506004546001600160a01b03165b6040516001600160a01b03909116815260200161016b565b3480156101e9575f80fd5b506005546001600160a01b03166101c6565b348015610206575f80fd5b5061019f6102153660046119ec565b5f9081526020819052604090206001015490565b348015610234575f80fd5b506001546001600160a01b03166101c6565b348015610251575f80fd5b50610265610260366004611a03565b610447565b005b348015610272575f80fd5b506102656102813660046119d1565b610470565b348015610291575f80fd5b506102656102a0366004611a03565b610494565b3480156102b0575f80fd5b5061015f6102bf3660046119ec565b610513565b3480156102cf575f80fd5b506102656102de3660046119d1565b610586565b6102656102f13660046119ec565b6105c0565b610265610304366004611a31565b6107de565b348015610314575f80fd5b506102656103233660046119d1565b61096e565b6102656103363660046119d1565b6109a8565b348015610346575f80fd5b5061015f610355366004611a03565b610a2b565b348015610365575f80fd5b5061019f60075481565b34801561037a575f80fd5b5061019f5f81565b61015f610390366004611a5b565b610a53565b3480156103a0575f80fd5b5061019f6103af3660046119ec565b610d68565b3480156103bf575f80fd5b506102656103ce366004611a03565b610de3565b3480156103de575f80fd5b506102656103ed3660046119ec565b610e07565b3480156103fd575f80fd5b5061015f61040c3660046119ec565b6111a3565b5f6001600160e01b03198216637965db0b60e01b148061044157506301ffc9a760e01b6001600160e01b03198316145b92915050565b5f82815260208190526040902060010154610461816112a9565b61046b83836112b6565b505050565b5f80516020611c96833981519152610487816112a9565b610490826112dd565b5050565b6001600160a01b03811633146105095760405162461bcd60e51b815260206004820152602f60248201527f416363657373436f6e74726f6c3a2063616e206f6e6c792072656e6f756e636560448201526e103937b632b9903337b91039b2b63360891b60648201526084015b60405180910390fd5b610490828261134e565b6004805460405163f3fef3a360e01b81525f926001600160a01b039092169163f3fef3a391610546913391879101611a9a565b6020604051808303815f875af1158015610562573d5f803e3d5ffd5b505050506040513d601f19601f820116820180604052508101906104419190611ab3565b5f80516020611c9683398151915261059d816112a9565b50600480546001600160a01b0319166001600160a01b0392909216919091179055565b6003546040516356f9654b60e01b81526004810183905282916001600160a01b0316906356f9654b906024015f6040518083038186803b158015610602575f80fd5b505afa158015610614573d5f803e3d5ffd5b505050508161062281610e07565b6003546040516367c2e33f60e01b8152600481018390526001600160a01b03909116906367c2e33f90602401602060405180830381865afa158015610669573d5f803e3d5ffd5b505050506040513d601f19601f8201168201806040525081019061068d9190611ab3565b61046b5733345f8190036106b4576040516305d3a4cd60e11b815260040160405180910390fd5b60055460405163163be8c160e11b81526001600160a01b0390911690632c77d182906106e69085908990600401611a9a565b602060405180830381865afa158015610701573d5f803e3d5ffd5b505050506040513d601f19601f820116820180604052508101906107259190611ab3565b610742576040516350a2e21f60e11b815260040160405180910390fd5b61074d8286836113b2565b816001600160a01b0316855f80516020611cb68339815191528360405161077691815260200190565b60405180910390a35050600354604051630e89866b60e11b8152600481018390526001600160a01b0390911690631d130cd6906024015f604051808303815f87803b1580156107c3575f80fd5b505af11580156107d5573d5f803e3d5ffd5b50505050505050565b6003546040516356f9654b60e01b81526004810183905282916001600160a01b0316906356f9654b906024015f6040518083038186803b158015610820575f80fd5b505afa158015610832573d5f803e3d5ffd5b505050508161084081610e07565b6003546040516367c2e33f60e01b8152600481018390526001600160a01b03909116906367c2e33f90602401602060405180830381865afa158015610887573d5f803e3d5ffd5b505050506040513d601f19601f820116820180604052508101906108ab9190611ab3565b61096857345f8190036108d1576040516305d3a4cd60e11b815260040160405180910390fd5b6108dc8585836113b2565b846001600160a01b0316845f80516020611cb68339815191528360405161090591815260200190565b60405180910390a350600354604051630e89866b60e11b8152600481018390526001600160a01b0390911690631d130cd6906024015f604051808303815f87803b158015610951575f80fd5b505af1158015610963573d5f803e3d5ffd5b505050505b50505050565b5f80516020611c96833981519152610985816112a9565b50600580546001600160a01b0319166001600160a01b0392909216919091179055565b5f80516020611c768339815191526109bf816112a9565b6109c76116b2565b6001600160a01b0382165f90815260086020526040812080543492906109ee908490611ae6565b90915550506040513481526001600160a01b038316905f19905f80516020611cb68339815191529060200160405180910390a36104906001600655565b5f918252602082815260408084206001600160a01b0393909316845291905290205460ff1690565b5f7f6ff243dd0433898c62e5507995453d38065c2abe8d8faf3cc448711da30c566a610a7e816112a9565b6003546040516356f9654b60e01b81526004810187905286916001600160a01b0316906356f9654b906024015f6040518083038186803b158015610ac0575f80fd5b505afa158015610ad2573d5f803e3d5ffd5b5050505085610ae081610e07565b6003546040516367c2e33f60e01b8152600481018390526001600160a01b03909116906367c2e33f90602401602060405180830381865afa158015610b27573d5f803e3d5ffd5b505050506040513d601f19601f82011682018060405250810190610b4b9190611ab3565b610d5e5760015460405162888b6d60e41b8152600481018990525f916001600160a01b031690630888b6d090602401602060405180830381865afa158015610b95573d5f803e3d5ffd5b505050506040513d601f19601f82011682018060405250810190610bb99190611af9565b905034818110610c7c57610bce878a846113b2565b6004805460405163f3fef3a360e01b81526001600160a01b039091169163f3fef3a391610bff918b918e9101611a9a565b6020604051808303815f875af1158015610c1b573d5f803e3d5ffd5b505050506040513d601f19601f82011682018060405250810190610c3f9190611ab3565b50610c4a8282611b10565b6001600160a01b0389165f9081526008602052604081208054909190610c71908490611ae6565b90915550610cfe9050565b610c87878a836113b2565b600554604051632d6dfe7360e21b81526001600160a01b038a811660048301528981166024830152604482018c9052608060648301525f60848301529091169063b5b7f9cc9060a4015f604051808303815f87803b158015610ce7575f80fd5b505af1158015610cf9573d5f803e3d5ffd5b505050505b5050600354604051630e89866b60e11b815260048101839052600195506001600160a01b0390911690631d130cd6906024015f604051808303815f87803b158015610d47575f80fd5b505af1158015610d59573d5f803e3d5ffd5b505050505b5050509392505050565b6005545f906001600160a01b031663bd85b039610d86846002611b23565b6040518263ffffffff1660e01b8152600401610da491815260200190565b602060405180830381865afa158015610dbf573d5f803e3d5ffd5b505050506040513d601f19601f820116820180604052508101906104419190611af9565b5f82815260208190526040902060010154610dfd816112a9565b61046b838361134e565b60025460405163a796d4df60e01b8152600481018390525f916001600160a01b03169063a796d4df90602401602060405180830381865afa158015610e4e573d5f803e3d5ffd5b505050506040513d601f19601f82011682018060405250810190610e729190611af9565b600354604051630e89866b60e11b8152600481018590529192506001600160a01b031690631d130cd6906024015f604051808303815f87803b158015610eb6575f80fd5b505af1158015610ec8573d5f803e3d5ffd5b505060025460405163a796d4df60e01b8152600481018690525f93506001600160a01b039091169150639f590b7b9085908590849063a796d4df90602401602060405180830381865afa158015610f21573d5f803e3d5ffd5b505050506040513d601f19601f82011682018060405250810190610f459190611af9565b610f4f9190611b10565b6040516001600160e01b031960e085901b16815260048101929092526024820152604401602060405180830381865afa158015610f8e573d5f803e3d5ffd5b505050506040513d601f19601f82011682018060405250810190610fb29190611af9565b9050801561046b576005545f906001600160a01b031663bd85b039610fd8866002611b23565b6040518263ffffffff1660e01b8152600401610ff691815260200190565b602060405180830381865afa158015611011573d5f803e3d5ffd5b505050506040513d601f19601f820116820180604052508101906110359190611af9565b6002546040516323502ca360e21b8152600481018790529192505f9173__$7ff1827adbcc406cbe9f732ad7b1b7248b$__91636d8866f19185916001600160a01b031690638d40b28c90602401602060405180830381865afa15801561109d573d5f803e3d5ffd5b505050506040513d601f19601f820116820180604052508101906110c19190611af9565b6040516001600160e01b031960e085901b1681526004810192909252602482015260448101869052606401602060405180830381865af4158015611107573d5f803e3d5ffd5b505050506040513d601f19601f8201168201806040525081019061112b9190611af9565b6005549091506001600160a01b0316631b2ef1ca8661114a8585611b10565b6040516001600160e01b031960e085901b168152600481019290925260248201526044015b5f604051808303815f87803b158015611186575f80fd5b505af1158015611198573d5f803e3d5ffd5b505050505050505050565b5f6111ac6116b2565b335f8390036111ce576040516305d3a4cd60e11b815260040160405180910390fd5b6001600160a01b0381165f90815260086020526040812080548592906111f5908490611b10565b90915550506040515f906001600160a01b0383169085908381818185875af1925050503d805f8114611242576040519150601f19603f3d011682016040523d82523d5f602084013e611247565b606091505b5050905080611254575f80fd5b816001600160a01b03167f7084f5476618d8e60b11ef0d7d3f06914655adb8793e28ff7f018d4c76d505d58560405161128f91815260200190565b60405180910390a29150506112a46001600655565b919050565b6112b3813361170b565b50565b5f80516020611c7683398151915282036112d357610490816112dd565b6104908282611764565b600154611301905f80516020611c76833981519152906001600160a01b031661134e565b6113185f80516020611c7683398151915282611764565b600180546001600160a01b039092166001600160a01b031992831681179091556002805483168217905560038054909216179055565b6113588282610a2b565b15610490575f828152602081815260408083206001600160a01b0385168085529252808320805460ff1916905551339285917ff6391f5c32d9c69d2a47ea670b442974b53935d1edc7fd64eb21e047a839171b9190a45050565b600554604051630799ef7760e11b8152600481018490525f916001600160a01b031690630f33deee90602401602060405180830381865afa1580156113f9573d5f803e3d5ffd5b505050506040513d601f19601f8201168201806040525081019061141d9190611b3a565b6005549091505f906001600160a01b031662fdd58e8361143e876002611b23565b6040518363ffffffff1660e01b815260040161145b929190611a9a565b602060405180830381865afa158015611476573d5f803e3d5ffd5b505050506040513d601f19601f8201168201806040525081019061149a9190611af9565b90508281111561153e576001600160a01b0382165f90815260086020526040812080548592906114cb908490611ae6565b90915550506005546001600160a01b031663f5298aca836114ed876002611b23565b866040518463ffffffff1660e01b815260040161150c93929190611b55565b5f604051808303815f87803b158015611523575f80fd5b505af1158015611535573d5f803e3d5ffd5b5050505061160b565b6001600160a01b0382165f9081526008602052604081208054839290611565908490611ae6565b9091555061157590508184611b10565b6001600160a01b0386165f908152600860205260408120805490919061159c908490611ae6565b90915550506005546001600160a01b031663f5298aca836115be876002611b23565b846040518463ffffffff1660e01b81526004016115dd93929190611b55565b5f604051808303815f87803b1580156115f4575f80fd5b505af1158015611606573d5f803e3d5ffd5b505050505b600354604051633a189f8960e21b8152600481018690526001600160a01b039091169063e8627e2490602401602060405180830381865afa158015611652573d5f803e3d5ffd5b505050506040513d601f19601f820116820180604052508101906116769190611ab3565b6116ab5760055460405163150f60ed60e11b8152600481018690526001600160a01b0390911690632a1ec1da9060240161116f565b5050505050565b6002600654036117045760405162461bcd60e51b815260206004820152601f60248201527f5265656e7472616e637947756172643a207265656e7472616e742063616c6c006044820152606401610500565b6002600655565b6117158282610a2b565b61049057611722816117e7565b61172d8360206117f9565b60405160200161173e929190611b98565b60408051601f198184030181529082905262461bcd60e51b825261050091600401611c06565b61176e8282610a2b565b610490575f828152602081815260408083206001600160a01b03851684529091529020805460ff191660011790556117a33390565b6001600160a01b0316816001600160a01b0316837f2f8788117e7eff1d82e926ec794901d17c78024a50270940304540a733656f0d60405160405180910390a45050565b60606104416001600160a01b03831660145b60605f611807836002611b23565b611812906002611ae6565b67ffffffffffffffff81111561182a5761182a611c38565b6040519080825280601f01601f191660200182016040528015611854576020820181803683370190505b509050600360fc1b815f8151811061186e5761186e611c4c565b60200101906001600160f81b03191690815f1a905350600f60fb1b8160018151811061189c5761189c611c4c565b60200101906001600160f81b03191690815f1a9053505f6118be846002611b23565b6118c9906001611ae6565b90505b6001811115611940576f181899199a1a9b1b9c1cb0b131b232b360811b85600f16601081106118fd576118fd611c4c565b1a60f81b82828151811061191357611913611c4c565b60200101906001600160f81b03191690815f1a90535060049490941c9361193981611c60565b90506118cc565b50831561198f5760405162461bcd60e51b815260206004820181905260248201527f537472696e67733a20686578206c656e67746820696e73756666696369656e746044820152606401610500565b9392505050565b5f602082840312156119a6575f80fd5b81356001600160e01b03198116811461198f575f80fd5b6001600160a01b03811681146112b3575f80fd5b5f602082840312156119e1575f80fd5b813561198f816119bd565b5f602082840312156119fc575f80fd5b5035919050565b5f8060408385031215611a14575f80fd5b823591506020830135611a26816119bd565b809150509250929050565b5f8060408385031215611a42575f80fd5b8235611a4d816119bd565b946020939093013593505050565b5f805f60608486031215611a6d575f80fd5b833592506020840135611a7f816119bd565b91506040840135611a8f816119bd565b809150509250925092565b6001600160a01b03929092168252602082015260400190565b5f60208284031215611ac3575f80fd5b8151801515811461198f575f80fd5b634e487b7160e01b5f52601160045260245ffd5b8082018082111561044157610441611ad2565b5f60208284031215611b09575f80fd5b5051919050565b8181038181111561044157610441611ad2565b808202811582820484141761044157610441611ad2565b5f60208284031215611b4a575f80fd5b815161198f816119bd565b6001600160a01b039390931683526020830191909152604082015260600190565b5f5b83811015611b90578181015183820152602001611b78565b50505f910152565b76020b1b1b2b9b9a1b7b73a3937b61d1030b1b1b7bab73a1604d1b81525f8351611bc9816017850160208801611b76565b7001034b99036b4b9b9b4b733903937b6329607d1b6017918401918201528351611bfa816028840160208801611b76565b01602801949350505050565b602081525f8251806020840152611c24816040850160208701611b76565b601f01601f19169190910160400192915050565b634e487b7160e01b5f52604160045260245ffd5b634e487b7160e01b5f52603260045260245ffd5b5f81611c6e57611c6e611ad2565b505f19019056feaca95a87ebdd693d0a3734440ea0ab66d6317f6d32766e386292131defadde1ac9d3ed72b71767c9a467f79cf288882213fa725f40ea5b833a2b70350c4e0f121599c0fcf897af5babc2bfcf707f5dc050f841b044d97c3251ecec35b9abf80ba2646970667358221220beba58568050f352680e68de16f1ef6de36c2885953875463788dac9b69deb1364736f6c63430008140033",
  "libraries": {
    "LibLoanContractInterest": "0x2279B7A0a67DB372996a5FaB50D91eAA73d2eBe6"
  },
  "devdoc": {
    "events": {
      "RoleAdminChanged(bytes32,bytes32,bytes32)": {
        "details": "Emitted when `newAdminRole` is set as ``role``'s admin role, replacing `previousAdminRole` `DEFAULT_ADMIN_ROLE` is the starting admin for all roles, despite {RoleAdminChanged} not being emitted signaling this. _Available since v3.1._"
      },
      "RoleGranted(bytes32,address,address)": {
        "details": "Emitted when `account` is granted `role`. `sender` is the account that originated the contract call, an admin role bearer except when using {AccessControl-_setupRole}."
      },
      "RoleRevoked(bytes32,address,address)": {
        "details": "Emitted when `account` is revoked `role`. `sender` is the account that originated the contract call:   - if using `revokeRole`, it is the admin role bearer   - if using `renounceRole`, it is the role bearer (i.e. `account`)"
      }
    },
    "kind": "dev",
    "methods": {
      "getRoleAdmin(bytes32)": {
        "details": "Returns the admin role that controls `role`. See {grantRole} and {revokeRole}. To change a role's admin, use {_setRoleAdmin}."
      },
      "grantRole(bytes32,address)": {
        "details": "Grants `role` to `account`. If `account` had not been already granted `role`, emits a {RoleGranted} event. Requirements: - the caller must have ``role``'s admin role. May emit a {RoleGranted} event."
      },
      "hasRole(bytes32,address)": {
        "details": "Returns `true` if `account` has been granted `role`."
      },
      "renounceRole(bytes32,address)": {
        "details": "Revokes `role` from the calling account. Roles are often managed via {grantRole} and {revokeRole}: this function's purpose is to provide a mechanism for accounts to lose their privileges if they are compromised (such as when a trusted device is misplaced). If the calling account had been revoked `role`, emits a {RoleRevoked} event. Requirements: - the caller must be `account`. May emit a {RoleRevoked} event."
      },
      "revokeRole(bytes32,address)": {
        "details": "Revokes `role` from `account`. If `account` had been granted `role`, emits a {RoleRevoked} event. Requirements: - the caller must have ``role``'s admin role. May emit a {RoleRevoked} event."
      },
      "supportsInterface(bytes4)": {
        "details": "See {IERC165-supportsInterface}."
      }
    },
    "version": 1
  },
  "userdoc": {
    "kind": "user",
    "methods": {},
    "version": 1
  },
  "storageLayout": {
    "storage": [
      {
        "astId": 24,
        "contract": "contracts/LoanTreasurey.sol:LoanTreasurey",
        "label": "_roles",
        "offset": 0,
        "slot": "0",
        "type": "t_mapping(t_bytes32,t_struct(RoleData)19_storage)"
      },
      {
        "astId": 24418,
        "contract": "contracts/LoanTreasurey.sol:LoanTreasurey",
        "label": "_loanContract",
        "offset": 0,
        "slot": "1",
        "type": "t_contract(ILoanContract)25826"
      },
      {
        "astId": 24421,
        "contract": "contracts/LoanTreasurey.sol:LoanTreasurey",
        "label": "_loanCodec",
        "offset": 0,
        "slot": "2",
        "type": "t_contract(ILoanCodec)25701"
      },
      {
        "astId": 24424,
        "contract": "contracts/LoanTreasurey.sol:LoanTreasurey",
        "label": "_loanManager",
        "offset": 0,
        "slot": "3",
        "type": "t_contract(ILoanManager)25882"
      },
      {
        "astId": 24427,
        "contract": "contracts/LoanTreasurey.sol:LoanTreasurey",
        "label": "_loanCollateralVault",
        "offset": 0,
        "slot": "4",
        "type": "t_contract(ICollateralVault)25599"
      },
      {
        "astId": 24430,
        "contract": "contracts/LoanTreasurey.sol:LoanTreasurey",
        "label": "_anzaToken",
        "offset": 0,
        "slot": "5",
        "type": "t_contract(IAnzaToken)25516"
      },
      {
        "astId": 4064,
        "contract": "contracts/LoanTreasurey.sol:LoanTreasurey",
        "label": "_status",
        "offset": 0,
        "slot": "6",
        "type": "t_uint256"
      },
      {
        "astId": 15692,
        "contract": "contracts/LoanTreasurey.sol:LoanTreasurey",
        "label": "poolBalance",
        "offset": 0,
        "slot": "7",
        "type": "t_uint256"
      },
      {
        "astId": 15696,
        "contract": "contracts/LoanTreasurey.sol:LoanTreasurey",
        "label": "withdrawableBalance",
        "offset": 0,
        "slot": "8",
        "type": "t_mapping(t_address,t_uint256)"
      }
    ],
    "types": {
      "t_address": {
        "encoding": "inplace",
        "label": "address",
        "numberOfBytes": "20"
      },
      "t_bool": {
        "encoding": "inplace",
        "label": "bool",
        "numberOfBytes": "1"
      },
      "t_bytes32": {
        "encoding": "inplace",
        "label": "bytes32",
        "numberOfBytes": "32"
      },
      "t_contract(IAnzaToken)25516": {
        "encoding": "inplace",
        "label": "contract IAnzaToken",
        "numberOfBytes": "20"
      },
      "t_contract(ICollateralVault)25599": {
        "encoding": "inplace",
        "label": "contract ICollateralVault",
        "numberOfBytes": "20"
      },
      "t_contract(ILoanCodec)25701": {
        "encoding": "inplace",
        "label": "contract ILoanCodec",
        "numberOfBytes": "20"
      },
      "t_contract(ILoanContract)25826": {
        "encoding": "inplace",
        "label": "contract ILoanContract",
        "numberOfBytes": "20"
      },
      "t_contract(ILoanManager)25882": {
        "encoding": "inplace",
        "label": "contract ILoanManager",
        "numberOfBytes": "20"
      },
      "t_mapping(t_address,t_bool)": {
        "encoding": "mapping",
        "key": "t_address",
        "label": "mapping(address => bool)",
        "numberOfBytes": "32",
        "value": "t_bool"
      },
      "t_mapping(t_address,t_uint256)": {
        "encoding": "mapping",
        "key": "t_address",
        "label": "mapping(address => uint256)",
        "numberOfBytes": "32",
        "value": "t_uint256"
      },
      "t_mapping(t_bytes32,t_struct(RoleData)19_storage)": {
        "encoding": "mapping",
        "key": "t_bytes32",
        "label": "mapping(bytes32 => struct AccessControl.RoleData)",
        "numberOfBytes": "32",
        "value": "t_struct(RoleData)19_storage"
      },
      "t_struct(RoleData)19_storage": {
        "encoding": "inplace",
        "label": "struct AccessControl.RoleData",
        "members": [
          {
            "astId": 16,
            "contract": "contracts/LoanTreasurey.sol:LoanTreasurey",
            "label": "members",
            "offset": 0,
            "slot": "0",
            "type": "t_mapping(t_address,t_bool)"
          },
          {
            "astId": 18,
            "contract": "contracts/LoanTreasurey.sol:LoanTreasurey",
            "label": "adminRole",
            "offset": 0,
            "slot": "1",
            "type": "t_bytes32"
          }
        ],
        "numberOfBytes": "64"
      },
      "t_uint256": {
        "encoding": "inplace",
        "label": "uint256",
        "numberOfBytes": "32"
      }
    }
  }
}