{
  "address": "0x610178dA211FEF7D417bC0e6FeD39F05609AD788",
  "abi": [
    {
      "inputs": [],
      "stateMutability": "nonpayable",
      "type": "constructor"
    },
    {
      "inputs": [],
      "name": "ExceededRefinanceLimit",
      "type": "error"
    },
    {
      "inputs": [],
      "name": "FailedFundsTransfer",
      "type": "error"
    },
    {
      "inputs": [],
      "name": "InactiveLoanState",
      "type": "error"
    },
    {
      "inputs": [],
      "name": "InvalidCollateral",
      "type": "error"
    },
    {
      "inputs": [
        {
          "internalType": "bytes4",
          "name": "parameter",
          "type": "bytes4"
        }
      ],
      "name": "InvalidLoanParameter",
      "type": "error"
    },
    {
      "inputs": [],
      "name": "InvalidParticipant",
      "type": "error"
    },
    {
      "anonymous": false,
      "inputs": [
        {
          "indexed": true,
          "internalType": "uint256",
          "name": "debtId",
          "type": "uint256"
        },
        {
          "indexed": true,
          "internalType": "address",
          "name": "newBorrower",
          "type": "address"
        },
        {
          "indexed": true,
          "internalType": "address",
          "name": "oldBorrower",
          "type": "address"
        }
      ],
      "name": "LoanBorrowerChanged",
      "type": "event"
    },
    {
      "anonymous": false,
      "inputs": [
        {
          "indexed": true,
          "internalType": "address",
          "name": "collateralAddress",
          "type": "address"
        },
        {
          "indexed": true,
          "internalType": "uint256",
          "name": "collateralId",
          "type": "uint256"
        },
        {
          "indexed": true,
          "internalType": "uint256",
          "name": "debtId",
          "type": "uint256"
        },
        {
          "indexed": false,
          "internalType": "uint256",
          "name": "activeLoanIndex",
          "type": "uint256"
        }
      ],
      "name": "LoanContractInitialized",
      "type": "event"
    },
    {
      "anonymous": false,
      "inputs": [
        {
          "indexed": true,
          "internalType": "uint256",
          "name": "debtId",
          "type": "uint256"
        },
        {
          "indexed": true,
          "internalType": "uint8",
          "name": "newLoanState",
          "type": "uint8"
        },
        {
          "indexed": true,
          "internalType": "uint8",
          "name": "oldLoanState",
          "type": "uint8"
        }
      ],
      "name": "LoanStateChanged",
      "type": "event"
    },
    {
      "anonymous": false,
      "inputs": [
        {
          "indexed": true,
          "internalType": "address",
          "name": "borrower",
          "type": "address"
        },
        {
          "indexed": true,
          "internalType": "bytes32",
          "name": "hashedTerms",
          "type": "bytes32"
        }
      ],
      "name": "LoanTermsReinstated",
      "type": "event"
    },
    {
      "anonymous": false,
      "inputs": [
        {
          "indexed": true,
          "internalType": "address",
          "name": "borrower",
          "type": "address"
        },
        {
          "indexed": true,
          "internalType": "bytes32",
          "name": "hashedTerms",
          "type": "bytes32"
        }
      ],
      "name": "LoanTermsRevoked",
      "type": "event"
    },
    {
      "anonymous": false,
      "inputs": [
        {
          "indexed": true,
          "internalType": "uint256",
          "name": "debtId",
          "type": "uint256"
        },
        {
          "indexed": true,
          "internalType": "address",
          "name": "borrower",
          "type": "address"
        },
        {
          "indexed": true,
          "internalType": "address",
          "name": "lender",
          "type": "address"
        },
        {
          "indexed": false,
          "internalType": "uint256",
          "name": "amount",
          "type": "uint256"
        }
      ],
      "name": "PaymentSubmitted",
      "type": "event"
    },
    {
      "anonymous": false,
      "inputs": [
        {
          "indexed": true,
          "internalType": "bytes32",
          "name": "role",
          "type": "bytes32"
        },
        {
          "indexed": true,
          "internalType": "bytes32",
          "name": "previousAdminRole",
          "type": "bytes32"
        },
        {
          "indexed": true,
          "internalType": "bytes32",
          "name": "newAdminRole",
          "type": "bytes32"
        }
      ],
      "name": "RoleAdminChanged",
      "type": "event"
    },
    {
      "anonymous": false,
      "inputs": [
        {
          "indexed": true,
          "internalType": "bytes32",
          "name": "role",
          "type": "bytes32"
        },
        {
          "indexed": true,
          "internalType": "address",
          "name": "account",
          "type": "address"
        },
        {
          "indexed": true,
          "internalType": "address",
          "name": "sender",
          "type": "address"
        }
      ],
      "name": "RoleGranted",
      "type": "event"
    },
    {
      "anonymous": false,
      "inputs": [
        {
          "indexed": true,
          "internalType": "bytes32",
          "name": "role",
          "type": "bytes32"
        },
        {
          "indexed": true,
          "internalType": "address",
          "name": "account",
          "type": "address"
        },
        {
          "indexed": true,
          "internalType": "address",
          "name": "sender",
          "type": "address"
        }
      ],
      "name": "RoleRevoked",
      "type": "event"
    },
    {
      "inputs": [],
      "name": "DEFAULT_ADMIN_ROLE",
      "outputs": [
        {
          "internalType": "bytes32",
          "name": "",
          "type": "bytes32"
        }
      ],
      "stateMutability": "view",
      "type": "function"
    },
    {
      "inputs": [
        {
          "internalType": "uint256",
          "name": "_debtId",
          "type": "uint256"
        }
      ],
      "name": "activeLoanCount",
      "outputs": [
        {
          "internalType": "uint256",
          "name": "_activeLoanCount",
          "type": "uint256"
        }
      ],
      "stateMutability": "view",
      "type": "function"
    },
    {
      "inputs": [],
      "name": "anzaToken",
      "outputs": [
        {
          "internalType": "address",
          "name": "",
          "type": "address"
        }
      ],
      "stateMutability": "view",
      "type": "function"
    },
    {
      "inputs": [
        {
          "internalType": "uint256",
          "name": "_debtId",
          "type": "uint256"
        }
      ],
      "name": "checkLoanActive",
      "outputs": [
        {
          "internalType": "bool",
          "name": "",
          "type": "bool"
        }
      ],
      "stateMutability": "view",
      "type": "function"
    },
    {
      "inputs": [
        {
          "internalType": "uint256",
          "name": "_debtId",
          "type": "uint256"
        }
      ],
      "name": "checkLoanDefault",
      "outputs": [
        {
          "internalType": "bool",
          "name": "",
          "type": "bool"
        }
      ],
      "stateMutability": "view",
      "type": "function"
    },
    {
      "inputs": [
        {
          "internalType": "uint256",
          "name": "_debtId",
          "type": "uint256"
        }
      ],
      "name": "checkLoanExpired",
      "outputs": [
        {
          "internalType": "bool",
          "name": "",
          "type": "bool"
        }
      ],
      "stateMutability": "view",
      "type": "function"
    },
    {
      "inputs": [
        {
          "internalType": "address",
          "name": "_borrower",
          "type": "address"
        },
        {
          "internalType": "bytes32",
          "name": "_hashedTerms",
          "type": "bytes32"
        }
      ],
      "name": "checkTermsRevoked",
      "outputs": [
        {
          "internalType": "bool",
          "name": "",
          "type": "bool"
        }
      ],
      "stateMutability": "view",
      "type": "function"
    },
    {
      "inputs": [],
      "name": "collateralVault",
      "outputs": [
        {
          "internalType": "address",
          "name": "",
          "type": "address"
        }
      ],
      "stateMutability": "view",
      "type": "function"
    },
    {
      "inputs": [
        {
          "internalType": "uint256",
          "name": "_debtId",
          "type": "uint256"
        }
      ],
      "name": "debtBalanceOf",
      "outputs": [
        {
          "internalType": "uint256",
          "name": "",
          "type": "uint256"
        }
      ],
      "stateMutability": "view",
      "type": "function"
    },
    {
      "inputs": [
        {
          "internalType": "uint256",
          "name": "_childDebtId",
          "type": "uint256"
        }
      ],
      "name": "debtIdBranch",
      "outputs": [
        {
          "internalType": "uint256",
          "name": "debtId",
          "type": "uint256"
        },
        {
          "internalType": "uint256",
          "name": "collateralNonce",
          "type": "uint256"
        },
        {
          "internalType": "uint256",
          "name": "activeLoanIndex",
          "type": "uint256"
        }
      ],
      "stateMutability": "view",
      "type": "function"
    },
    {
      "inputs": [
        {
          "internalType": "address",
          "name": "_collateralAddress",
          "type": "address"
        },
        {
          "internalType": "uint256",
          "name": "_collateralId",
          "type": "uint256"
        }
      ],
      "name": "debts",
      "outputs": [
        {
          "internalType": "uint256",
          "name": "debtId",
          "type": "uint256"
        },
        {
          "internalType": "uint256",
          "name": "collateralNonce",
          "type": "uint256"
        },
        {
          "internalType": "uint256",
          "name": "activeLoanIndex",
          "type": "uint256"
        }
      ],
      "stateMutability": "view",
      "type": "function"
    },
    {
      "inputs": [
        {
          "internalType": "uint256",
          "name": "_debtId",
          "type": "uint256"
        }
      ],
      "name": "firInterval",
      "outputs": [
        {
          "internalType": "uint256",
          "name": "_firInterval",
          "type": "uint256"
        }
      ],
      "stateMutability": "view",
      "type": "function"
    },
    {
      "inputs": [
        {
          "internalType": "uint256",
          "name": "_debtId",
          "type": "uint256"
        }
      ],
      "name": "fixedInterestRate",
      "outputs": [
        {
          "internalType": "uint256",
          "name": "_fixedInterestRate",
          "type": "uint256"
        }
      ],
      "stateMutability": "view",
      "type": "function"
    },
    {
      "inputs": [
        {
          "internalType": "address",
          "name": "_collateralAddress",
          "type": "address"
        },
        {
          "internalType": "uint256",
          "name": "_collateralId",
          "type": "uint256"
        }
      ],
      "name": "getCollateralDebtId",
      "outputs": [
        {
          "internalType": "uint256",
          "name": "",
          "type": "uint256"
        }
      ],
      "stateMutability": "view",
      "type": "function"
    },
    {
      "inputs": [
        {
          "internalType": "address",
          "name": "_collateralAddress",
          "type": "address"
        },
        {
          "internalType": "uint256",
          "name": "_collateralId",
          "type": "uint256"
        }
      ],
      "name": "getCollateralNonce",
      "outputs": [
        {
          "internalType": "uint256",
          "name": "",
          "type": "uint256"
        }
      ],
      "stateMutability": "view",
      "type": "function"
    },
    {
      "inputs": [
        {
          "internalType": "uint256",
          "name": "_debtId",
          "type": "uint256"
        }
      ],
      "name": "getDebtTerms",
      "outputs": [
        {
          "internalType": "bytes32",
          "name": "",
          "type": "bytes32"
        }
      ],
      "stateMutability": "view",
      "type": "function"
    },
    {
      "inputs": [
        {
          "internalType": "bytes32",
          "name": "role",
          "type": "bytes32"
        }
      ],
      "name": "getRoleAdmin",
      "outputs": [
        {
          "internalType": "bytes32",
          "name": "",
          "type": "bytes32"
        }
      ],
      "stateMutability": "view",
      "type": "function"
    },
    {
      "inputs": [
        {
          "internalType": "bytes32",
          "name": "role",
          "type": "bytes32"
        },
        {
          "internalType": "address",
          "name": "account",
          "type": "address"
        }
      ],
      "name": "grantRole",
      "outputs": [],
      "stateMutability": "nonpayable",
      "type": "function"
    },
    {
      "inputs": [
        {
          "internalType": "bytes32",
          "name": "role",
          "type": "bytes32"
        },
        {
          "internalType": "address",
          "name": "account",
          "type": "address"
        }
      ],
      "name": "hasRole",
      "outputs": [
        {
          "internalType": "bool",
          "name": "",
          "type": "bool"
        }
      ],
      "stateMutability": "view",
      "type": "function"
    },
    {
      "inputs": [
        {
          "internalType": "bytes32",
          "name": "_contractTerms",
          "type": "bytes32"
        },
        {
          "internalType": "address",
          "name": "_collateralAddress",
          "type": "address"
        },
        {
          "internalType": "uint256",
          "name": "_collateralId",
          "type": "uint256"
        },
        {
          "internalType": "bytes",
          "name": "_borrowerSignature",
          "type": "bytes"
        }
      ],
      "name": "initLoanContract",
      "outputs": [],
      "stateMutability": "payable",
      "type": "function"
    },
    {
      "inputs": [
        {
          "internalType": "bytes32",
          "name": "_contractTerms",
          "type": "bytes32"
        },
        {
          "internalType": "uint256",
          "name": "_debtId",
          "type": "uint256"
        },
        {
          "internalType": "bytes",
          "name": "_borrowerSignature",
          "type": "bytes"
        }
      ],
      "name": "initLoanContract",
      "outputs": [],
      "stateMutability": "payable",
      "type": "function"
    },
    {
      "inputs": [
        {
          "internalType": "uint256",
          "name": "_debtId",
          "type": "uint256"
        }
      ],
      "name": "isFixed",
      "outputs": [
        {
          "internalType": "uint256",
          "name": "_isFixed",
          "type": "uint256"
        }
      ],
      "stateMutability": "view",
      "type": "function"
    },
    {
      "inputs": [
        {
          "internalType": "uint256",
          "name": "_debtId",
          "type": "uint256"
        }
      ],
      "name": "lenderRoyalties",
      "outputs": [
        {
          "internalType": "uint256",
          "name": "_lenderRoyalties",
          "type": "uint256"
        }
      ],
      "stateMutability": "view",
      "type": "function"
    },
    {
      "inputs": [
        {
          "internalType": "uint256",
          "name": "_debtId",
          "type": "uint256"
        }
      ],
      "name": "loanClose",
      "outputs": [
        {
          "internalType": "uint256",
          "name": "_loanClose",
          "type": "uint256"
        }
      ],
      "stateMutability": "view",
      "type": "function"
    },
    {
      "inputs": [
        {
          "internalType": "uint256",
          "name": "_debtId",
          "type": "uint256"
        }
      ],
      "name": "loanCommital",
      "outputs": [
        {
          "internalType": "uint256",
          "name": "_loanCommital",
          "type": "uint256"
        }
      ],
      "stateMutability": "view",
      "type": "function"
    },
    {
      "inputs": [
        {
          "internalType": "uint256",
          "name": "_debtId",
          "type": "uint256"
        }
      ],
      "name": "loanDuration",
      "outputs": [
        {
          "internalType": "uint256",
          "name": "_loanDuration",
          "type": "uint256"
        }
      ],
      "stateMutability": "view",
      "type": "function"
    },
    {
      "inputs": [
        {
          "internalType": "uint256",
          "name": "_debtId",
          "type": "uint256"
        }
      ],
      "name": "loanLastChecked",
      "outputs": [
        {
          "internalType": "uint256",
          "name": "",
          "type": "uint256"
        }
      ],
      "stateMutability": "view",
      "type": "function"
    },
    {
      "inputs": [
        {
          "internalType": "uint256",
          "name": "_debtId",
          "type": "uint256"
        }
      ],
      "name": "loanStart",
      "outputs": [
        {
          "internalType": "uint256",
          "name": "_loanStart",
          "type": "uint256"
        }
      ],
      "stateMutability": "view",
      "type": "function"
    },
    {
      "inputs": [
        {
          "internalType": "uint256",
          "name": "_debtId",
          "type": "uint256"
        }
      ],
      "name": "loanState",
      "outputs": [
        {
          "internalType": "uint256",
          "name": "_loanState",
          "type": "uint256"
        }
      ],
      "stateMutability": "view",
      "type": "function"
    },
    {
      "inputs": [],
      "name": "loanTreasurer",
      "outputs": [
        {
          "internalType": "address",
          "name": "",
          "type": "address"
        }
      ],
      "stateMutability": "view",
      "type": "function"
    },
    {
      "inputs": [],
      "name": "maxRefinances",
      "outputs": [
        {
          "internalType": "uint256",
          "name": "",
          "type": "uint256"
        }
      ],
      "stateMutability": "view",
      "type": "function"
    },
    {
      "inputs": [
        {
          "internalType": "uint256",
          "name": "_debtId",
          "type": "uint256"
        }
      ],
      "name": "mintReplica",
      "outputs": [],
      "stateMutability": "nonpayable",
      "type": "function"
    },
    {
      "inputs": [
        {
          "internalType": "bytes32",
          "name": "_hashedTerms",
          "type": "bytes32"
        }
      ],
      "name": "reinstateTerms",
      "outputs": [],
      "stateMutability": "nonpayable",
      "type": "function"
    },
    {
      "inputs": [
        {
          "internalType": "bytes32",
          "name": "role",
          "type": "bytes32"
        },
        {
          "internalType": "address",
          "name": "account",
          "type": "address"
        }
      ],
      "name": "renounceRole",
      "outputs": [],
      "stateMutability": "nonpayable",
      "type": "function"
    },
    {
      "inputs": [
        {
          "internalType": "bytes32",
          "name": "role",
          "type": "bytes32"
        },
        {
          "internalType": "address",
          "name": "account",
          "type": "address"
        }
      ],
      "name": "revokeRole",
      "outputs": [],
      "stateMutability": "nonpayable",
      "type": "function"
    },
    {
      "inputs": [
        {
          "internalType": "bytes32",
          "name": "_hashedTerms",
          "type": "bytes32"
        }
      ],
      "name": "revokeTerms",
      "outputs": [],
      "stateMutability": "nonpayable",
      "type": "function"
    },
    {
      "inputs": [
        {
          "internalType": "address",
          "name": "_anzaTokenAddress",
          "type": "address"
        }
      ],
      "name": "setAnzaToken",
      "outputs": [],
      "stateMutability": "nonpayable",
      "type": "function"
    },
    {
      "inputs": [
        {
          "internalType": "address",
          "name": "_collateralVaultAddress",
          "type": "address"
        }
      ],
      "name": "setCollateralVault",
      "outputs": [],
      "stateMutability": "nonpayable",
      "type": "function"
    },
    {
      "inputs": [
        {
          "internalType": "address",
          "name": "_loanTreasurerAddress",
          "type": "address"
        }
      ],
      "name": "setLoanTreasurer",
      "outputs": [],
      "stateMutability": "nonpayable",
      "type": "function"
    },
    {
      "inputs": [
        {
          "internalType": "uint256",
          "name": "_maxRefinances",
          "type": "uint256"
        }
      ],
      "name": "setMaxRefinances",
      "outputs": [],
      "stateMutability": "nonpayable",
      "type": "function"
    },
    {
      "inputs": [
        {
          "internalType": "bytes4",
          "name": "_interfaceId",
          "type": "bytes4"
        }
      ],
      "name": "supportsInterface",
      "outputs": [
        {
          "internalType": "bool",
          "name": "",
          "type": "bool"
        }
      ],
      "stateMutability": "view",
      "type": "function"
    },
    {
      "inputs": [],
      "name": "totalDebts",
      "outputs": [
        {
          "internalType": "uint256",
          "name": "",
          "type": "uint256"
        }
      ],
      "stateMutability": "view",
      "type": "function"
    },
    {
      "inputs": [
        {
          "internalType": "uint256",
          "name": "_debtId",
          "type": "uint256"
        },
        {
          "internalType": "uint256",
          "name": "_seconds",
          "type": "uint256"
        }
      ],
      "name": "totalFirIntervals",
      "outputs": [
        {
          "internalType": "uint256",
          "name": "",
          "type": "uint256"
        }
      ],
      "stateMutability": "view",
      "type": "function"
    },
    {
      "inputs": [
        {
          "internalType": "uint256",
          "name": "_debtId",
          "type": "uint256"
        }
      ],
      "name": "updateLoanState",
      "outputs": [],
      "stateMutability": "nonpayable",
      "type": "function"
    },
    {
      "inputs": [
        {
          "internalType": "uint256",
          "name": "_debtId",
          "type": "uint256"
        }
      ],
      "name": "verifyLoanActive",
      "outputs": [],
      "stateMutability": "view",
      "type": "function"
    }
  ],
  "transactionHash": "0xbed89e2e637cee2e30706abf12255dc1b2d80ac6566ced4c63ca12196207cbce",
  "args": [],
  "numDeployments": 1,
  "solcInputHash": "6026b98393f52c3678e3a85d9b556f4c",
  "bytecode": "0x60806040526107d860055534801562000016575f80fd5b50620000315f8051602062002e608339815191528062000079565b620000595f8051602062002e408339815191525f8051602062002e6083398151915262000079565b620000735f8051602062002e6083398151915233620000c5565b62000261565b5f828152600160208190526040808320909101805490849055905190918391839186917fbd79b86ffe0ab8e8776151514217cd7cacd52c909f66475c3af44e129f0b00ff9190a4505050565b5f8051602062002e408339815191528214620000eb57620000e78282620000f6565b5050565b620000e7816200017c565b5f8281526001602090815260408083206001600160a01b038516845290915290205460ff16620000e7575f8281526001602081815260408084206001600160a01b0386168086529252808420805460ff19169093179092559051339285917f2f8788117e7eff1d82e926ec794901d17c78024a50270940304540a733656f0d9190a45050565b600354620001a3905f8051602062002e40833981519152906001600160a01b0316620001df565b620001bd5f8051602062002e4083398151915282620000f6565b600380546001600160a01b0319166001600160a01b0392909216919091179055565b5f8281526001602090815260408083206001600160a01b038516845290915290205460ff1615620000e7575f8281526001602090815260408083206001600160a01b0385168085529252808320805460ff1916905551339285917ff6391f5c32d9c69d2a47ea670b442974b53935d1edc7fd64eb21e047a839171b9190a45050565b612bd1806200026f5f395ff3fe608060405260043610610268575f3560e01c806356f9654b1161014a57806390d17f11116100be578063a796d4df11610078578063a796d4df1461085c578063a9b002031461087b578063ca54f8641461089a578063d547741f146108b9578063daece59c146108d8578063e8627e241461091c575f80fd5b806390d17f111461079c57806391d14854146107bb5780639f590b7b146107da578063a0f1e1fb146107f9578063a217fddf1461082a578063a3991cf21461083d575f80fd5b80637afb41411161010f5780637afb4141146106d457806386121de0146106e757806389ac88bf146107185780638d40b28c146107375780638fd478151461076857806390c2bd2214610787575f80fd5b806356f9654b146105f157806367c2e33f1461061057806368a806c41461062f5780636f81a8011461064e57806375cf559914610693575f80fd5b80631fd3ca77116101e1578063363cec32116101a6578063363cec321461050357806336568abe146105345780633cf35c7a14610553578063427069891461058757806342fbcce8146105a457806349b274ed146105c3575f80fd5b80631fd3ca7714610452578063248a9ca31461047157806328e04ddc146104a05780632f2ff15d146104b35780633255c49b146104d2575f80fd5b80630bece79c116102325780630bece79c1461038157806314a1c32d146103b2578063188e4681146103c75780631d130cd6146103e45780631dcd2d79146104055780631ec4242d14610433575f80fd5b806278eec61461026c578062d32e8c146102c657806301ffc9a7146102ff5780630888b6d01461032e5780630aaaf43d1461034d575b5f80fd5b348015610277575f80fd5b506102a6610286366004612560565b60096020525f908152604090208054600182015460029092015490919083565b604080519384526020840192909252908201526060015b60405180910390f35b3480156102d1575f80fd5b506102f16102e0366004612560565b5f9081526020819052604090205490565b6040519081526020016102bd565b34801561030a575f80fd5b5061031e610319366004612577565b61093b565b60405190151581526020016102bd565b348015610339575f80fd5b506102f1610348366004612560565b61099b565b348015610358575f80fd5b506102f1610367366004612560565b5f9081526020819052604090205460101c63ffffffff1690565b34801561038c575f80fd5b506002546001600160a01b03165b6040516001600160a01b0390911681526020016102bd565b3480156103bd575f80fd5b506102f160075481565b3480156103d2575f80fd5b506004546001600160a01b031661039a565b3480156103ef575f80fd5b506104036103fe366004612560565b610a16565b005b348015610410575f80fd5b506102f161041f366004612560565b5f9081526020819052604090205460f81c90565b34801561043e575f80fd5b5061040361044d366004612560565b610c5a565b34801561045d575f80fd5b5061031e61046c366004612560565b610ca9565b34801561047c575f80fd5b506102f161048b366004612560565b5f908152600160208190526040909120015490565b6104036104ae3660046125f7565b610ce3565b3480156104be575f80fd5b506104036104cd36600461265c565b6110f4565b3480156104dd575f80fd5b506102f16104ec366004612560565b5f9081526020819052604090205460501c600f1690565b34801561050e575f80fd5b506102f161051d366004612560565b5f9081526020819052604090205460041c600f1690565b34801561053f575f80fd5b5061040361054e36600461265c565b61111e565b34801561055e575f80fd5b506102f161056d366004612560565b5f9081526020819052604090205460301c63ffffffff1690565b348015610592575f80fd5b506003546001600160a01b031661039a565b3480156105af575f80fd5b506104036105be36600461268a565b61119d565b3480156105ce575f80fd5b506102f16105dd366004612560565b5f90815260208190526040902054600f1690565b3480156105fc575f80fd5b5061040361060b366004612560565b6111bd565b34801561061b575f80fd5b5061031e61062a366004612560565b6111e6565b34801561063a575f80fd5b5061040361064936600461268a565b611275565b348015610659575f80fd5b506102a66106683660046126a5565b600860209081525f928352604080842090915290825290208054600182015460029092015490919083565b34801561069e575f80fd5b506102f16106ad3660046126a5565b6001600160a01b03919091165f908152600860209081526040808320938352929052205490565b6104036106e23660046126cf565b6112af565b3480156106f2575f80fd5b506102f1610701366004612560565b5f9081526020819052604090205460f01c60ff1690565b348015610723575f80fd5b50610403610732366004612560565b6117be565b348015610742575f80fd5b506102f1610751366004612560565b5f9081526020819052604090205460081c60ff1690565b348015610773575f80fd5b506102f16107823660046126a5565b6117ef565b348015610792575f80fd5b506102f160055481565b3480156107a7575f80fd5b506104036107b636600461268a565b611827565b3480156107c6575f80fd5b5061031e6107d536600461265c565b611861565b3480156107e5575f80fd5b506102f16107f436600461271e565b61188b565b348015610804575f80fd5b506102f1610813366004612560565b5f9081526020819052604090205460541c60ff1690565b348015610835575f80fd5b506102f15f81565b348015610848575f80fd5b506102f1610857366004612560565b6118d0565b348015610867575f80fd5b506102f1610876366004612560565b6118fb565b348015610886575f80fd5b50610403610895366004612560565b611917565b3480156108a5575f80fd5b506104036108b4366004612560565b611963565b3480156108c4575f80fd5b506104036108d336600461265c565b611a01565b3480156108e3575f80fd5b5061031e6108f23660046126a5565b6001600160a01b03919091165f908152600660209081526040808320938352929052205460ff1690565b348015610927575f80fd5b5061031e610936366004612560565b611a26565b5f635be1e2f560e11b6001600160e01b03198316148061096b5750634a23979d60e01b6001600160e01b03198316145b80610986575063f83e032d60e01b6001600160e01b03198316145b80610995575061099582611a5c565b92915050565b6004545f906001600160a01b031663bd85b0396109b9846002612752565b6040518263ffffffff1660e01b81526004016109d791815260200190565b602060405180830381865afa1580156109f2573d5f803e3d5ffd5b505050506040513d601f19601f820116820180604052508101906109959190612769565b5f80516020612b5c833981519152610a2d81611a90565b610a3682611a26565b610a8657610a6d60405180604001604052806011815260200170496e616374697665206c6f616e3a20257360781b81525083611a9a565b6040516390f54c8560e01b815260040160405180910390fd5b610a8f826111e6565b15610ae057610ac86040518060400160405280601281526020017144656661756c746564206c6f616e3a20257360701b81525083611a9a565b610ad182611adf565b610adc826007611b77565b5050565b6004545f906001600160a01b031663bd85b039610afe856002612752565b6040518263ffffffff1660e01b8152600401610b1c91815260200190565b602060405180830381865afa158015610b37573d5f803e3d5ffd5b505050506040513d601f19601f82011682018060405250810190610b5b9190612769565b11610b9a57610b8f6040518060400160405280600d81526020016c50616964206c6f616e3a20257360981b81525083611a9a565b610adc82600d611b77565b5f82815260208190526040902054600690600f1603610bed57610be46040518060400160405280600f81526020016e416374697665206c6f616e3a20257360881b81525083611a9a565b610adc82611adf565b610c11825f81815260208190526040812054429060101c63ffffffff161192915050565b610adc57610c4f60405180604001604052806018815260200177477261636520706572696f6420657870697265643a20257360401b81525083611a9a565b610be4826006611b77565b335f818152600660209081526040808320858452909152808220805460ff19166001179055518392917f642abefd8ba8508271dc240574875c4b7af73ff6b2a5c0cc6ba41e8b86b6375c91a350565b5f81815260208190526040812054600790600f161015801561099557505f82815260208190526040902054600a90600f165b111592915050565b5f610ced42611be7565b905034610cfb878383611c4f565b6040516331a9108f60e11b81526004810186905286905f906001600160a01b03831690636352211e90602401602060405180830381865afa158015610d42573d5f803e3d5ffd5b505050506040513d601f19601f82011682018060405250810190610d669190612780565b6001600160a01b0389165f9081526008602090815260408083208b84529091528120600780549394509092909190610d9d9061279b565b919050819055815f0181905550610e02848b8b8b856001015f8154610dc19061279b565b9190508190558c8c8080601f0160208091040260200160405190810160405280939291908181526020018383808284375f92019190915250611e5392505050565b6001600160a01b0316826001600160a01b0316141580610e2a57506001600160a01b03821633145b15610e48576040516350a2e21f60e11b815260040160405180910390fd5b610e53855f8c611f73565b826001600160a01b031663b88d4fde8360025f9054906101000a90046001600160a01b03168b600754604051602001610e8e91815260200190565b6040516020818303038152906040526040518563ffffffff1660e01b8152600401610ebc9493929190612800565b5f604051808303815f87803b158015610ed3575f80fd5b505af1158015610ee5573d5f803e3d5ffd5b50506003546040516001600160a01b0386811660248301525f94509091169150869060440160408051601f198184030181529181526020820180516001600160e01b031663919747fb60e01b17905251610f3f919061283c565b5f6040518083038185875af1925050503d805f8114610f79576040519150601f19603f3d011682016040523d82523d5f602084013e610f7e565b606091505b5050905080610fa05760405163176bfe0760e11b815260040160405180910390fd5b6004546007546001600160a01b039091169063a4b645eb903390610fc5906002612752565b60405163c87b56dd60e01b8152600481018e905289906001600160a01b038a169063c87b56dd906024015f60405180830381865afa158015611009573d5f803e3d5ffd5b505050506040513d5f823e601f3d908101601f19168201604052611030919081019061286b565b600754604051611044918b91602001612913565b6040516020818303038152906040526040518663ffffffff1660e01b8152600401611073959493929190612935565b5f604051808303815f87803b15801561108a575f80fd5b505af115801561109c573d5f803e3d5ffd5b50505050600754898b6001600160a01b03167f4929ac7ab6cc744fb93574c8b1e020e958956a560825577596e1f098760b54725f6040516110df91815260200190565b60405180910390a45050505050505050505050565b5f828152600160208190526040909120015461110f81611a90565b6111198383611fa4565b505050565b6001600160a01b03811633146111935760405162461bcd60e51b815260206004820152602f60248201527f416363657373436f6e74726f6c3a2063616e206f6e6c792072656e6f756e636560448201526e103937b632b9903337b91039b2b63360891b60648201526084015b60405180910390fd5b610adc8282611fcb565b5f80516020612b7c8339815191526111b481611a90565b610adc82612031565b6111c681611a26565b6111e3576040516390f54c8560e01b815260040160405180910390fd5b50565b6004545f9081906001600160a01b031663bd85b039611206856002612752565b6040518263ffffffff1660e01b815260040161122491815260200190565b602060405180830381865afa15801561123f573d5f803e3d5ffd5b505050506040513d601f19601f820116820180604052508101906112639190612769565b118015610995575042610cdb836118d0565b5f80516020612b7c83398151915261128c81611a90565b50600280546001600160a01b0319166001600160a01b0392909216919091179055565b6112b883610ca9565b156112d6576040516368f7a67560e11b815260040160405180910390fd5b5f6112e042611be7565b9050346112ee868383611c4f565b6002546040516302a62a4960e41b8152600481018790526001600160a01b03909116905f908290632a62a49090602401606060405180830381865afa158015611339573d5f803e3d5ffd5b505050506040513d601f19601f8201168201806040525081019061135d9190612993565b80516001600160a01b03165f908152600860209081526040808320828501518452825280832080548085526009909352908320918255600180820154908301556002808201549201919091556007805493945090929091906113be9061279b565b918290555081556002810180545f906113d69061279b565b919050819055505f61143d858b855f01518660200151866001015f81546113fc9061279b565b9190508190558d8d8080601f0160208091040260200160405190810160405280939291908181526020018383808284375f92019190915250611e5392505050565b6004805460405163163be8c160e11b81526001600160a01b0380851693820193909352602481018d90529293501690632c77d18290604401602060405180830381865afa158015611490573d5f803e3d5ffd5b505050506040513d601f19601f820116820180604052508101906114b491906129f8565b15806114c857506001600160a01b03811633145b156114e6576040516350a2e21f60e11b815260040160405180910390fd5b6114f58683600201548c611f73565b82516020840151600754604051639fea3e0760e01b81526001600160a01b0393841660048201526024810192909252604482015290851690639fea3e07906064015f604051808303815f87803b15801561154d575f80fd5b505af115801561155f573d5f803e3d5ffd5b505050505f61156d8a61099b565b6003549091505f906001600160a01b03168288101561158c578761158e565b825b6040516001600160a01b0386166024820152604481018e905260640160408051601f198184030181529181526020820180516001600160e01b03166386cd0a4760e01b179052516115df919061283c565b5f6040518083038185875af1925050503d805f8114611619576040519150601f19603f3d011682016040523d82523d5f602084013e61161e565b606091505b50509050806116405760405163176bfe0760e11b815260040160405180910390fd5b6004546007546001600160a01b039091169063a4b645eb903390611665906002612752565b885160208a015160405163c87b56dd60e01b815260048101919091528c916001600160a01b03169063c87b56dd906024015f60405180830381865afa1580156116b0573d5f803e3d5ffd5b505050506040513d5f823e601f3d908101601f191682016040526116d7919081019061286b565b6007546040516116eb918b91602001612913565b6040516020818303038152906040526040518663ffffffff1660e01b815260040161171a959493929190612935565b5f604051808303815f87803b158015611731575f80fd5b505af1158015611743573d5f803e3d5ffd5b505050506007548560200151865f01516001600160a01b03167f4929ac7ab6cc744fb93574c8b1e020e958956a560825577596e1f098760b5472876002015460405161179191815260200190565b60405180910390a4600160075f8282546117ab9190612a11565b9091555050505050505050505050505050565b5f80516020612b7c8339815191526117d581611a90565b60ff8211156117e6576107d86117e8565b815b6005555050565b6001600160a01b0382165f908152600860209081526040808320848452909152812060019081015461182091612a11565b9392505050565b5f80516020612b7c83398151915261183e81611a90565b50600480546001600160a01b0319166001600160a01b0392909216919091179055565b5f9182526001602090815260408084206001600160a01b0393909316845291905290205460ff1690565b5f82815260208190526040812054600481901c600f169060301c63ffffffff16808411156118b957806118bb565b835b93506118c7828561208e565b95945050505050565b5f90815260208190526040902054601081901c63ffffffff90811660309290921c8116919091011690565b5f8181526020819052604081205460101c63ffffffff16610995565b335f818152600660209081526040808320858452909152808220805460ff19169055518392917f5f3183bf1fbf3f9aa30f91fa5c2b16851dd6aa63f139d14fd51477b250eb821791a350565b60045433906001600160a01b031663a4b645eb82611982856002612752565b61198d906001612a11565b600185876040516020016119a2929190612913565b6040516020818303038152906040526040518563ffffffff1660e01b81526004016119d09493929190612a24565b5f604051808303815f87803b1580156119e7575f80fd5b505af11580156119f9573d5f803e3d5ffd5b505050505050565b5f8281526001602081905260409091200154611a1c81611a90565b6111198383611fcb565b5f81815260208190526040812054600590600f161015801561099557505f82815260208190526040902054600690600f16610cdb565b5f6001600160e01b03198216637965db0b60e01b148061099557506301ffc9a760e01b6001600160e01b0319831614610995565b6111e38133612167565b610adc8282604051602401611ab0929190612a5d565b60408051601f198184030181529190526020810180516001600160e01b0316632d839cb360e21b1790526121c0565b5f81815260208190526040902054600f81166006811115611afe575f80fd5b50806020528063ffffffff60301b1660301c8165ffffffff00001660101c014281811115611b295750805b602080515f95865290859052604090942063ffffffff60301b1965ffffffff00001990951665ffffffff0000601084901b16189490941663ffffffff60301b9190920360301b161890915550565b5f82815260208190526040902054600f8116828103611b94575f80fd5b5f84815260208190526040808220600f19909416600f861618938490555160ff808416929086169187917f361d0bb4f0b625387fc860030dd8ba1ec262c62d85ec5ded355aa4e43e63296491a450505050565b5f63ffffffff821115611c4b5760405162461bcd60e51b815260206004820152602660248201527f53616665436173743a2076616c756520646f65736e27742066697420696e203360448201526532206269747360d01b606482015260840161118a565b5090565b601f8390525f8051601b85905281516017869052825160138790528351600188905284519488905292939192909187606460ff87161115611cac576040516343f591d960e11b815261118a9063ecc752dd60e01b90600401612a7e565b6105a08563ffffffff161015611cde576040516343f591d960e11b815261118a906319ec869760e21b90600401612a7e565b63ffffffff84161580611cfe575063ffffffff8881168582160184821601115b15611d25576040516343f591d960e11b815261118a9063fcbf851160e01b90600401612a7e565b865f03611d4e576040516343f591d960e11b815261118a90636a90143560e01b90600401612a7e565b600f8160ff161115611d7c576040516343f591d960e11b815261118a90631427d12960e31b90600401612a7e565b732279B7A0a67DB372996a5FaB50D91eAA73d2eBe6636d8866f18884611dab8560ff168963ffffffff1661208e565b6040516001600160e01b031960e086901b168152600481019390935260ff90911660248301526044820152606401602060405180830381865af4925050508015611e12575060408051601f3d908101601f19168201909252611e0f91810190612769565b60015b611e465760ff811615611e41576040516343f591d960e11b815261118a90638fe03ac360e01b90600401612a7e565b611e48565b505b505050505050505050565b6040805160208082018990528183018890526001600160a01b03871660608301526080820186905260a08083018690528351808403909101815260c0830184528051908201207f19457468657265756d205369676e6564204d6573736167653a0a33320000000060e084015260fc808401919091528351808403909101815261011c90920190925280519101205f905f805f611f0186602081015160408201516060909201515f1a92909190565b604080515f81526020810180835289905260ff8516918101919091526060810183905260808101829052929550909350915060019060a0016020604051602081039080840390855afa158015611f59573d5f803e3d5ffd5b5050604051601f1901519c9b505050505050505050505050565b600554821115611f9657604051630c5eb3e760e21b815260040160405180910390fd5b6111198360075484846121e0565b5f80516020612b5c8339815191528214611fc257610adc828261234e565b610adc81612031565b611fd58282611861565b15610adc575f8281526001602090815260408083206001600160a01b0385168085529252808320805460ff1916905551339285917ff6391f5c32d9c69d2a47ea670b442974b53935d1edc7fd64eb21e047a839171b9190a45050565b600354612055905f80516020612b5c833981519152906001600160a01b0316611fcb565b61206c5f80516020612b5c8339815191528261234e565b600380546001600160a01b0319166001600160a01b0392909216919091179055565b5f825f0361209d575080610995565b826001036120b7576120b0603c83612a93565b9050610995565b826002036120cb576120b0610e1083612a93565b826003036120e0576120b06201518083612a93565b826004036120f5576120b062093a8083612a93565b8260050361210a576120b06212750083612a93565b8260060361211f576120b06224ea0083612a93565b82600703612134576120b062375f0083612a93565b82600803612149576120b06249d40083612a93565b82600e0361215f576120b06301da9c0083612a93565b505f92915050565b6121718282611861565b610adc5761217e816123b8565b6121898360206123ca565b60405160200161219a929190612ab2565b60408051601f198184030181529082905262461bcd60e51b825261118a91600401612b20565b80516a636f6e736f6c652e6c6f67602083015f808483855afa5050505050565b5f816001525f518260025260ff5f5116836013525f51846017525f5185601f525f518660041b602052825f81146122235760208051600f19166005189052612231565b60208051600f191660061890525b508460081b61ff001660205161ff00191618602052828a0160101b65ffffffff00001660205165ffffffff00001916186020528160301b63ffffffff60301b1660205163ffffffff60301b19161860205260648411600181146122995780156122c9576122e4565b6020805160ff60541b19600f60501b19909116600160501b181660ff60541b606419880160541b161890526122e4565b60208051610fff60501b191660ff60541b605488901b161890525b508060f01b60ff60f01b1660205160ff60f01b19161860205250505050508260f81b6001600160f81b0319166020516001600160f81b0316186020526020516001605c1b600160f01b0319169050805f808681526020019081526020015f20819055505050505050565b6123588282611861565b610adc575f8281526001602081815260408084206001600160a01b0386168086529252808420805460ff19169093179092559051339285917f2f8788117e7eff1d82e926ec794901d17c78024a50270940304540a733656f0d9190a45050565b60606109956001600160a01b03831660145b60605f6123d8836002612752565b6123e3906002612a11565b67ffffffffffffffff8111156123fb576123fb612857565b6040519080825280601f01601f191660200182016040528015612425576020820181803683370190505b509050600360fc1b815f8151811061243f5761243f612b32565b60200101906001600160f81b03191690815f1a905350600f60fb1b8160018151811061246d5761246d612b32565b60200101906001600160f81b03191690815f1a9053505f61248f846002612752565b61249a906001612a11565b90505b6001811115612511576f181899199a1a9b1b9c1cb0b131b232b360811b85600f16601081106124ce576124ce612b32565b1a60f81b8282815181106124e4576124e4612b32565b60200101906001600160f81b03191690815f1a90535060049490941c9361250a81612b46565b905061249d565b5083156118205760405162461bcd60e51b815260206004820181905260248201527f537472696e67733a20686578206c656e67746820696e73756666696369656e74604482015260640161118a565b5f60208284031215612570575f80fd5b5035919050565b5f60208284031215612587575f80fd5b81356001600160e01b031981168114611820575f80fd5b6001600160a01b03811681146111e3575f80fd5b5f8083601f8401126125c2575f80fd5b50813567ffffffffffffffff8111156125d9575f80fd5b6020830191508360208285010111156125f0575f80fd5b9250929050565b5f805f805f6080868803121561260b575f80fd5b85359450602086013561261d8161259e565b935060408601359250606086013567ffffffffffffffff81111561263f575f80fd5b61264b888289016125b2565b969995985093965092949392505050565b5f806040838503121561266d575f80fd5b82359150602083013561267f8161259e565b809150509250929050565b5f6020828403121561269a575f80fd5b81356118208161259e565b5f80604083850312156126b6575f80fd5b82356126c18161259e565b946020939093013593505050565b5f805f80606085870312156126e2575f80fd5b8435935060208501359250604085013567ffffffffffffffff811115612706575f80fd5b612712878288016125b2565b95989497509550505050565b5f806040838503121561272f575f80fd5b50508035926020909101359150565b634e487b7160e01b5f52601160045260245ffd5b80820281158282048414176109955761099561273e565b5f60208284031215612779575f80fd5b5051919050565b5f60208284031215612790575f80fd5b81516118208161259e565b5f600182016127ac576127ac61273e565b5060010190565b5f5b838110156127cd5781810151838201526020016127b5565b50505f910152565b5f81518084526127ec8160208601602086016127b3565b601f01601f19169290920160200192915050565b6001600160a01b03858116825284166020820152604081018390526080606082018190525f90612832908301846127d5565b9695505050505050565b5f825161284d8184602087016127b3565b9190910192915050565b634e487b7160e01b5f52604160045260245ffd5b5f6020828403121561287b575f80fd5b815167ffffffffffffffff80821115612892575f80fd5b818401915084601f8301126128a5575f80fd5b8151818111156128b7576128b7612857565b604051601f8201601f19908116603f011681019083821181831017156128df576128df612857565b816040528281528760208487010111156128f7575f80fd5b6129088360208301602088016127b3565b979650505050505050565b60609290921b6bffffffffffffffffffffffff19168252601482015260340190565b60018060a01b038616815284602082015283604082015260a060608201525f61296160a08301856127d5565b828103608084015261297381856127d5565b98975050505050505050565b8051801515811461298e575f80fd5b919050565b5f606082840312156129a3575f80fd5b6040516060810181811067ffffffffffffffff821117156129c6576129c6612857565b60405282516129d48161259e565b8152602083810151908201526129ec6040840161297f565b60408201529392505050565b5f60208284031215612a08575f80fd5b6118208261297f565b808201808211156109955761099561273e565b60018060a01b038516815283602082015282604082015260a060608201525f60a082015260c060808201525f61283260c08301846127d5565b604081525f612a6f60408301856127d5565b90508260208301529392505050565b6001600160e01b031991909116815260200190565b5f82612aad57634e487b7160e01b5f52601260045260245ffd5b500490565b76020b1b1b2b9b9a1b7b73a3937b61d1030b1b1b7bab73a1604d1b81525f8351612ae38160178501602088016127b3565b7001034b99036b4b9b9b4b733903937b6329607d1b6017918401918201528351612b148160288401602088016127b3565b01602801949350505050565b602081525f61182060208301846127d5565b634e487b7160e01b5f52603260045260245ffd5b5f81612b5457612b5461273e565b505f19019056fe8d24385f76974ce9574accf90a96cb183e175b097a0cdc49dd2ddd96f6374b72c9d3ed72b71767c9a467f79cf288882213fa725f40ea5b833a2b70350c4e0f12a264697066735822122087227fff4a191cd15526f8611bc168537eec8533569d41bca60fe468f5eccb8564736f6c634300081400338d24385f76974ce9574accf90a96cb183e175b097a0cdc49dd2ddd96f6374b72c9d3ed72b71767c9a467f79cf288882213fa725f40ea5b833a2b70350c4e0f12",
  "deployedBytecode": "0x608060405260043610610268575f3560e01c806356f9654b1161014a57806390d17f11116100be578063a796d4df11610078578063a796d4df1461085c578063a9b002031461087b578063ca54f8641461089a578063d547741f146108b9578063daece59c146108d8578063e8627e241461091c575f80fd5b806390d17f111461079c57806391d14854146107bb5780639f590b7b146107da578063a0f1e1fb146107f9578063a217fddf1461082a578063a3991cf21461083d575f80fd5b80637afb41411161010f5780637afb4141146106d457806386121de0146106e757806389ac88bf146107185780638d40b28c146107375780638fd478151461076857806390c2bd2214610787575f80fd5b806356f9654b146105f157806367c2e33f1461061057806368a806c41461062f5780636f81a8011461064e57806375cf559914610693575f80fd5b80631fd3ca77116101e1578063363cec32116101a6578063363cec321461050357806336568abe146105345780633cf35c7a14610553578063427069891461058757806342fbcce8146105a457806349b274ed146105c3575f80fd5b80631fd3ca7714610452578063248a9ca31461047157806328e04ddc146104a05780632f2ff15d146104b35780633255c49b146104d2575f80fd5b80630bece79c116102325780630bece79c1461038157806314a1c32d146103b2578063188e4681146103c75780631d130cd6146103e45780631dcd2d79146104055780631ec4242d14610433575f80fd5b806278eec61461026c578062d32e8c146102c657806301ffc9a7146102ff5780630888b6d01461032e5780630aaaf43d1461034d575b5f80fd5b348015610277575f80fd5b506102a6610286366004612560565b60096020525f908152604090208054600182015460029092015490919083565b604080519384526020840192909252908201526060015b60405180910390f35b3480156102d1575f80fd5b506102f16102e0366004612560565b5f9081526020819052604090205490565b6040519081526020016102bd565b34801561030a575f80fd5b5061031e610319366004612577565b61093b565b60405190151581526020016102bd565b348015610339575f80fd5b506102f1610348366004612560565b61099b565b348015610358575f80fd5b506102f1610367366004612560565b5f9081526020819052604090205460101c63ffffffff1690565b34801561038c575f80fd5b506002546001600160a01b03165b6040516001600160a01b0390911681526020016102bd565b3480156103bd575f80fd5b506102f160075481565b3480156103d2575f80fd5b506004546001600160a01b031661039a565b3480156103ef575f80fd5b506104036103fe366004612560565b610a16565b005b348015610410575f80fd5b506102f161041f366004612560565b5f9081526020819052604090205460f81c90565b34801561043e575f80fd5b5061040361044d366004612560565b610c5a565b34801561045d575f80fd5b5061031e61046c366004612560565b610ca9565b34801561047c575f80fd5b506102f161048b366004612560565b5f908152600160208190526040909120015490565b6104036104ae3660046125f7565b610ce3565b3480156104be575f80fd5b506104036104cd36600461265c565b6110f4565b3480156104dd575f80fd5b506102f16104ec366004612560565b5f9081526020819052604090205460501c600f1690565b34801561050e575f80fd5b506102f161051d366004612560565b5f9081526020819052604090205460041c600f1690565b34801561053f575f80fd5b5061040361054e36600461265c565b61111e565b34801561055e575f80fd5b506102f161056d366004612560565b5f9081526020819052604090205460301c63ffffffff1690565b348015610592575f80fd5b506003546001600160a01b031661039a565b3480156105af575f80fd5b506104036105be36600461268a565b61119d565b3480156105ce575f80fd5b506102f16105dd366004612560565b5f90815260208190526040902054600f1690565b3480156105fc575f80fd5b5061040361060b366004612560565b6111bd565b34801561061b575f80fd5b5061031e61062a366004612560565b6111e6565b34801561063a575f80fd5b5061040361064936600461268a565b611275565b348015610659575f80fd5b506102a66106683660046126a5565b600860209081525f928352604080842090915290825290208054600182015460029092015490919083565b34801561069e575f80fd5b506102f16106ad3660046126a5565b6001600160a01b03919091165f908152600860209081526040808320938352929052205490565b6104036106e23660046126cf565b6112af565b3480156106f2575f80fd5b506102f1610701366004612560565b5f9081526020819052604090205460f01c60ff1690565b348015610723575f80fd5b50610403610732366004612560565b6117be565b348015610742575f80fd5b506102f1610751366004612560565b5f9081526020819052604090205460081c60ff1690565b348015610773575f80fd5b506102f16107823660046126a5565b6117ef565b348015610792575f80fd5b506102f160055481565b3480156107a7575f80fd5b506104036107b636600461268a565b611827565b3480156107c6575f80fd5b5061031e6107d536600461265c565b611861565b3480156107e5575f80fd5b506102f16107f436600461271e565b61188b565b348015610804575f80fd5b506102f1610813366004612560565b5f9081526020819052604090205460541c60ff1690565b348015610835575f80fd5b506102f15f81565b348015610848575f80fd5b506102f1610857366004612560565b6118d0565b348015610867575f80fd5b506102f1610876366004612560565b6118fb565b348015610886575f80fd5b50610403610895366004612560565b611917565b3480156108a5575f80fd5b506104036108b4366004612560565b611963565b3480156108c4575f80fd5b506104036108d336600461265c565b611a01565b3480156108e3575f80fd5b5061031e6108f23660046126a5565b6001600160a01b03919091165f908152600660209081526040808320938352929052205460ff1690565b348015610927575f80fd5b5061031e610936366004612560565b611a26565b5f635be1e2f560e11b6001600160e01b03198316148061096b5750634a23979d60e01b6001600160e01b03198316145b80610986575063f83e032d60e01b6001600160e01b03198316145b80610995575061099582611a5c565b92915050565b6004545f906001600160a01b031663bd85b0396109b9846002612752565b6040518263ffffffff1660e01b81526004016109d791815260200190565b602060405180830381865afa1580156109f2573d5f803e3d5ffd5b505050506040513d601f19601f820116820180604052508101906109959190612769565b5f80516020612b5c833981519152610a2d81611a90565b610a3682611a26565b610a8657610a6d60405180604001604052806011815260200170496e616374697665206c6f616e3a20257360781b81525083611a9a565b6040516390f54c8560e01b815260040160405180910390fd5b610a8f826111e6565b15610ae057610ac86040518060400160405280601281526020017144656661756c746564206c6f616e3a20257360701b81525083611a9a565b610ad182611adf565b610adc826007611b77565b5050565b6004545f906001600160a01b031663bd85b039610afe856002612752565b6040518263ffffffff1660e01b8152600401610b1c91815260200190565b602060405180830381865afa158015610b37573d5f803e3d5ffd5b505050506040513d601f19601f82011682018060405250810190610b5b9190612769565b11610b9a57610b8f6040518060400160405280600d81526020016c50616964206c6f616e3a20257360981b81525083611a9a565b610adc82600d611b77565b5f82815260208190526040902054600690600f1603610bed57610be46040518060400160405280600f81526020016e416374697665206c6f616e3a20257360881b81525083611a9a565b610adc82611adf565b610c11825f81815260208190526040812054429060101c63ffffffff161192915050565b610adc57610c4f60405180604001604052806018815260200177477261636520706572696f6420657870697265643a20257360401b81525083611a9a565b610be4826006611b77565b335f818152600660209081526040808320858452909152808220805460ff19166001179055518392917f642abefd8ba8508271dc240574875c4b7af73ff6b2a5c0cc6ba41e8b86b6375c91a350565b5f81815260208190526040812054600790600f161015801561099557505f82815260208190526040902054600a90600f165b111592915050565b5f610ced42611be7565b905034610cfb878383611c4f565b6040516331a9108f60e11b81526004810186905286905f906001600160a01b03831690636352211e90602401602060405180830381865afa158015610d42573d5f803e3d5ffd5b505050506040513d601f19601f82011682018060405250810190610d669190612780565b6001600160a01b0389165f9081526008602090815260408083208b84529091528120600780549394509092909190610d9d9061279b565b919050819055815f0181905550610e02848b8b8b856001015f8154610dc19061279b565b9190508190558c8c8080601f0160208091040260200160405190810160405280939291908181526020018383808284375f92019190915250611e5392505050565b6001600160a01b0316826001600160a01b0316141580610e2a57506001600160a01b03821633145b15610e48576040516350a2e21f60e11b815260040160405180910390fd5b610e53855f8c611f73565b826001600160a01b031663b88d4fde8360025f9054906101000a90046001600160a01b03168b600754604051602001610e8e91815260200190565b6040516020818303038152906040526040518563ffffffff1660e01b8152600401610ebc9493929190612800565b5f604051808303815f87803b158015610ed3575f80fd5b505af1158015610ee5573d5f803e3d5ffd5b50506003546040516001600160a01b0386811660248301525f94509091169150869060440160408051601f198184030181529181526020820180516001600160e01b031663919747fb60e01b17905251610f3f919061283c565b5f6040518083038185875af1925050503d805f8114610f79576040519150601f19603f3d011682016040523d82523d5f602084013e610f7e565b606091505b5050905080610fa05760405163176bfe0760e11b815260040160405180910390fd5b6004546007546001600160a01b039091169063a4b645eb903390610fc5906002612752565b60405163c87b56dd60e01b8152600481018e905289906001600160a01b038a169063c87b56dd906024015f60405180830381865afa158015611009573d5f803e3d5ffd5b505050506040513d5f823e601f3d908101601f19168201604052611030919081019061286b565b600754604051611044918b91602001612913565b6040516020818303038152906040526040518663ffffffff1660e01b8152600401611073959493929190612935565b5f604051808303815f87803b15801561108a575f80fd5b505af115801561109c573d5f803e3d5ffd5b50505050600754898b6001600160a01b03167f4929ac7ab6cc744fb93574c8b1e020e958956a560825577596e1f098760b54725f6040516110df91815260200190565b60405180910390a45050505050505050505050565b5f828152600160208190526040909120015461110f81611a90565b6111198383611fa4565b505050565b6001600160a01b03811633146111935760405162461bcd60e51b815260206004820152602f60248201527f416363657373436f6e74726f6c3a2063616e206f6e6c792072656e6f756e636560448201526e103937b632b9903337b91039b2b63360891b60648201526084015b60405180910390fd5b610adc8282611fcb565b5f80516020612b7c8339815191526111b481611a90565b610adc82612031565b6111c681611a26565b6111e3576040516390f54c8560e01b815260040160405180910390fd5b50565b6004545f9081906001600160a01b031663bd85b039611206856002612752565b6040518263ffffffff1660e01b815260040161122491815260200190565b602060405180830381865afa15801561123f573d5f803e3d5ffd5b505050506040513d601f19601f820116820180604052508101906112639190612769565b118015610995575042610cdb836118d0565b5f80516020612b7c83398151915261128c81611a90565b50600280546001600160a01b0319166001600160a01b0392909216919091179055565b6112b883610ca9565b156112d6576040516368f7a67560e11b815260040160405180910390fd5b5f6112e042611be7565b9050346112ee868383611c4f565b6002546040516302a62a4960e41b8152600481018790526001600160a01b03909116905f908290632a62a49090602401606060405180830381865afa158015611339573d5f803e3d5ffd5b505050506040513d601f19601f8201168201806040525081019061135d9190612993565b80516001600160a01b03165f908152600860209081526040808320828501518452825280832080548085526009909352908320918255600180820154908301556002808201549201919091556007805493945090929091906113be9061279b565b918290555081556002810180545f906113d69061279b565b919050819055505f61143d858b855f01518660200151866001015f81546113fc9061279b565b9190508190558d8d8080601f0160208091040260200160405190810160405280939291908181526020018383808284375f92019190915250611e5392505050565b6004805460405163163be8c160e11b81526001600160a01b0380851693820193909352602481018d90529293501690632c77d18290604401602060405180830381865afa158015611490573d5f803e3d5ffd5b505050506040513d601f19601f820116820180604052508101906114b491906129f8565b15806114c857506001600160a01b03811633145b156114e6576040516350a2e21f60e11b815260040160405180910390fd5b6114f58683600201548c611f73565b82516020840151600754604051639fea3e0760e01b81526001600160a01b0393841660048201526024810192909252604482015290851690639fea3e07906064015f604051808303815f87803b15801561154d575f80fd5b505af115801561155f573d5f803e3d5ffd5b505050505f61156d8a61099b565b6003549091505f906001600160a01b03168288101561158c578761158e565b825b6040516001600160a01b0386166024820152604481018e905260640160408051601f198184030181529181526020820180516001600160e01b03166386cd0a4760e01b179052516115df919061283c565b5f6040518083038185875af1925050503d805f8114611619576040519150601f19603f3d011682016040523d82523d5f602084013e61161e565b606091505b50509050806116405760405163176bfe0760e11b815260040160405180910390fd5b6004546007546001600160a01b039091169063a4b645eb903390611665906002612752565b885160208a015160405163c87b56dd60e01b815260048101919091528c916001600160a01b03169063c87b56dd906024015f60405180830381865afa1580156116b0573d5f803e3d5ffd5b505050506040513d5f823e601f3d908101601f191682016040526116d7919081019061286b565b6007546040516116eb918b91602001612913565b6040516020818303038152906040526040518663ffffffff1660e01b815260040161171a959493929190612935565b5f604051808303815f87803b158015611731575f80fd5b505af1158015611743573d5f803e3d5ffd5b505050506007548560200151865f01516001600160a01b03167f4929ac7ab6cc744fb93574c8b1e020e958956a560825577596e1f098760b5472876002015460405161179191815260200190565b60405180910390a4600160075f8282546117ab9190612a11565b9091555050505050505050505050505050565b5f80516020612b7c8339815191526117d581611a90565b60ff8211156117e6576107d86117e8565b815b6005555050565b6001600160a01b0382165f908152600860209081526040808320848452909152812060019081015461182091612a11565b9392505050565b5f80516020612b7c83398151915261183e81611a90565b50600480546001600160a01b0319166001600160a01b0392909216919091179055565b5f9182526001602090815260408084206001600160a01b0393909316845291905290205460ff1690565b5f82815260208190526040812054600481901c600f169060301c63ffffffff16808411156118b957806118bb565b835b93506118c7828561208e565b95945050505050565b5f90815260208190526040902054601081901c63ffffffff90811660309290921c8116919091011690565b5f8181526020819052604081205460101c63ffffffff16610995565b335f818152600660209081526040808320858452909152808220805460ff19169055518392917f5f3183bf1fbf3f9aa30f91fa5c2b16851dd6aa63f139d14fd51477b250eb821791a350565b60045433906001600160a01b031663a4b645eb82611982856002612752565b61198d906001612a11565b600185876040516020016119a2929190612913565b6040516020818303038152906040526040518563ffffffff1660e01b81526004016119d09493929190612a24565b5f604051808303815f87803b1580156119e7575f80fd5b505af11580156119f9573d5f803e3d5ffd5b505050505050565b5f8281526001602081905260409091200154611a1c81611a90565b6111198383611fcb565b5f81815260208190526040812054600590600f161015801561099557505f82815260208190526040902054600690600f16610cdb565b5f6001600160e01b03198216637965db0b60e01b148061099557506301ffc9a760e01b6001600160e01b0319831614610995565b6111e38133612167565b610adc8282604051602401611ab0929190612a5d565b60408051601f198184030181529190526020810180516001600160e01b0316632d839cb360e21b1790526121c0565b5f81815260208190526040902054600f81166006811115611afe575f80fd5b50806020528063ffffffff60301b1660301c8165ffffffff00001660101c014281811115611b295750805b602080515f95865290859052604090942063ffffffff60301b1965ffffffff00001990951665ffffffff0000601084901b16189490941663ffffffff60301b9190920360301b161890915550565b5f82815260208190526040902054600f8116828103611b94575f80fd5b5f84815260208190526040808220600f19909416600f861618938490555160ff808416929086169187917f361d0bb4f0b625387fc860030dd8ba1ec262c62d85ec5ded355aa4e43e63296491a450505050565b5f63ffffffff821115611c4b5760405162461bcd60e51b815260206004820152602660248201527f53616665436173743a2076616c756520646f65736e27742066697420696e203360448201526532206269747360d01b606482015260840161118a565b5090565b601f8390525f8051601b85905281516017869052825160138790528351600188905284519488905292939192909187606460ff87161115611cac576040516343f591d960e11b815261118a9063ecc752dd60e01b90600401612a7e565b6105a08563ffffffff161015611cde576040516343f591d960e11b815261118a906319ec869760e21b90600401612a7e565b63ffffffff84161580611cfe575063ffffffff8881168582160184821601115b15611d25576040516343f591d960e11b815261118a9063fcbf851160e01b90600401612a7e565b865f03611d4e576040516343f591d960e11b815261118a90636a90143560e01b90600401612a7e565b600f8160ff161115611d7c576040516343f591d960e11b815261118a90631427d12960e31b90600401612a7e565b73__$7ff1827adbcc406cbe9f732ad7b1b7248b$__636d8866f18884611dab8560ff168963ffffffff1661208e565b6040516001600160e01b031960e086901b168152600481019390935260ff90911660248301526044820152606401602060405180830381865af4925050508015611e12575060408051601f3d908101601f19168201909252611e0f91810190612769565b60015b611e465760ff811615611e41576040516343f591d960e11b815261118a90638fe03ac360e01b90600401612a7e565b611e48565b505b505050505050505050565b6040805160208082018990528183018890526001600160a01b03871660608301526080820186905260a08083018690528351808403909101815260c0830184528051908201207f19457468657265756d205369676e6564204d6573736167653a0a33320000000060e084015260fc808401919091528351808403909101815261011c90920190925280519101205f905f805f611f0186602081015160408201516060909201515f1a92909190565b604080515f81526020810180835289905260ff8516918101919091526060810183905260808101829052929550909350915060019060a0016020604051602081039080840390855afa158015611f59573d5f803e3d5ffd5b5050604051601f1901519c9b505050505050505050505050565b600554821115611f9657604051630c5eb3e760e21b815260040160405180910390fd5b6111198360075484846121e0565b5f80516020612b5c8339815191528214611fc257610adc828261234e565b610adc81612031565b611fd58282611861565b15610adc575f8281526001602090815260408083206001600160a01b0385168085529252808320805460ff1916905551339285917ff6391f5c32d9c69d2a47ea670b442974b53935d1edc7fd64eb21e047a839171b9190a45050565b600354612055905f80516020612b5c833981519152906001600160a01b0316611fcb565b61206c5f80516020612b5c8339815191528261234e565b600380546001600160a01b0319166001600160a01b0392909216919091179055565b5f825f0361209d575080610995565b826001036120b7576120b0603c83612a93565b9050610995565b826002036120cb576120b0610e1083612a93565b826003036120e0576120b06201518083612a93565b826004036120f5576120b062093a8083612a93565b8260050361210a576120b06212750083612a93565b8260060361211f576120b06224ea0083612a93565b82600703612134576120b062375f0083612a93565b82600803612149576120b06249d40083612a93565b82600e0361215f576120b06301da9c0083612a93565b505f92915050565b6121718282611861565b610adc5761217e816123b8565b6121898360206123ca565b60405160200161219a929190612ab2565b60408051601f198184030181529082905262461bcd60e51b825261118a91600401612b20565b80516a636f6e736f6c652e6c6f67602083015f808483855afa5050505050565b5f816001525f518260025260ff5f5116836013525f51846017525f5185601f525f518660041b602052825f81146122235760208051600f19166005189052612231565b60208051600f191660061890525b508460081b61ff001660205161ff00191618602052828a0160101b65ffffffff00001660205165ffffffff00001916186020528160301b63ffffffff60301b1660205163ffffffff60301b19161860205260648411600181146122995780156122c9576122e4565b6020805160ff60541b19600f60501b19909116600160501b181660ff60541b606419880160541b161890526122e4565b60208051610fff60501b191660ff60541b605488901b161890525b508060f01b60ff60f01b1660205160ff60f01b19161860205250505050508260f81b6001600160f81b0319166020516001600160f81b0316186020526020516001605c1b600160f01b0319169050805f808681526020019081526020015f20819055505050505050565b6123588282611861565b610adc575f8281526001602081815260408084206001600160a01b0386168086529252808420805460ff19169093179092559051339285917f2f8788117e7eff1d82e926ec794901d17c78024a50270940304540a733656f0d9190a45050565b60606109956001600160a01b03831660145b60605f6123d8836002612752565b6123e3906002612a11565b67ffffffffffffffff8111156123fb576123fb612857565b6040519080825280601f01601f191660200182016040528015612425576020820181803683370190505b509050600360fc1b815f8151811061243f5761243f612b32565b60200101906001600160f81b03191690815f1a905350600f60fb1b8160018151811061246d5761246d612b32565b60200101906001600160f81b03191690815f1a9053505f61248f846002612752565b61249a906001612a11565b90505b6001811115612511576f181899199a1a9b1b9c1cb0b131b232b360811b85600f16601081106124ce576124ce612b32565b1a60f81b8282815181106124e4576124e4612b32565b60200101906001600160f81b03191690815f1a90535060049490941c9361250a81612b46565b905061249d565b5083156118205760405162461bcd60e51b815260206004820181905260248201527f537472696e67733a20686578206c656e67746820696e73756666696369656e74604482015260640161118a565b5f60208284031215612570575f80fd5b5035919050565b5f60208284031215612587575f80fd5b81356001600160e01b031981168114611820575f80fd5b6001600160a01b03811681146111e3575f80fd5b5f8083601f8401126125c2575f80fd5b50813567ffffffffffffffff8111156125d9575f80fd5b6020830191508360208285010111156125f0575f80fd5b9250929050565b5f805f805f6080868803121561260b575f80fd5b85359450602086013561261d8161259e565b935060408601359250606086013567ffffffffffffffff81111561263f575f80fd5b61264b888289016125b2565b969995985093965092949392505050565b5f806040838503121561266d575f80fd5b82359150602083013561267f8161259e565b809150509250929050565b5f6020828403121561269a575f80fd5b81356118208161259e565b5f80604083850312156126b6575f80fd5b82356126c18161259e565b946020939093013593505050565b5f805f80606085870312156126e2575f80fd5b8435935060208501359250604085013567ffffffffffffffff811115612706575f80fd5b612712878288016125b2565b95989497509550505050565b5f806040838503121561272f575f80fd5b50508035926020909101359150565b634e487b7160e01b5f52601160045260245ffd5b80820281158282048414176109955761099561273e565b5f60208284031215612779575f80fd5b5051919050565b5f60208284031215612790575f80fd5b81516118208161259e565b5f600182016127ac576127ac61273e565b5060010190565b5f5b838110156127cd5781810151838201526020016127b5565b50505f910152565b5f81518084526127ec8160208601602086016127b3565b601f01601f19169290920160200192915050565b6001600160a01b03858116825284166020820152604081018390526080606082018190525f90612832908301846127d5565b9695505050505050565b5f825161284d8184602087016127b3565b9190910192915050565b634e487b7160e01b5f52604160045260245ffd5b5f6020828403121561287b575f80fd5b815167ffffffffffffffff80821115612892575f80fd5b818401915084601f8301126128a5575f80fd5b8151818111156128b7576128b7612857565b604051601f8201601f19908116603f011681019083821181831017156128df576128df612857565b816040528281528760208487010111156128f7575f80fd5b6129088360208301602088016127b3565b979650505050505050565b60609290921b6bffffffffffffffffffffffff19168252601482015260340190565b60018060a01b038616815284602082015283604082015260a060608201525f61296160a08301856127d5565b828103608084015261297381856127d5565b98975050505050505050565b8051801515811461298e575f80fd5b919050565b5f606082840312156129a3575f80fd5b6040516060810181811067ffffffffffffffff821117156129c6576129c6612857565b60405282516129d48161259e565b8152602083810151908201526129ec6040840161297f565b60408201529392505050565b5f60208284031215612a08575f80fd5b6118208261297f565b808201808211156109955761099561273e565b60018060a01b038516815283602082015282604082015260a060608201525f60a082015260c060808201525f61283260c08301846127d5565b604081525f612a6f60408301856127d5565b90508260208301529392505050565b6001600160e01b031991909116815260200190565b5f82612aad57634e487b7160e01b5f52601260045260245ffd5b500490565b76020b1b1b2b9b9a1b7b73a3937b61d1030b1b1b7bab73a1604d1b81525f8351612ae38160178501602088016127b3565b7001034b99036b4b9b9b4b733903937b6329607d1b6017918401918201528351612b148160288401602088016127b3565b01602801949350505050565b602081525f61182060208301846127d5565b634e487b7160e01b5f52603260045260245ffd5b5f81612b5457612b5461273e565b505f19019056fe8d24385f76974ce9574accf90a96cb183e175b097a0cdc49dd2ddd96f6374b72c9d3ed72b71767c9a467f79cf288882213fa725f40ea5b833a2b70350c4e0f12a264697066735822122087227fff4a191cd15526f8611bc168537eec8533569d41bca60fe468f5eccb8564736f6c63430008140033",
  "libraries": {
    "LibLoanContractInterest": "0x2279B7A0a67DB372996a5FaB50D91eAA73d2eBe6"
  },
  "devdoc": {
    "events": {
      "RoleAdminChanged(bytes32,bytes32,bytes32)": {
        "details": "Emitted when `newAdminRole` is set as ``role``'s admin role, replacing `previousAdminRole` `DEFAULT_ADMIN_ROLE` is the starting admin for all roles, despite {RoleAdminChanged} not being emitted signaling this. _Available since v3.1._"
      },
      "RoleGranted(bytes32,address,address)": {
        "details": "Emitted when `account` is granted `role`. `sender` is the account that originated the contract call, an admin role bearer except when using {AccessControl-_setupRole}."
      },
      "RoleRevoked(bytes32,address,address)": {
        "details": "Emitted when `account` is revoked `role`. `sender` is the account that originated the contract call:   - if using `revokeRole`, it is the admin role bearer   - if using `renounceRole`, it is the role bearer (i.e. `account`)"
      }
    },
    "kind": "dev",
    "methods": {
      "getRoleAdmin(bytes32)": {
        "details": "Returns the admin role that controls `role`. See {grantRole} and {revokeRole}. To change a role's admin, use {_setRoleAdmin}."
      },
      "grantRole(bytes32,address)": {
        "details": "Grants `role` to `account`. If `account` had not been already granted `role`, emits a {RoleGranted} event. Requirements: - the caller must have ``role``'s admin role. May emit a {RoleGranted} event."
      },
      "hasRole(bytes32,address)": {
        "details": "Returns `true` if `account` has been granted `role`."
      },
      "renounceRole(bytes32,address)": {
        "details": "Revokes `role` from the calling account. Roles are often managed via {grantRole} and {revokeRole}: this function's purpose is to provide a mechanism for accounts to lose their privileges if they are compromised (such as when a trusted device is misplaced). If the calling account had been revoked `role`, emits a {RoleRevoked} event. Requirements: - the caller must be `account`. May emit a {RoleRevoked} event."
      },
      "revokeRole(bytes32,address)": {
        "details": "Revokes `role` from `account`. If `account` had been granted `role`, emits a {RoleRevoked} event. Requirements: - the caller must have ``role``'s admin role. May emit a {RoleRevoked} event."
      }
    },
    "version": 1
  },
  "userdoc": {
    "kind": "user",
    "methods": {},
    "version": 1
  },
  "storageLayout": {
    "storage": [
      {
        "astId": 14271,
        "contract": "contracts/LoanContract.sol:LoanContract",
        "label": "__packedDebtTerms",
        "offset": 0,
        "slot": "0",
        "type": "t_mapping(t_uint256,t_bytes32)"
      },
      {
        "astId": 24,
        "contract": "contracts/LoanContract.sol:LoanContract",
        "label": "_roles",
        "offset": 0,
        "slot": "1",
        "type": "t_mapping(t_bytes32,t_struct(RoleData)19_storage)"
      },
      {
        "astId": 24266,
        "contract": "contracts/LoanContract.sol:LoanContract",
        "label": "_collateralVault",
        "offset": 0,
        "slot": "2",
        "type": "t_address"
      },
      {
        "astId": 24268,
        "contract": "contracts/LoanContract.sol:LoanContract",
        "label": "_loanTreasurer",
        "offset": 0,
        "slot": "3",
        "type": "t_address"
      },
      {
        "astId": 24271,
        "contract": "contracts/LoanContract.sol:LoanContract",
        "label": "_anzaToken",
        "offset": 0,
        "slot": "4",
        "type": "t_contract(IAnzaToken)25516"
      },
      {
        "astId": 15379,
        "contract": "contracts/LoanContract.sol:LoanContract",
        "label": "maxRefinances",
        "offset": 0,
        "slot": "5",
        "type": "t_uint256"
      },
      {
        "astId": 15385,
        "contract": "contracts/LoanContract.sol:LoanContract",
        "label": "__revokedTerms",
        "offset": 0,
        "slot": "6",
        "type": "t_mapping(t_address,t_mapping(t_bytes32,t_bool))"
      },
      {
        "astId": 14869,
        "contract": "contracts/LoanContract.sol:LoanContract",
        "label": "totalDebts",
        "offset": 0,
        "slot": "7",
        "type": "t_uint256"
      },
      {
        "astId": 14876,
        "contract": "contracts/LoanContract.sol:LoanContract",
        "label": "debts",
        "offset": 0,
        "slot": "8",
        "type": "t_mapping(t_address,t_mapping(t_uint256,t_struct(Debt)25718_storage))"
      },
      {
        "astId": 14881,
        "contract": "contracts/LoanContract.sol:LoanContract",
        "label": "debtIdBranch",
        "offset": 0,
        "slot": "9",
        "type": "t_mapping(t_uint256,t_struct(Debt)25718_storage)"
      }
    ],
    "types": {
      "t_address": {
        "encoding": "inplace",
        "label": "address",
        "numberOfBytes": "20"
      },
      "t_bool": {
        "encoding": "inplace",
        "label": "bool",
        "numberOfBytes": "1"
      },
      "t_bytes32": {
        "encoding": "inplace",
        "label": "bytes32",
        "numberOfBytes": "32"
      },
      "t_contract(IAnzaToken)25516": {
        "encoding": "inplace",
        "label": "contract IAnzaToken",
        "numberOfBytes": "20"
      },
      "t_mapping(t_address,t_bool)": {
        "encoding": "mapping",
        "key": "t_address",
        "label": "mapping(address => bool)",
        "numberOfBytes": "32",
        "value": "t_bool"
      },
      "t_mapping(t_address,t_mapping(t_bytes32,t_bool))": {
        "encoding": "mapping",
        "key": "t_address",
        "label": "mapping(address => mapping(bytes32 => bool))",
        "numberOfBytes": "32",
        "value": "t_mapping(t_bytes32,t_bool)"
      },
      "t_mapping(t_address,t_mapping(t_uint256,t_struct(Debt)25718_storage))": {
        "encoding": "mapping",
        "key": "t_address",
        "label": "mapping(address => mapping(uint256 => struct ILoanContract.Debt))",
        "numberOfBytes": "32",
        "value": "t_mapping(t_uint256,t_struct(Debt)25718_storage)"
      },
      "t_mapping(t_bytes32,t_bool)": {
        "encoding": "mapping",
        "key": "t_bytes32",
        "label": "mapping(bytes32 => bool)",
        "numberOfBytes": "32",
        "value": "t_bool"
      },
      "t_mapping(t_bytes32,t_struct(RoleData)19_storage)": {
        "encoding": "mapping",
        "key": "t_bytes32",
        "label": "mapping(bytes32 => struct AccessControl.RoleData)",
        "numberOfBytes": "32",
        "value": "t_struct(RoleData)19_storage"
      },
      "t_mapping(t_uint256,t_bytes32)": {
        "encoding": "mapping",
        "key": "t_uint256",
        "label": "mapping(uint256 => bytes32)",
        "numberOfBytes": "32",
        "value": "t_bytes32"
      },
      "t_mapping(t_uint256,t_struct(Debt)25718_storage)": {
        "encoding": "mapping",
        "key": "t_uint256",
        "label": "mapping(uint256 => struct ILoanContract.Debt)",
        "numberOfBytes": "32",
        "value": "t_struct(Debt)25718_storage"
      },
      "t_struct(Debt)25718_storage": {
        "encoding": "inplace",
        "label": "struct ILoanContract.Debt",
        "members": [
          {
            "astId": 25713,
            "contract": "contracts/LoanContract.sol:LoanContract",
            "label": "debtId",
            "offset": 0,
            "slot": "0",
            "type": "t_uint256"
          },
          {
            "astId": 25715,
            "contract": "contracts/LoanContract.sol:LoanContract",
            "label": "collateralNonce",
            "offset": 0,
            "slot": "1",
            "type": "t_uint256"
          },
          {
            "astId": 25717,
            "contract": "contracts/LoanContract.sol:LoanContract",
            "label": "activeLoanIndex",
            "offset": 0,
            "slot": "2",
            "type": "t_uint256"
          }
        ],
        "numberOfBytes": "96"
      },
      "t_struct(RoleData)19_storage": {
        "encoding": "inplace",
        "label": "struct AccessControl.RoleData",
        "members": [
          {
            "astId": 16,
            "contract": "contracts/LoanContract.sol:LoanContract",
            "label": "members",
            "offset": 0,
            "slot": "0",
            "type": "t_mapping(t_address,t_bool)"
          },
          {
            "astId": 18,
            "contract": "contracts/LoanContract.sol:LoanContract",
            "label": "adminRole",
            "offset": 0,
            "slot": "1",
            "type": "t_bytes32"
          }
        ],
        "numberOfBytes": "64"
      },
      "t_uint256": {
        "encoding": "inplace",
        "label": "uint256",
        "numberOfBytes": "32"
      }
    }
  }
}